:1058A50020002A2A2000202A2A20002020204164C6
:1058B50064726573733A2020253034580020202007
:1058C50020205265766973696F6E3A00257300571B
:1058D500726F6E672043504C44206669726D776124
:1058E500726500536C61766520616464723A2025A7
:1058F5006264005265713A20253032626420213D90
:10590500204163743A202530326264004F76657217
:1059150063757272656E74203E302E3541206F6E50
:1059250000202020203556206F7574707574202155
:1059350021212020200020202020536C6176652025
:10594500616464723A20256264002020204F7665E8
:105955007263757272656E74206F6E202020002050
:105965002020323456206F757470757420212121E2
:1059750020202000202020536C617665206164641E
:10598500723A202562640052455345542020202058
:105995002020202020202020202020004E65772058
:1059A5006D6F64756C6520696E20706F727420254B
:1059B500626400506C6573652073656C6563743A49
:1059C500003E2530326258202573202020202020DB
:1059D5002020202020200053454C2020202020205E
:1059E500202020202020204E4558540053454C208F
:1059F50020202020202020505245562020202020E5
:105A05000053454C20202020202020205052455670
:105A1500204E45585400534C415645204D4F444562
:105A2500004D4F44202056415253202053595320B6
:105A3500202020202000502562643A25303262580B
:105A45002025732020202020202020202000202019
:105A55002020202020202020202020202020202041
:105A650020200045534320202020202000202025F1
:105A750063200020202020004553432045524153F8
:105A85004520202020202020202020200045534391
:105A9500204552415345202050524556204E4558E9
:105AA5005400202020204572617365206D6F647558
:105AB5006C65202020200020202020696E20706F3A
:105AC500727420256264203F202020005343532D0B
:105AD5003230303000323031342D30322D303420F8
:0A5AE5002D2063633733366135006E
:108C7E00017F01C116C110C117C109C118C111C1AF
:108C8E0012C113C11544002100000000440025004C
:098C9E00000000017D00017E00D0
:024799008F434C
:10479B0090096574FFF07D017F00128F957D007F7E
:1047AB0001128F95E4900B87F0900B87E0FFC39479
:1047BB0001500D7D011290A2900B87E004F080E96F
:1047CB0012920DEF24FF920A200A03024A15E543C9
:1047DB00700302490EE4900B8AF0900B87F0900B5C
:1047EB0087E0FFC39408400302490E74102FF58233
:1047FB00E43400F583E0900B89F0F4700302490573
:10480B00E075F00BA4242FF582E5F03433F583E447
:10481B0093FB740193FA740293F9EA494B70030208
:10482B004905E4900B88F0900B87E02418F582E49F
:10483B003400F583E0FF900B88E0C39F5040AB68DA
:10484B00AA69A96A900B8AE0FF75F020A4F582850E
:10485B00F083120721FD7C00C004C0057D00EF75BD
:10486B00F020A429F9EA35F0FA90000D120A51D084
:10487B0007D006120B06900B88E004F080A9900B72
:10488B008AE0FF04F0EF75F020A4AB68256AF9E528
:10489B006935F0FA90000D120A51157815781578D4
:1048AB00A878A60308A60208A601900B88E0157845
:1048BB00A878F6900B87E0FF54071578A878F6EFE9
:1048CB00131313541FFB7D04E02429F582E43400F9
:1048DB00F583E0FF900B89E075F00BA4242FF58294
:1048EB00E5F03433F583740193FA740293F5828AFD
:1048FB0083120B04900B8AE004F0900B87E004F01A
:10490B000247E9E4900B87F0900B87E0FFC3940814
:10491B0040030249B974102FF582E43400F583E0AB
:10492B00FFF470030249B075F00BEFA4242FF5824E
:10493B00E5F03433F583E493FB740193FA7402933B
:10494B00F9EA494B605F157815781578A8787600E9
:10495B000876000876001578A878E4F6900B87E0C7
:10496B00FF54071578A878F6EF131313541FFB7D2C
:10497B0001E0FE2429F582E43400F583E0FF741096
:10498B002EF582E43400F583E075F00BA4242FF5AB
:10499B0082E5F03433F583740193FA740293F58254
:1049AB008A83120B04900B87E004F0024913E49006
:1049BB000B87F0900B87E0FFC3788296500B128F1A
:1049CB00C5900B87E004F080EAE4900B87F0AB68AE
:1049DB00AA69A96A900B87E0FF75F020A4F5828580
:1049EB00F0831207216023EF75F020A429F9EA3533
:1049FB00F0FA90000412072130E507900B87E012C4
:104A0B00855A900B87E004F080C4E4FDFF12926A94
:104A1B00E4900B87F07B007A00799312000E7C00F8
:104A2B007D021207E9C374079FFFE49EFE900B877C
:104A3B00E0C39FEE6480F874809850117BFF7A5826
:104A4B0079A5129078900B87E004F080C87BFF7AF1
:104A5B005879A71290787B007A0079931290787B23
:104A6B00FF7A5879AB1290787D01E4FF12926A7B42
:104A7B00FF7A5879B0788DE6F54808E6F549123497
:104A8B00DD7D02E4FF12926A7BFF7A5879C2123401
:104A9B00DD7D03E4FF12926A7548FF75495A754A2A
:0A4AAB00DA7BFF7A5879D10234DD7E
:07898000EF24FF920B7F01C1
:10898700E4F58420160FD216F58475D103F5BA7570
:0D899700BC9875E880C374079F5407F5BBBA
:0D89A40075450275461300D546FCD545F615
:1089B100C2AFC2EDD2EC30EDFDD2AFAFBFEFFFAD34
:1089C100BEED900B9BCFF0A3EFF0C3E094E8900BCA
:0C89D1009BE0940350047F0180027F00B3
:0189DD002277
:105D3700E4F540201716F54174552541F582E43402
:105D470009F583E4F00541E541B410EC129291C8DE
:105D5700ECC8C9EDC9CAEECACBEFCB900000E0FC96
:105D6700A3E0FDA3E0FEA3E0240AFFE43EFEE43D3A
:105D7700FDE43CFCD31208DE501A12929190000009
:105D8700E0F8A3E0F9A3E0FAA3E0FBD31208DE50A2
:105D970003025F6C1292919000001209D1E4F54161
:105DA700900020E0FFE541C39F4003025F78AF41C9
:105DB7001292DD8F3FE53FC4540F640160592018EC
:105DC7000312930D7A007B647D017F01128324E423
:105DD700FDFF12926A7BFF7A5879D41290787D0181
:105DE700E4FF12926AE541D39400400C7BFF7A5896
:105DF70079E88541481234DD7D02E4FF12926A7B1F
:105E0700FF7A5879F8754801E53FC4540FF54912F0
:105E170034DDD218754001E53F20E0512010031210
:105E2700930D7A007B647D017F01128324E4FDFFDB
:105E370012926A7BFF7A5979111234DD7D01E4FFF2
:105E470012926A7BFF7A5979261234DD7D02E4FFCC
:105E570012926AE541D39400400C7BFF7A59793B53
:105E67008541481234DDD210754001800830100595
:105E7700C21012930DE53F30E11174552541F582AB
:105E8700E43409F583E07003025F6774552541F533
:105E970082E43409F583E0702DAF411292DD8F3F24
:105EA700E53F5402D394004003025F67E4FDAF412E
:105EB7001290A2D21774552541F582E43409F5836F
:105EC7007401F012930D7A007B647D017F011283C8
:105ED70024E4FDFF12926A7BFF7A59794F1234DD71
:105EE7007D01E4FF12926A7BFF7A5979641234DDEF
:105EF7007D02E4FF12926AE541D39400400C7BFFD8
:105F07007A5979798541481234DD7D03E4FF12928D
:105F17006A7BFF7A59798C1234DDE4FF128987EFA7
:105F2700603BE4F54274552542F582E43409F58374
:105F3700E060147D01AF421290A274552542F582AC
:105F4700E43409F583E4F00542E542C3941040D5F3
:105F5700C217E4FF128987EF70F812930D7540019D
:105F67000541025DA720170620100330180375406E
:035F770001AF4037
:015F7A002204
:10240A0075840F75A4F575A5F075A6FFE4F5A7F513
:10241A0084F5BA75BC9875E880F5D1F58475D10351
:10242A00F58475D48075840175D480F584E5EF54FC
:10243A0002D39400400312884CE4900B8FF0900B67
:10244A008DF0900B8CF0754308754451900B89F010
:10245A00900B89E0FFC39401500E1291B9EF600806
:10246A00900B89E004F080E8900B89E0900020F05E
:10247A00E4900B89F0900020E0FE900B89E0FFC306
:10248A009E5019D2147D011290C9900B89E0FF7DEC
:10249A00011290A2900B89E004F080D97568017549
:1024AA006900756A31E4900B87F0900B87E0FFC3EF
:1024BA0094084003022A0274292FF582E43400F5B5
:1024CA0083E4F074182FF582E43400F583E4F074A1
:1024DA00102FF582E43400F58374FFF0EF13131321
:1024EA00541FFF900B87E05407FD7B017A0B798814
:1024FA00126CB8900B88E0D3940050030229F9E4D7
:10250A00A3F0900B89E075F00BA42427F582E5F07F
:10251A003433F583E493FF6011900B88E0FEEF6E8D
:10252A006008900B89E004F080D8900B88E06F6017
:10253A0003022861900B87E02418F582E43400F541
:10254A0083E4F0900B8BF0900B89E0FF75F00BA4FD
:10255A00242EF582E5F03433F583E493FE900B8B59
:10256A00E0FDC39E400302283275F00BEFA4242B32
:10257A00F582E5F03433F583E493FB740193FA743E
:10258A000293F9ED75F020A4FFE92FF9EA35F0FA84
:10259A0090000D120A51CFE9CF900B8EEFF0700325
:1025AA0002271BE4900B8AF0900B8EE0FF900B8AB7
:1025BA00E0C39F4003022829900B89E075F00BA421
:1025CA00242BF582E5F03433F583E493FB7401930D
:1025DA00FA740293F9EAC0E0E9C0E0900B8CE07566
:1025EA00F020A4256AF9E56935F0C8E9C8FCAD68A8
:1025FA00D0E0F9D0E0FA7E007F201206E2900B8C40
:10260A00E075F020A4AB68256AF9E56935F0FAE9C6
:10261A002405F9E43AFA7D251291D6EA494B603C41
:10262A00900B87E0FFD394094005EF24378006908A
:10263A000B87E02430FFEFC0E0900B8CE075F020B0
:10264A00A4AB68256AF9E56935F0FAE92405F9E4E5
:10265A003AFA7D251291D6D0E012074E900B8CE003
:10266A0075F020A4AB68256AF9E56935F0FAE92422
:10267A0005F9E43AFA7D231291D6EA494B602D9086
:10268A000B8AE02430FFEFC0E0900B8CE075F0205D
:10269A00A4AB68256AF9E56935F0FAE92405F9E495
:1026AA003AFA7D231291D6D0E012074EAA43A944E2
:1026BA007B01EBC0E0EAC0E0E9C0E0900B8CE0757A
:1026CA00F020A4AB68256AF9E56935F0FA90000DA7
:1026DA00120A81AB68AA69A96A900B8CE075F0208E
:1026EA00A4F58285F0831207212544F544E4354395
:1026FA00F543900B8CE004F0900B87E02418F582E8
:10270A00E43400F583E004F0900B8AE004F002253B
:10271A00B2900B89E075F00BA4242BF582E5F03416
:10272A0033F583E493FB740193FA740293F9900BE3
:10273A008BE075F020A4FFE92FF9EA35F0FAEAC038
:10274A00E0E9C0E0A3E075F020A4256AF9E569355F
:10275A00F0C8E9C8FCAD68D0E0F9D0E0FA7E007FA5
:10276A00201206E2900B8CE075F020A4AB68256A73
:10277A00F9E56935F0FAE92405F9E43AFA7D251212
:10278A0091D6EA494B603C900B87E0FFD39409400D
:10279A0005EF24378006900B87E02430FFEFC0E076
:1027AA00900B8CE075F020A4AB68256AF9E56935D1
:1027BA00F0FAE92405F9E43AFA7D251291D6D0E037
:1027CA0012074EAA43A9447B01EBC0E0EAC0E0E944
:1027DA00C0E0900B8CE075F020A4AB68256AF9E59F
:1027EA006935F0FA90000D120A81AB68AA69A96AE4
:1027FA00900B8CE075F020A4F58285F083120721F6
:10280A002544F544E43543F543900B8CE004F090FD
:10281A000B87E02418F582E43400F583E004F09095
:10282A000B8BE004F0022551900B88E0FF900B8798
:10283A00E0FE2429F582E43400F583EFF0900B8959
:10284A00E0FF74102EF582E43400F583EFF0900B6C
:10285A008DE004F00229F9E4900B89F0900020E061
:10286A00FE900B89E0FFC39E500DE4FD1290C990C3
:10287A000B89E004F080E512930DE4FDFF12926AE1
:10288A007BFF7A5979A1900B87E0F5481234DD7DF8
:10289A0001E4FF12926A7BFF7A5979B81234DDE4B7
:1028AA00900B89F07D02E4FF12926A900B89E0FF97
:1028BA0075F00BA42427F582E5F03433F583E4930D
:1028CA00F54875F00BEFA42428F582E5F03433F5CA
:1028DA0083E493FB740193FA7402938B498A4AF551
:1028EA004B7BFF7A5979C61234DD7D03E4FF1292DD
:1028FA006A900B89E070087BFF7A5979DC80229014
:10290A000B89E075F00BA42432F582E5F03433F537
:10291A0083E4937BFF70067A5979F180047A5A79B5
:10292A00061234DD7F00129021E4FF128987128992
:10293A0080EF24FF920C7F02128987EF24FF920D09
:10294A007F03128987EF24FF920E200B09200C06C1
:10295A00200D03300ECE300B44900B89E075F00B3E
:10296A00A42427F582E5F03433F583E493FB900B36
:10297A0087E0FE131313541FFFEE5407FD125AEF9C
:10298A00900B87E014F0300B0CE4FF128987EF24D8
:10299A00FF920B80F1900B8F7401F08052300D1B67
:1029AA00900B89E0D394004003E014F0300D0C7FC3
:1029BA0002128987EF24FF920D80F1200E0302286C
:1029CA00AE900B89E075F00BA42432F582E5F03461
:1029DA0033F583E4936006900B89E004F0200E033C
:1029EA000228AE7F03128987EF24FF920E80EE90B1
:1029FA000B87E004F00224B4AB68AA69A96A900BB9
:102A0A008CE075F020A4F58285F083E412076090CB
:0B2A1A000B8FE06006E4F58475EF1000
:012A2500228E
:108FC5001578A878EFF6A878E6FF131313541F2435
:108FD50008F582E43400F583E0FEEF5407FF7401E1
:0F8FE500C8EFC8088002C333D8FC4EF0057822CD
:05932D008F397F0022D2
:10925600120708900965F0AB3CAA3DA93E740112BD
:04926600074EFF228E
:1038EA0030190C12930DE4900004F0A374FFF02039
:1038FA000A137D017F0512926A7BFF7A5A791B129D
:10390A0034DD7F0022300F0302399CE4FDFF12925E
:10391A006AE4900B97F07B007A00799312000E7C90
:10392A00007D021207E9C374079FFFE49EFE900B15
:10393A0097E0C39FEE6480F874809850117BFF7AF9
:10394A005879A5129078900B97E004F080C87BFF15
:10395A007A5879A71290787B007A00799312907836
:10396A007BFF7A5879AB1290787D01E4FF12926A54
:10397A007BFF7A5879B0788DE6F54808E6F5491262
:10398A0034DD7D03E4FF12926A7BFF7A5A792612AC
:10399A009078200F03023CBA900005E0FF900004E3
:1039AA00E06F7003023AF8C208E4900B98F0900BAB
:1039BA0097F0900B9AF0900B97E0FFC3940840039E
:1039CA00023A9E74292FF582E43400F583E07003ED
:1039DA00023A95900B98E004F0900004E0FF900BF7
:1039EA0098E0D39F5003023A95900B9AE0FDE4FFCA
:1039FA0012926AE4900B99F0900B99E075F00BA47F
:103A0A002427F582E5F03433F583E493FF601B90B5
:103A1A000B97E02429F582E43400F583E0FEEF6E8B
:103A2A006008900B99E004F080CE900B99E0FF7546
:103A3A00F00BA42427F582E5F03433F583E493FEF2
:103A4A00603A900B9AE0B40304D2088047900B972F
:103A5A00E0F5488E4975F00BEFA42428F582E5F0CD
:103A6A003433F583E493FB740193FA7402938B4A1B
:103A7A008A4BF54C7BFF7A5A793B80067BFF7A5A50
:103A8A0079531234DD900B9AE004F0900B97E0041E
:103A9A00F00239C07D03E4FF12926A7BFF7A5A79F9
:103AAA00681290787D037F1012926A7BFF30080CAF
:103ABA007A5A79727548131234DD80077A5A7978FE
:103ACA001290787D037F0A12926A900004E0D394E0
:103ADA00007BFF400C7A5A79727548121234DD80E5
:103AEA00077A5A7978129078900004E0A3F03008A7
:103AFA000C300E09201506900004E004F090000432
:103B0A00E0D394004009300D06201303E014F0308E
:103B1A000B0C201109C20FA20B921112930D300C3B
:103B2A0003023CBA201203023CBAE4900006F09069
:103B3A000B97F0900006E0FE131313541FFFEE5488
:103B4A0007FD129227EF6006900B97E004F09000B1
:103B5A0006E004F0E0C3940840D9E4900006F0902F
:103B6A000006E0FE131313541FFFEE5407FD1292D2
:103B7A0027EF700C900006E004F0E0C3940840DFE1
:103B8A00900B97E07002FF2212930D7D03E4FF125F
:103B9A00926A900B97E07BFF70067A5A797D8004CF
:103BAA007A5A79921234DDE4FDFF12926A7BFF7A27
:103BBA005A79A71234DD7D01E4FF12926A7BFF7AFB
:103BCA005A79BC900006E0F5481234DD7F00129065
:103BDA0021E4FF128987128980EF24FF920C7F0269
:103BEA00128987EF24FF920D7F03128987EF24FF42
:103BFA00920E200B09200C06200D03300ECE300B3E
:103C0A001F300B0CE4FF128987EF24FF920B80F11F
:103C1A0012930D90000574FFF0C212C2117F0022A8
:103C2A00300C23900006E0FD7BFFE4FF125AEF30D0
:103C3A000C0C7F01128987EF24FF920C80F1E4F5C6
:103C4A008475EF10806A300D2E8012900006E01302
:103C5A001313541FFF7D08129227EF700B90000672
:103C6A00E024075407F080E3300D0C7F02128987A5
:103C7A00EF24FF920D80F1200E03023BB1801590D4
:103C8A000006E0FE131313541FFFEE5407FD1292B1
:103C9A0027EF700A900006E0045407F080E1200E36
:103CAA0003023BB17F03128987EF24FF920E80EE55
:103CBA00200F0D200C0A301207A20C92127F01224B
:103CCA00200F0D200D0A301307A20D92137F022236
:103CDA00300B0F20110CD20F12930D900004E00448
:103CEA00A3F0A20B9211A20C9212A20D9213A20E91
:043CFA0092157F00A0
:013CFE0022A3
:1040D300200A030243C4E4900B87F0900B87E0FFB0
:1040E300131313541F2408F582E43400F583E0FD11
:1040F3007C00EF5407FF74017E00C8EFC8088005F9
:10410300C333CE33CED8F9FFEE5CFEEF5D4E7003C2
:1041130002425FE4900B88F0900B8BF0900B8BE0E6
:10412300FFC39408400302422F74182FF582E4342E
:1041330000F583E0FF900B88E0FD2FFFE433FE9052
:104143000B87E0FCFBD3EF9B7480F86E985003025F
:104153004211EC9DA3F0900B8BE02410F582E43424
:1041630000F583E0900B89F0F4700302422FE075B1
:10417300F00BA4242FF582E5F03433F583E493FBAD
:10418300740193FA740293F9EA494B700302422FC4
:10419300900B87E075F020A4AB68256AF9E56935D3
:1041A300F0FA90000D120A51157815781578A87851
:1041B300C6EBC608C6EAC608C6E9C6900B88E01572
:1041C30078A878F6900B8BE0FF54071578A878F65B
:1041D300EF131313541FFB7D02900B89E0FE75F060
:1041E3000BA42427F582E5F03433F583E493FF75BC
:1041F300F00BEEA4242FF582E5F03433F58374013C
:1042030093FA740293F5828A83120B04801E900B37
:104213008BE02418F582E43400F583E0FF900B88EB
:10422300E02FF0900B8BE004F002411F900B87E02E
:10423300FF131313541F2408F582E43400F583C0DD
:1042430083C082E0FEEF5407FF7401C8EFC8088003
:1042530002C333D8FCF45ED082D083F0900B87E0A6
:1042630004F0E0C3944050030240DE787DE624105E
:10427300F582E43400F583E0FFF4700302438C908D
:104283000B88EFF0E4A3F0787DE62418F582E4349C
:1042930000F583E0FF900B89E0FEC39F40030243D8
:1042A3008C900B88E075F00BA4242FF582E5F03495
:1042B30033F583E493FB740193FA740293F9EA49A7
:1042C3004B6064157815781578A878760108760B15
:1042D30008768C1578A878EEF6787DE6FF540715F6
:1042E30078A878F6EF131313541FFB7D03900B8804
:1042F300E0FE75F00BA42427F582E5F03433F58353
:10430300E493FF75F00BEEA4242FF582E5F034332C
:10431300F583740193FA740293F5828A83120B0472
:10432300900B8AEFF08005E4900B8AF0900B8AE003
:10433300FFD39400404AC2AF7E00EEC0E0EFC0E07E
:10434300900B89E0FF787EE62FFFE433FEEF7805DC
:10435300C333CE33CED8F9AB68256AF9E5693EFAA3
:1043630090000D120A51C8E9C8CCEACCCDEBCD7B45
:10437300017A0B798CD0E0FFD0E0FE1206E2D2AFD7
:10438300900B89E004F002428A787DE62418F582D6
:10439300E43400F583E00826F61806E6B40804E4DE
:1043A300F608F6900965E0F46017E0FE1313135462
:1043B3001FFFEE5407FD7BFF125AEF90096574FF50
:1043C300F0129291C8ECC8C9EDC9CAEECACBEFCBC3
:1043D300900951E0FCA3E0FDA3E0FEA3E0240AFF63
:1043E300E43EFEE43DFDE43CFCD31208DE5017122C
:1043F3009291900951E0F8A3E0F9A3E0FAA3E0FB5E
:10440300D31208DE402D1292919009511209D1E482
:10441300FF128987128980EF24FF920C7F02128991
:1044230087EF24FF920D7F03128987EF24FF920EFB
:10443300121CE5301431129291E47B0AFAF9F8C3A5
:104443001208DE5022D214E4900B88F0900020E092
:10445300FE900B88E0FFC39E500DE4FD1290C990BF
:074463000B88E004F080E586
:01446A00222F
:102F9A004C45442D4465627567004C45442D507577
:102FAA006C7365720044696E203556004F7074491F
:102FBA006E0043504C4400446F75742035562F32CE
:102FCA0034560052656C616973004F70744F7574A2
:102FDA000055696E20302D322E35560055696E2007
:102FEA002B2D3130560049696E20302D322E356D29
:102FFA00410049696E20302D32356D410055696EA8
:10300A0020302D322E3556204673740055696E20B5
:10301A002B2D31305620466173740049696E203079
:10302A002D322E356D41204673740049696E203069
:10303A002D32356D41204673740055696E202B2D53
:10304A0031305620446966660043696E20302D315E
:10305A00306E460043696E20302D3175460050545B
:10306A003130300050543130303000554F757420B3
:10307A00302D322E355600554F7574202B2D313098
:10308A005600494F757420302D322E356D41004956
:10309A004F757420302D32356D41004C69712E48C0
:1030AA0065206C6576656C00554F75742031305615
:1030BA002F3235306D4100245265762400013400E8
:1030CA00000050254F757400000001000103000044
:1030DA00000000000000437F000000010004180007
:1030EA000001502555696E23000001000804000004
:1030FA0000000000000000000000000000041800AA
:10310A000001502555696E230000010004040000E7
:10311A000000000000000000000000000004180089
:10312A000001502555696E230000010008040000C3
:10313A000000000000000000000000000001340050
:10314A000008502552616E6765000100000000000A
:10315A000000000000000000000000000004180049
:10316A0000015025556F7574230001000802000004
:10317A00000041F000003F0000000000000406FDCE
:10318A000001502549696E2300000100080400006F
:10319A0000000000000000000000000000041DF70D
:1031AA000001502543696E23000001000404000059
:1031BA0000000000000000000000000000040800F9
:1031CA0000015025542300000000010008020000FD
:1031DA00000000000000000000000000000406FDDE
:1031EA000009502545786369740001000000000059
:1031FA00000000000000000000000000000406FDBE
:10320A0000015025496F757423000100080200006F
:10321A00000041A000003DCCCCCD00000004180005
:10322A0000015025556F7574230001000102C12069
:10323A000000412000003DCCCCCD0000000406FD7A
:10324A0000015025496F7574230001000201000036
:10325A00000042C800003F800000000000045A003D
:10326A00000150254C696E23000001000202000093
:10327A000000000000000000000000000001320011
:10328A000000502544696E23000001000801000077
:10329A0000000000000000000000000000013200F1
:1032AA000000502544696E2300000100040100005B
:1032BA0000000000000000000000000000013200D1
:1032CA0000005025446F75742300010008010000B6
:1032DA0000003F8000003F80000000000001320033
:1032EA000000502552656C23000001000401000013
:1032FA0000003F8000003F80000000000001320013
:10330A00000050254F7574230000010004010000DD
:10331A0000003F8000003F80000000000001FF2FF6
:10332A009AFF30C701FF866C02FF2FA4000000013C
:10333A0000000020FF2FAFFF328701FF778021FFB7
:10334A002FB6FF32A701FF778022FF2FBCFF3287FB
:10335A0001FF778040FF2FC1FF32C701FF74A741E9
:10336A00FF2FCDFF32E701FF74A742FF2FD4FF33AF
:10337A000701FF74A760FF2FDBFF30E701FF4DCB8A
:10338A0061FF2FE6FF30E701FF4DCB62FF2FF0FF11
:10339A00318701FF4DCB63FF2FFCFF318701FF4DC2
:1033AA00CB64FF3007FF30E701FF446B65FF30163F
:1033BA00FF30E701FF446B66FF3025FF318701FFCD
:1033CA00446B67FF3035FF318701FF446B68FF307C
:1033DA0044FF310701FF4DCB70FF3053FF31A70186
:1033EA00FF53A171FF305EFF31A701FF53A172FFA6
:1033FA003068FF31C702FF3CFF73FF306EFF31C7F1
:10340A0002FF3CFF80FF3075FF316701FF5F7B8160
:10341A00FF3081FF316701FF2A2682FF308CFF329D
:10342A000701FF5F7B83FF3099FF320701FF5F7B54
:10343A0084FF30A5FF324702FF7BA787FF30B2FF28
:10344A00322701FF5F7B000000000000000000003F
:10345A00003CA3D70A3D23D70A3DA3D70A3E23D768
:10346A000A3EA3D70A3F23D70A3FA3D70A4023D746
:01347A000A47
:078CA700440B1F3F80000099
:10671F00E578240EF8E6FFE578240FF8E6FD754CD2
:03672F00017B05E6
:10673200D2B1C2B0C2B2E4900B9FF0900B9FE0FEC8
:10674200C39404504CEFC8EEC8088002C333D8FC8F
:106752005408D394004003D38001C392B3000000D5
:106762000000000000000000000000000000000027
:1067720000D2B00000000000000000000000000095
:1067820000000000000000C2B0900B9FE004F08007
:10679200AAE4900B9FF0900B9FE0FFC39403504C30
:1067A200EDC8EFC8088002C333D8FC5404D3940068
:1067B2004003D38001C392B3000000000000000038
:1067C200000000000000000000000000D2B0000045
:1067D20000000000000000000000000000000000B7
:1067E2000000C2B0900B9FE004F080AAE4900B9FDF
:1067F200F0900B9FE0FFC39403504CEBC8EFC80826
:106802008002C333D8FC5404D394004003D38001E4
:10681200C392B3000000000000000000000000006E
:1068220000000000000000D2B000000000000000E4
:1068320000000000000000000000000000C2B09054
:106842000B9FE004F080AAD2B2000000000000001A
:1068520000000000000000000000000000D2B000B4
:106862000000000000000000000000000000000026
:10687200000000C2B0C2B2C2B3E54C24FF92B0D253
:10688200B2C2B100000000000000000000000000E1
:0968920000000000000000C2B289
:01689B0022DA
:107D1100E5782404F8E6FFE5782405F8E6FD240F6C
:097D2100F582E4340BF583E0FB6C
:037D2A00CCEBCCD3
:107D2D00E4F54C7B02126732E4900B9BF0EC54802F
:107D3D00D394004003D38001C392B3000000000030
:107D4D00000000000000000000000000000000D254
:107D5D00B000000000000000000000000000000066
:107D6D000000000000C2B0EC25E0FC900B9BE0048D
:107D7D00F0E0B408B8C2B3D2B200000000000000B9
:107D8D0000000000000000000000000000D2B00064
:107D9D0000000000000000000000000000000000D6
:077DAD00000000C2B0C2B2E9
:017DB40022AC
:0C7EFC00F8E6FD7B00E5782408F97A0028
:067F08008B458A46894703
:107F0E00E4F54CFB126732D2B20000000000000014
:107F1E0000000000000000000000000000D2B000D1
:107F2E000000000000000000000000000000000043
:107F3E00000000C2B0C2B2E4900B9BF00000000043
:107F4E000000000000000000000000000000000023
:107F5E00D2B0000000000000000000000000000091
:107F6E00000000000000C2B0900B9CE025E0FFA2D4
:107F7E00B4E4334FF0900B9BE004F0E0B408BD90F6
:0C7F8E000B9CE0AB45AA46A94702074E39
:0681FF008B458A4689470A
:10820500E4F54C7B01126732D2B200000000000099
:108215000000000000000000000000000000D2B0D7
:108225000000000000000000000000000000000049
:1082350000000000C2B0C2B2E4900B9BF000000049
:108245000000000000000000000000000000000029
:1082550000D2B00000000000000000000000000097
:1082650000000000000000C2B0900B9CE025E0FF7C
:10827500A2B4E4334FF0900B9BE004F0E0B408BDEA
:0D828500900B9CE0AB45AA46A94702074EAE
:09816B00F8E6FFA878E6FBE4FD4C
:03817400CCEBCC85
:10817700E4F54C7B04126732E4900B9BF0EC5480DF
:10818700D394004003D38001C392B30000000000E2
:10819700000000000000000000000000000000D206
:1081A700B000000000000000000000000000000018
:1081B7000000000000C2B0EC25E0FC900B9BE0043F
:1081C700F0E0B408B8C2B3D2B2000000000000006B
:1081D70000000000000000000000000000D2B00016
:1081E7000000000000000000000000000000000088
:0781F700000000C2B0C2B29B
:0181FE00225E
:0780D100CCEFCC7B017D0127
:0680D8008B468A4789482F
:1080DE00E4F54C7B03126732D2B2000000000000C0
:1080EE000000000000000000000000000000D2B000
:1080FE000000000000000000000000000000000072
:10810E0000000000C2B0C2B2E4900B9BF000000071
:10811E000000000000000000000000000000000051
:10812E0000D2B000000000000000000000000000BF
:10813E0000000000000000C2B0900B9CE025E0FFA4
:10814E00A2B4E4334FF0900B9BE004F0E0B408BD12
:0D815E00900B9CE0AB46AA47A94802074ED3
:109227007B017A0B799B126CB8900B9BE0D394006F
:0892370040047F0180027F006A
:01923F00220C
:066CB8008B458A46894766
:106CBE00E4F54C7B06126732D2B3000000000000F0
:106CCE000000000000000000000000000000D2B034
:106CDE0000000000000000000000000000000000A6
:106CEE0000000000C2B0D2B300000000000000009F
:106CFE00000000000000000000000000D2B0000004
:106D0E000000000000000000000000000000000075
:106D1E000000C2B0C2B3000000000000000000007E
:106D2E0000000000000000000000D2B000000000D3
:106D3E000000000000000000000000000000000045
:106D4E00C2B0E4900B9CF0C2B30000000000000043
:106D5E0000000000000000000000000000D2B000A3
:106D6E000000000000000000000000000000000015
:106D7E00000000C2B0900B9CE004F0E0B406C830F6
:106D8E00B409AB45AA46A947E4805FE4900B9CF09A
:106D9E0000000000000000000000000000000000E5
:106DAE0000000000D2B00000000000000000000053
:106DBE0000000000000000000000C2B0900B9EE03A
:106DCE0025E0FF900B9DE033FEA2B4E433FDEF4DC2
:106DDE00FFEEF0A3EFF0900B9CE004F0E0B410B0E7
:0D6DEE00900B9DE0AB45AA46A94712074E49
:016DFB002275
:108EBD00900BB1EFF0A3EDF0A3EBF0129227EF7052
:108ECD0002FF22900BB1E0FFA3E0FD7B017A0B794D
:108EDD00B0126CB8900BB3E0FF900BB0E06F700464
:068EED007F0180027F00FE
:018EF300225C
:035AEF00CCEBCC31
:105AF200E4F54C7B06126732D2B3000000000000CE
:105B02000000000000000000000000000000D2B011
:105B12000000000000000000000000000000000083
:105B220000000000C2B0C2B300000000000000008C
:105B3200000000000000000000000000D2B00000E1
:105B42000000000000000000000000000000000053
:105B52000000C2B0C2B3000000000000000000005C
:105B620000000000000000000000D2B000000000B1
:105B72000000000000000000000000000000000023
:105B8200C2B0E4900B9BF0D2B30000000000000012
:105B920000000000000000000000000000D2B00081
:105BA20000000000000000000000000000000000F3
:105BB200000000C2B0900B9BE004F0E0B406C8D233
:105BC200B200000000000000000000000000000021
:105BD2000000000000C2B2D2B300000000000000CA
:105BE20000000000000000000000000000D2B00031
:105BF20000000000000000000000000000000000A3
:105C0200000000C2B0C2B3000000000000000000AB
:105C12000000000000000000000000D2B000000000
:105C22000000000000000000000000000000000072
:105C320000C2B0D2B300000000000000000000006B
:105C4200000000000000000000D2B00000000000D0
:105C5200000000000000000000000000000000C280
:105C6200B0E4900B9BF0C2B3000000000000000003
:105C7200000000000000000000000000D2B00000A0
:105C82000000000000000000000000000000000012
:105C92000000C2B0900B9BE004F0E0B406C8E490B0
:105CA2000B9BF0EC5480D394004003D38001C39249
:105CB200B30000000000000000000000000000002F
:105CC2000000000000D2B000000000000000000050
:105CD2000000000000000000000000C2B0EC25E05F
:105CE200FC900B9BE004F0E0B410B8D2B2000000CC
:105CF20000000000000000000000000000000000A2
:0D5D020000C2B2E4900B9CF0A3F020B42787
:0D5D0F0075450175460300D546FCD545F6E7
:105D1C00900B9DE004F07006900B9CE004F0900B4F
:0A5D2C009CE0B427DBA3E0B410D61E
:015D3600224A
:066DFC00CCEBCCCAEDCA8D
:106E0200E4F54C7B07FD126732E4900BB7F0EA54CD
:106E120008D394004003D38001C392B30000000062
:106E22000000000000000000000000000000000060
:106E3200D2B00000000000000000000000000000CE
:106E4200000000000000C2B0EA25E0FA900BB7E0B3
:106E520004F0E0B404B8E4900BB7F0EC5408D39417
:106E6200004003D38001C392B30000000000000081
:106E720000000000000000000000000000D2B0008E
:106E82000000000000000000000000000000000000
:106E9200000000C2B0EC25E0FC900BB7E004F0E08B
:106EA200B404B8E4900BB7F0E50E75F008A4FF90B7
:106EB2000BB7E0FDC39FE5F06480F8748098505CE6
:106EC200ED9400400FE05407700A04250DF50DE41F
:106ED200350CF50CC2B000000000000000000000FC
:106EE20000000000000000000000AB0BAA0CA90D7E
:106EF20012070825E0FFA2B4E4334F12074ED2B0C6
:106F0200000000000000000000000000000000007F
:106F120000000000900BB7E004F0808CD2B20000B9
:106F2200000000000000000000000000000000005F
:026F320000005D
:016F3400223A
:06794100CCEBCCCAEDCA3C
:10794700D2B20000000000000000000000000000AC
:10795700000000000000C2B20000000000000000AC
:10796700000000000000000000000000E4F54C7B70
:1079770007FD126732E4900BB8F0EA5408D394007D
:107987004003D38001C392B3000000000000000051
:10799700000000000000000000000000D2B000005E
:1079A70000000000000000000000000000000000D0
:1079B7000000C2B0EA25E0FA900BB8E004F0E0B4AA
:1079C70004B8E4900BB8F0EC5408D394004003D308
:1079D7008001C392B3000000000000000000000017
:1079E700000000000000000000D2B000000000000E
:1079F700000000000000000000000000000000C2BE
:0F7A0700B0EC25E0FC900BB8E004F0E0B404B85C
:017A1600224D
:108CCD00E4900BB9F0EF5480D394004003D38001AE
:108CDD00C392B3000000000000000000000000007F
:108CED0000000000000000D2B000000000000000F5
:108CFD0000000000000000000000000000C2B0EF06
:0D8D0D0025E0FF900BB9E004F0E0B408B8D9
:018D1A002236
:037A1700C9EFC9EB
:107A1A00E4FB7D07127941CFE9CFE4FB7D0A1279B5
:107A2A0041E4FF128CCDE4FF128CCDCFE9CF7B026B
:107A3A007D0A127941E4FF128CCDE4FF128CCDE469
:107A4A00900BB4F0900BB4E0FBC39407506ACFE9F3
:107A5A00CF7D0C127941900BB4E0FF700AA3740336
:107A6A00F0A37420F08017EF900BB5B402097401EB
:107A7A00F0A374D9F08007740FF0A374FFF0900B91
:107A8A00B5E0C4F854F0C8A3E0C4540F48FF128C00
:107A9A00CD900BB6E0540FC4F8540FC868FF128C8F
:107AAA00CDE4FF128CCDE4FF128CCD7F3A128CCD3F
:107ABA00900BB4E004F0808CCFE9CFE4FB7D0D128B
:107ACA0079417FFF128CCD7FFF128CCDE4FF128C9F
:0B7ADA00CDE4FF128CCD7F14028CCD98
:10919B00E4FB7D09127941D2B2000000000000000F
:0E91AB00000000000000000000000000002294
:0290A2008D45FA
:1090A4007A0B79971280D1E545900B976006E044DE
:1090B40004F08004E054FBF0CFECCF900B97E0FB7E
:0590C4007D0102817432
:0290C9008D45D3
:1090CB007A0B79901280D1E545900B906006E044C5
:1090DB0008F08004E054F7F0CFECCF900B90E0FB5E
:0590EB007D010281740B
:1092DD007B017A0B79977D011280D8900B97E0FF77
:0192ED00225E
:10920D007B017A0B798B7D01E4FF1280D8900B8B5B
:09921D00E030E7037F00227F012D
:019226002225
:1091F2007B017A0B79BA7D01E4FF1280D8900BBA19
:0A920200E030E704540FFF227F0064
:01920C00223F
:1091B9007B017A0B79907D011280D8900B90E0FFAA
:0C91C900F46007EF60047F0180027F006B
:0191D5002277
:1074A7001578A878EBF61578A878EDF61578A8780A
:0674B700EFF615781578D0
:1074BD00E5782403F8E664017063E5782405F8E6C1
:1074CD00FD240FF582E4340BF583E4F0F584E5EF4C
:1074DD0020E114E5782404F8E6FF740F2DF9E43467
:1074ED000BFA7B011281FF127D11E5782404F8E679
:1074FD00FF7B00A9787A00E4FD1280D8A878C9E84E
:10750D00C9E5782405F8E6FF7401C8EFC8088002C4
:10751D00C333D8FC47F7E578240412816BE5782452
:10752D0003F8E664027069E5782407F8CBE6CB082A
:10753D00E6FA08E6F9120708A87808F66028E57853
:10754D002405F8E6240FF582E4340BF583E0FFE51E
:10755D00782406F8E6FE7401C8EEC8088002C3332D
:10756D00D8FC4FF08027E5782405F8E6240FF58246
:10757D00E4340BF583E0FFE5782406F8E6FE7401AC
:10758D00C8EEC8088002C333D8FCF45FF0127D1139
:02759D007F006D
:07759F00E578240AF57822CB
:107780001578A878EBF61578A878EDF61578A8782E
:04779000EFF6157883
:10779400A8780808E66403600302785BE5782406A9
:1077A400F8CBE6CB08E6FA08E6F91207086028E504
:1077B400782404F8E6240FF582E4340BF583E0FF23
:1077C400E5782405F8E6FE7401C8EEC8088002C313
:1077D40033D8FC4FF08027E5782404F8E6240FF52D
:1077E40082E4340BF583E0FFE5782405F8E6FE74C3
:1077F40001C8EEC8088002C333D8FCF45FF0E57812
:107804002403F8E6FFE5782404F8E6FD7B00A97874
:107814007A00127F08E5782405F974017E00C8E730
:10782400C8088005C333CE33CED8F9FFA878E6FD67
:10783400EF5DD394007480948040047F0180027FC4
:1078440000E5782406F8CBE6CB08E6FA08E6F9EF7B
:0978540012074E7F0180027F0043
:07785D00E5782409F578220B
:10866C001578A878EBF61578A878EDF61578A87833
:04867C00EFF6157888
:10868000A8780808E664017033E5782403F8E6FF6B
:108690007B00A9787A00E4FD1280D8A878C9E8C9DF
:1086A000E5782404F8E6FF7401C8EFC8088002C327
:1086B00033D8FC47F7E578240312816BA8780808C3
:1086C000E6B40223E5782403F8E6FFE5782404F80D
:1086D000E6FDE5782406F8CBE6CB08E6FA08E6F9ED
:0986E000120708FB127D2A7F003D
:0786E900E5782409F5782271
:105F7B001578A878EBF61578A878EDF61578A8784B
:085F8B00EFF6E57824F9F57842
:105F93002408F8E664026003026195E578240CF8AE
:105FA300CBE6CB08E6FA08E6F9120902A87812094B
:105FB300C5E5782407F8E6B40209E4FBFA79C87862
:105FC300428022E5782407F8E6B48209E4FBFA79F3
:105FD3002078408010E5782407F8E6B4832FE4FBAB
:105FE300FA79C87841E8C0E0A87812096CD0E0F8E3
:105FF3001202A77B007AFF797F784712019E120372
:10600300EFE5782404F8EEF608EFF68046E5782409
:1060130007F8E6B4873DE4FBFA79A07841E8C0E0ED
:10602300A87812096CD0E0F81202A7E4FBFAF97819
:106033003F1200AD7B007AFF797F784712019E12F1
:1060430003EFE5782404F8EEF608EFF6E578240B81
:10605300F87601E5782409F8E6FFE578240AF8E6FE
:10606300FDE4F54C7B05126732E5782406F8E4F687
:10607300E5782406F8E6FFC39404503FEF9401400B
:1060830003D38001C392B3000000000000000000AE
:106093000000000000000000000000D2B00000007B
:1060A30000000000000000000000000000000000ED
:1060B30000C2B0E5782406F80680B5E5782406F832
:1060C300E4F6E5782406F8E6C394045051E5782411
:1060D3000BF8E6FF5408D394004003D38001C39226
:1060E300B3000000000000000000000000000000FA
:1060F3000000000000D2B00000000000000000001B
:106103000000000000000000000000C2B0E5782499
:106113000BF8EF25E0F6E5782406F80680A4E57889
:106123002406F8E4F6E5782406F8E6C394105060F4
:10613300E5782404F8E6FE08E6FFEE5480FCD3E499
:106143009400EC94004003D38001C392B300000099
:10615300000000000000000000000000000000003C
:1061630000D2B000000000000000000000000000AA
:1061730000000000000000C2B0E5782404F8EF2519
:10618300E0FFEE33F608EFF6E5782406F80680958F
:04619300D2B17F0006
:07619700E578240FF57822E2
:102A26001578A878EBF61578A878EDF61578A878D5
:082A3600EFF6E57824F9F578CC
:102A3E00E5782408F8E664026003022F91E5782415
:102A4E000CF8CBE6CB08E6FA08E6F9120902A878EC
:102A5E001209C5E4FFFE7D207C41A8781209781288
:102A6E000344600B4009A8781209DD41200000E400
:102A7E00FFFE7D207CC1A87812097812034450090C
:102A8E00A8781209DDC1200000E4FFFE7D207C4104
:102A9E00A8781209781200ADE4FBFA79A0784112F9
:102AAE0002A77B007AFF797F784712019EE4FBFA3A
:102ABE00F9783F1200AD1203EFE5782404F8EEF634
:102ACE0008EFF6E5782409F8E6FFE578240AF8E63B
:102ADE00FDE4F54C7B05126732C2B3000000000026
:102AEE00000000000000000000000000000000D206
:102AFE00B000000000000000000000000000000018
:102B0E000000000000C2B0C2B300000000000000D0
:102B1E0000000000000000000000000000D2B00025
:102B2E000000000000000000000000000000000097
:102B3E00000000C2B0E578240BF8E6FFC394045001
:102B4E0049E5782406F8E4F6E5782406F8E6C39419
:102B5E00164003022D3B00000000000000000000A4
:102B6E0000000000000000000000D2B000000000D5
:102B7E000000000000000000000000000000000047
:102B8E00C2B0E5782406F80680BEC2B3000000008D
:102B9E000000000000000000000000000000000027
:102BAE00D2B0000000000000000000000000000095
:102BBE00000000000000C2B0D2B300000000000010
:102BCE000000000000000000000000000000D2B075
:102BDE0000000000000000000000000000000000E7
:102BEE0000000000C2B0C2B30000000000000000F0
:102BFE00000000000000000000000000D2B0000045
:102C0E0000000000000000000000000000000000B6
:102C1E000000C2B0C2B300000000000000000000BF
:102C2E0000000000000000000000D2B00000000014
:102C3E000000000000000000000000000000000086
:102C4E00C2B0EF5402D394004003D38001C392B3B9
:102C5E000000000000000000000000000000000066
:102C6E0000000000D2B000000000000000000000D4
:102C7E0000000000000000000000C2B0E578240B48
:102C8E00F8E65401D394004003D38001C392B300FD
:102C9E000000000000000000000000000000000026
:102CAE00000000D2B0000000000000000000000094
:102CBE00000000000000000000C2B0E5782406F815
:102CCE00E4F6E5782406F8E6C394105060E578241F
:102CDE0004F8E6FE08E6FFEE5480FCD3E49400EC24
:102CEE0094004003D38001C392B3000000000000A3
:102CFE000000000000000000000000000000D2B044
:102D0E0000000000000000000000000000000000B5
:102D1E0000000000C2B0E5782404F8EF25E0FFEED5
:102D2E0033F608EFF6E5782406F8068095C2B30070
:102D3E000000000000000000000000000000000085
:102D4E00000000D2B00000000000000000000000F3
:102D5E00000000000000000000C2B0C2B30000007E
:102D6E000000000000000000000000000000000055
:102D7E0000D2B000000000000000000000000000C3
:102D8E0000000000000000C2B0E578240BF8E6FF5A
:102D9E00D394034049E5782406F8E4F6E578240652
:102DAE00F8E6C394164003022F8F000000000000C7
:102DBE000000000000000000000000000000D2B083
:102DCE0000000000000000000000000000000000F5
:102DDE0000000000C2B0E5782406F80680BEC2B33B
:102DEE0000000000000000000000000000000000D5
:102DFE0000000000D2B00000000000000000000043
:102E0E0000000000000000000000C2B0D2B30000BD
:102E1E0000000000000000000000000000000000A4
:102E2E000000D2B000000000000000000000000012
:102E3E000000000000000000C2B0C2B3000000009D
:102E4E000000000000000000000000000000000074
:102E5E00D2B00000000000000000000000000000E2
:102E6E00000000000000C2B0C2B30000000000006D
:102E7E000000000000000000000000000000D2B0C2
:102E8E000000000000000000000000000000000034
:102E9E0000000000C2B0EF5402D394004003D38070
:102EAE0001C392B30000000000000000000000000B
:102EBE000000000000000000D2B000000000000082
:102ECE000000000000000000000000000000C2B082
:102EDE00E578240BF8E65401D394004003D3800127
:102EEE00C392B300000000000000000000000000CC
:102EFE0000000000000000D2B00000000000000042
:102F0E0000000000000000000000000000C2B0E55C
:102F1E00782406F8E4F6E5782406F8E6C394105013
:102F2E0060E5782404F8E6FE08E6FFEE5480FCD354
:102F3E00E49400EC94004003D38001C392B30000EC
:102F4E000000000000000000000000000000000073
:102F5E000000D2B0000000000000000000000000E1
:102F6E000000000000000000C2B0E5782404F8EF75
:102F7E0025E0FFEE33F608EFF6E5782406F8068036
:052F8E0095D2B17F00A7
:072F9300E578240FF5782218
:0B6A02007D527F03126A0D7D037F01AF
:106A0D001578A878EDF61578A878EFF6157815783D
:106A1D00C2B3C2B100000000000000000000000081
:106A2D000000000000000000A878E4F6A878E6C396
:106A3D0094045031C2B0C2B3000000000000000049
:106A4D00000000000000000000000000D2B00000B7
:106A5D000000000000000000000000000000000029
:106A6D0000000680C7A878E4F6A878087608A8780C
:106A7D00E6C39404504AC2B008E6FFA87808085649
:106A8D0094004003D38001C392B3000000000000C6
:106A9D000000000000000000000000000000D2B067
:106AAD0000000000000000000000000000000000D9
:106ABD0000000000A87808EFC313F6A8780680AE92
:106ACD00D2B2000000000000000000000000000035
:106ADD00000000000000C2B2A878E4F6A87808769D
:106AED0080A878E6C39408504DC2B008E6FFE5785B
:106AFD002403F8E65FD394004003D38001C392B31F
:106B0D000000000000000000000000000000000078
:106B1D0000000000D2B000000000000000000000E6
:106B2D0000000000000000000000A87808EFC3136B
:106B3D00F6A8780680ABD2B1C2B300000000000009
:0E6B4D0000000000000000000000000000003A
:076B5B00E5782404F578221F
:10658300157815781578A878C6EBC608C6EAC60844
:0D659300C6E9C61578A878EFF615781578DA
:1065A000C2B1000000000000000000000000000078
:1065B000000000000000A878E4F6A878E6FFC39485
:1065C00004503BC2B0EFB40103D38001C392B300C7
:1065D00000000000000000000000000000000000BB
:1065E000000000D2B0000000000000000000000029
:1065F000000000000000000000A8780680BCA87819
:10660000E4F6A878087608A878E6C39404504AC24D
:10661000B008E6FFA87808085694004003D380012C
:10662000C392B30000000000000000000000000062
:1066300000000000000000D2B000000000000000D8
:1066400000000000000000000000000000A8780822
:10665000EFC313F6A8780680AED2B20000000000A7
:10666000000000000000000000000000000000C268
:10667000B2A878E4F6E5782403F8CBE6CB08E6FA8E
:1066800008E6F9120A2700000000A878E6C394186B
:106690005070C2B0000000000000000000000000C8
:1066A0000000000000000000E5782403F8CBE6CBF2
:1066B00008E6FA08E6F912090278011208EFC8ECB8
:1066C000C8C9EDC9CAEECACBEFCBA2B4E4334BFFC5
:1066D000EAFEE9FDE8FCE5782403F8CBE6CB08E622
:1066E000FA08E6F9120952D2B000000000000000DA
:1066F00000000000000000000000000000A8780674
:106700008088D2B1000000000000000000000000FE
:08671000000000000000000081
:07671800E5782406F5782264
:104DCB001578A878EBF61578A878EDF61578A8780D
:084DDB00EFF6E57824F5F57808
:104DE300240CF8E664016003024E6BE578240DF8A9
:0C4DF300E6FFE578240E12672A126A021F
:104DFF00E5782409F87664E5782409F8E6D3940079
:104E0F004023E578240AF87603E578240AF8E6D3F8
:104E1F009400400900E578240AF81680ECE5782420
:054E2F0009F81680D215
:104E3400E578240EF8E6FF2417F582E4340BF583B5
:104E44007407F074172FF582E4340BF583E04408FB
:104E5400FD7F02126A0DE578240EF8E6244BF582F4
:104E6400E4340BF583E4F0E578240CF8E6FFB402AF
:104E74002CE578240FF8E6B40823E5782410F8CB61
:104E8400E6CB08E6FA08E6F9120708FEE578240EF0
:104E9400F8E62417F582E4340BF583EEF0EF6403AF
:104EA40060030250C7E578240FF8E6D39407400561
:104EB4007F000250C9E578240DF8E6FFE578240E5A
:104EC400127EFCE5782408F8E65401D394004005EA
:104ED4007F000250C9E578240EF8E6FD244BF582E4
:104EE400E4340BF583E0FFE578240FF8E66F600502
:104EF4007F000250C9E578240DF8E6FF12672D7B88
:104F040000E5782404F97A007F04126583E57824A7
:104F14000BF8E6B46816E578240EF8E6FF244BF5A2
:104F240082E4340BF583E00454038014E578240E02
:104F3400F8E6FF244BF582E4340BF583E0045407D0
:104F4400FE744B2FF582E4340BF583EEF0E5782400
:104F54000EF8E6FF244BF582E4340BF583E0C454E9
:104F6400F04408FE74172FF582E4340BF583E04E09
:104F7400FD7F02126A0DE5782404F812096CE4122C
:104F840003B1E4FBFA7980784B1202A7E578240E8A
:104F9400F8E62417F582E4340BF583E025E025E0F8
:104FA400245BF582E43434F58312098512019EA84A
:104FB400781209C5E578240BF8E6B460028014E59C
:104FC40078240BF8E6B461028043E578240BF8E614
:104FD400B46211A878E8C0E012096CE4FBFA7980A5
:104FE400783F8018E578240BF8E6B46317A878E8CE
:104FF400C0E012096CE4FBFA7920784112019ED0DA
:10500400E0F88034E578240BF8E6B4682EE4FBFA83
:1050140079207840E8C0E0A87812096CD0E0F81252
:1050240002A7E4FBFA79A0784112019EE4FBFA7925
:105034002078C11200ADA8781209C5E578240BF8D0
:10504400E6FF64616009EF64636004EFB4682A7F7B
:10505400007E507DC37C47A87812097812019EE433
:10506400FBFAF9783F1200AD1203EFEC1203B17BA7
:10507400007A5079C3784780287F007E247D747C31
:1050840049A87812097812019EE4FBFAF9783F12D4
:1050940000AD1203EFEC1203B17B007A247974782B
:1050A400491202A7A8781209C5A87812096CE578F4
:1050B4002410F8CBE6CB08E6FA08E6F91209527F89
:0550C4000480027F00E2
:0750C900E5782413F57822BD
:103CFF001578A878EBF61578A878EDF61578A878EA
:083D0F00EFF6E57824F1F578E8
:103D17002410F8E66401705EE5782411F8E6FFE503
:093D270078241212672A126A02C4
:103D3000E578240DF87664E578240DF8E6D3940050
:103D40004023E578240EF87603E578240EF8E6D3D0
:103D50009400400900E578240EF81680ECE57824FC
:053D60000DF81680D2F1
:103D65007D0F7F02126A0DE5782412F8E62407F527
:103D750082E4340BF583E4F0E5782410F8E6640278
:103D85007077E5782413F8E66408706DE5782414F7
:103D9500F8CBE6CB08E6FA08E6F9120902900B1F04
:103DA5001209D17F0A7ED77D237C3C900B1FE0F85A
:103DB500A3E0F9A3E0FAA3E0FB120344401CE4FFEF
:103DC500FE7D207C41900B1FE0F8A3E0F9A3E0FA0B
:103DD500A3E0FB1203446021401F900B1F1209F65C
:103DE5003F800000E5782414F8CBE6CB08E6FA0816
:103DF500E6F9120A273F800000E5782410F8E6640A
:103E05000360030240CAE5782413F8E6D39407401B
:103E1500057F000240CCE5782411F8E6FFE578241B
:103E250012127EFCE5782408F8E65401D39400408C
:103E3500057F000240CCE5782412F8E6FD2407F55D
:103E450082E4340BF583E0FFE5782413F8E66F6030
:103E5500057F000240CCE5782411F8E6FF12672DB6
:103E65007B00E5782409F97A007F04126583E578FB
:103E75002412F8E6FF2407F582E4340BF583E00409
:103E85005407FE74072FF582E4340BF583EEF0E654
:103E95002407F582E4340BF583E0C454F0440FFDA8
:103EA5007F02126A0DE5782409F812096CE4120301
:103EB500B1E4FBFA7980784B1202A77B0A7AD779AD
:103EC50023784012019EA8781209C5A87812096CBA
:103ED500E5782404F81209C5E5782413F8E6D394A7
:103EE50000402FA878E8C0E012096CE5782412F8A4
:103EF500E625E025E02423F582E4340BF583E0F89C
:103F0500A3E0F9A3E0FAA3E0FB1200A9D0E0F812C0
:103F150009C5E5782404F812096CE5782412F8E659
:103F250025E025E02423F582E4340BF5831209D13D
:103F3500A878E8C0E012096CECC0E0EDC0E0EEC086
:103F4500E0EFC0E07F6F7E127D837C3A900B1FE02F
:103F5500F8A3E0F9A3E0FAA3E0FB12019EC8ECC8C0
:103F6500C9EDC9CAEECACBEFCBD0E0FFD0E0FED099
:103F7500E0FDD0E0FC1202A7D0E0F81209C5E57813
:103F8500240FF8E6B47318A878E8C0E012096CE4C9
:103F9500FBFA792078411202A7D0E0F81209C57F13
:103FA500757E787D0C7C35A87812097812019EA85B
:103FB5007812097812019EA87812097812019EECF0
:103FC500C0E0EDC0E0EEC0E0EFC0E07FFA7EED7D41
:103FD5006B7C3AA87812097812019EA878120978A4
:103FE50012019ED0E0FBD0E0FAD0E0F9D0E0F81263
:103FF50000ADECC0E0EDC0E0EEC0E0EFC0E07F1743
:104005007ED97D167C40A87812097812019ED0E0F1
:10401500FBD0E0FAD0E0F9D0E0F81200AD7BD37A1E
:104025004D79E278411200ADA8781209C5A878E863
:10403500C0E012096C7B337A93798878431200A922
:10404500D0E0F81209C5E4FFFE7D207C41A8781276
:10405500097812019EE4FBFAF9783F1200AD1203CC
:10406500EFEC1203B1E4FBFA792078411202A7A81C
:10407500781209C57F007EC07D797C44A878120935
:1040850078120344600B4009A8781209DD4479F9D8
:104095009AE4FFFE7D487CC3A87812097812034490
:1040A5005009A8781209DDC479F99AA87812096C23
:1040B500E5782414F8CBE6CB08E6FA08E6F9120908
:0740C500527F0480027F011D
:0740CC00E5782417F57822C6
:0C7F9A007F01126B627FFC127FA67F004B
:087FA6001578A878EFF61578B4
:107FAE00C2B3C2B1000000000000000000000000DB
:107FBE000000000000000000A878E4F6A878E6C3F0
:107FCE0094085047D2B008E6FF548094004003D383
:107FDE008001C392B300000000000000000000000A
:107FEE00000000000000000000C2B0000000000011
:107FFE00000000000000000000000000000000A8CB
:10800E007808EF25E0F6A8780680B1D2B1C2B300A9
:10801E000000000000000000000000000000000052
:03802E000000004F
:0580310005780578222E
:106B62001578A878EDF61578A878EFF615781578E7
:106B7200C2B3C2B10000000000000000000000002B
:106B82000000000000000000A8780808E62450A8D1
:106B92007808F6A878E4F6A878E6C394085047D2B5
:106BA200B008E6FF548094004003D38001C392B33F
:106BB20000000000000000000000000000000000D3
:106BC20000000000C2B00000000000000000000051
:106BD20000000000000000000000A87808EF25E097
:106BE200F6A8780680B1A8780808E62450A87808A4
:106BF200F6A878E4F6A878E6C394085040D2B0C26A
:106C0200B3000000000000000000000000000000CF
:106C12000000000000C2B000000000000000000000
:106C2200000000000000000000000008E8C0E0E6EC
:106C320025E0FFD0E0F8EFF6A8780680B8A878E45F
:106C4200F6A878E6C39408504ED2B0E5782403F84B
:106C5200E6FF5480D394004003D38001C392B30073
:106C62000000000000000000000000000000000022
:106C7200000000C2B00000000000000000000000A0
:106C8200000000000000000000E5782403F8EF2572
:106C9200E0F6A8780680AAD2B1C2B30000000000D4
:0F6CA200000000000000000000000000000000E3
:076CB100E5782404F57822C8
:10689C00157815781578A878C6EBC608C6EAC60828
:0968AC00C6E9C6E57824FCF57884
:1068B500C2B1000000000000000000000000000060
:1068C500000000000000F8087601A878E4F6A87832
:1068D500E6C394085047D2B008E6FF5480940040C0
:1068E50003D38001C392B300000000000000000044
:1068F5000000000000000000000000C2B000000021
:106905000000000000000000000000000000000082
:0D69150000A87808EF25E0F6A8780680B10C
:10692200A87808087605A8780808E6D394004022DB
:10693200E5782403F87613E5782403F8E6D3940087
:10694200400900E5782403F81680ECA878080816B8
:0269520080D4EF
:10695400A878E4F6E5782404F8CBE6CB08E6FA0850
:10696400E6F9120A2700000000A878E6C39418503C
:1069740070D2B00000000000000000000000000021
:1069840000000000000000E5782404F8CBE6CB0802
:10699400E6FA08E6F912090278011208EFC8ECC811
:1069A400C9EDC9CAEECACBEFCBA2B4E4334BFFEABC
:1069B400FEE9FDE8FCE5782404F8CBE6CB08E6FA2A
:1069C40008E6F9120952C2B00000000000000000FD
:1069D400000000000000000000000000A87806800D
:1069E40088D2B10000000000000000000000000098
:0769F400000000000000009C
:0769FB00E5782407F578227E
:10446B001578A878EBF61578A878EDF61578A87876
:08447B00EFF6E57824F6F57870
:10448300240BF8E66401600302454CE578240CF83C
:10449300E6FFE578240DF8E6FDE4F54C7B051267AD
:1044A300327D027F00126B621D7F02126B627DD030
:1044B3007F03126B627FF0127FA6E5782404F81263
:1044C30009DD000000007FA07E867D017C00E57889
:0F44D3002404F8120978C31208DE505730B5548C
:1044E200E5782408F87601E5782408F8E6D3940004
:1044F2004023E5782409F87603E5782409F8E6D321
:104502009400400900E5782409F81680ECE5782447
:0545120008F81680D23C
:10451700E5782404F812096CEF2401FFE43EFEE479
:104527003DFDE43CFCE5782404F81209C580937D41
:104537000F127F9AE578240DF8E62443F582E434D8
:104547000BF583E4F0E578240BF8E66403600302D7
:104557004790E578240EF8E6D3940740057F0002DC
:104567004792E578240CF8E6FFE578240DF8E6FD98
:10457700E4F54C7B05126732E5782404F81209DD6F
:1045870000000000E47F107E27FDFCE5782404F896
:0C459700120978C31208DE505730B554EA
:1045A300E5782408F87601E5782408F8E6D3940042
:1045B3004023E5782409F87603E5782409F8E6D35F
:1045C3009400400900E5782409F81680ECE5782486
:0545D30008F81680D27B
:1045D800E5782404F812096CEF2401FFE43EFEE4B8
:1045E8003DFDE43CFCE5782404F81209C58094E418
:1045F8007F107E27FDFCE5782404F8120978C312A1
:1046080008DE7004FF024792E578240DF8E6FF24DF
:1046180043F582E4340BF583E0045407FE74432F1A
:10462800F582E4340BF583EEF0E62443F582E434B6
:104638000BF583E0C454F0440FFD127F9A7B00E52C
:10464800782404F97A0012689CE5782404F81209A1
:104658006C78081208EFEC1203B1A8781209C5E4C7
:10466800FBFA7980784FE8C0E0A87812096CD0E0AE
:10467800F81202A7E4FBFA79A0784012019EA87804
:104688001209C5E578240AF8E6B46402803FE578A3
:10469800240AF8E6B4652DE4FBFA79207840E8C0EE
:1046A800E0A87812096CD0E0F81202A7E4FBFA79C6
:1046B800A0784112019EE4FBFA792078C11200AD7E
:1046C800A878803EE578240AF8E6B46617A878E862
:1046D800C0E012096CE4FBFA7980783F12019ED0A1
:1046E800E0F8801EE578240AF8E6B46718A878E8A8
:1046F800C0E012096CE4FBFA7920784112019ED0DF
:10470800E0F81209C5E578240AF8E6FF6465600454
:10471800EFB4672A7F007E407D1C7C46A87812098A
:104728007812019EE4FBFAF9783F1200AD1203EF0C
:10473800EC1203B17B007A40791C784680287F0010
:104748007E507DC37C47A87812097812019EE4FB4D
:10475800FAF9783F1200AD1203EFEC1203B17B00B7
:104768007A5079C378471202A7A8781209C5A878A1
:1047780012096CE578240FF8CBE6CB08E6FA08E6D0
:0A478800F91209527F0480027F013C
:07479200E5782412F57822FE
:1053A1001578A878EBF61578A878EDF61578A87831
:0853B100EFF6E57824F5F5782C
:1053B900240CF8E66403600302564EE578240FF8DE
:1053C900E6FED3940340057F000256507401C8EEEF
:1053D900C8088002C333D8FCA8780808F675840188
:1053E900E5782403F81209DD00000000A878E4F646
:1053F900A878E6C3940A40030254BBE4F5CCF5CD82
:10540900F5C975C804E578240DF8E6FFE578240E9A
:10541900F8E6FDE4F54C7B05126732E578240DF8D2
:10542900E6FFE578240EF8E6FDE4F54CFB12673259
:105439007F00129021E578240DF8E6FFE578240E27
:10544900F8E6FD7B00A978097A00127F08A8780898
:1054590008C9E8C9A87808E6576005E5C830E7D063
:10546900E4F5C8E5782403F8E8C0E012096CECC05B
:10547900E0EDC0E0EEC0E0EFC0E0AFCDEFFEADCCB7
:105489007C00E42DFFEC3ECBEFCBFAE4F9F8D0E059
:10549900FFD0E0FED0E0FDD0E0FCEF2BFFEE3AFEBE
:1054A900E93DFDE83CFCD0E0F81209C5A878060200
:1054B90053F9E5C85480FFBF0127E578240BF8E6C6
:1054C900B4700FE5782407F81209DD411FFFFF02C8
:1054D9005631E5782407F81209DD4479FFFE0256B2
:1054E90031E5782403F812096CE41203B1ECC0E049
:1054F900EDC0E0EEC0E0EFC0E0A878E6FCE41203FE
:10550900BBC8ECC8C9EDC9CAEECACBEFCBD0E0FF26
:10551900D0E0FED0E0FDD0E0FC1202A7E4FBFA796E
:10552900C478421202A7E4FBFA7940784112019E3D
:10553900E5782407F81209C5E5782407F8E8C0E0FA
:1055490012096C7B007A24797478491202A7D0E099
:10555900F81209C5E578240BF8E664707BCD7ACC9E
:10556900798C783F7044E8C0E0E5782407F812099F
:105579006CD0E0F81202A77B007AB8790878491252
:1055890002A77B287A6B796E784E12019EE5782402
:1055990007F81209C5E5782407F8E8C0E012096C94
:1055A9007B777ABE799F783D8041E8C0E0E5782431
:1055B90007F812096CD0E0F81202A7E4FBFA79AFF8
:1055C90078451202A77B287A6B796E784E12019E74
:1055D900E5782407F81209C5E5782407F8E8C0E05A
:1055E90012096C7B9A7A9979F978401200A9D0E06E
:1055F900F81209C5E4FFFE7D7A7C44E5782407F8B2
:1056090012097812019EE4FBFAF9783F1200AD12F3
:1056190003EFEC1203B1E4FBFA797A78441202A79A
:10562900E5782407F81209C5E5782407F812096C0A
:10563900E5782410F8CBE6CB08E6FA08E6F9120972
:07564900527F0480027F0183
:07565000E5782413F5782230
:1063B4001578A878EDF61578A878EFF6157815789D
:1063C400C2B3C2B1000000000000000000000000E1
:1063D4000000000000000000A878E4F6A878E6C3F6
:1063E40094045031C2B0C2B30000000000000000A9
:1063F400000000000000000000000000D2B0000017
:106404000000000000000000000000000000000088
:1064140000000680C7A878E4F6A878087608A8786B
:10642400E6C39404504AC2B008E6FFA878080856A8
:1064340094004003D38001C392B300000000000025
:106444000000000000000000000000000000D2B0C6
:106454000000000000000000000000000000000038
:1064640000000000A87808EFC313F6A8780680AEF1
:10647400A878E4F6A878E6C394215031D2B300009A
:106484000000000000000000000000000000000008
:106494000000D2B000000000000000000000000076
:1064A4000000000000000000C2B00680C7D2B200A5
:1064B40000000000000000000000000000000000D8
:1064C400000000C2B2A878E4F6A878087680A8781C
:1064D400E6C39408504DC2B008E6FFE5782403F8FB
:1064E400E65FD394004003D38001C392B30000005D
:1064F4000000000000000000000000000000000098
:1065040000D2B00000000000000000000000000005
:1065140000000000000000A87808EFC313F6A87874
:106524000680ABA878E4F6A878E6C394215031D26B
:10653400B3000000000000000000000000000000A4
:106544000000000000D2B0000000000000000000C5
:106554000000000000000000000000C2B00680C778
:10656400D2B1C2B30000000000000000000000002F
:0865740000000000000000001F
:07657C00E5782404F5782204
:10619E00157815781578A878C6EBC608C6EAC6082D
:0D61AE00C6E9C61578A878EFF615781578C3
:1061BB00C2B1000000000000000000000000000061
:1061CB00000000000000A878E4F6A878E6FFC3946E
:1061DB0004503BC2B0EFB40103D38001C392B300B0
:1061EB0000000000000000000000000000000000A4
:1061FB00000000D2B0000000000000000000000012
:10620B00000000000000000000A8780680BCA87801
:10621B00E4F6A878087608A878E6C39404504AC236
:10622B00B008E6FFA87808085694004003D3800115
:10623B00C392B3000000000000000000000000004B
:10624B0000000000000000D2B000000000000000C1
:10625B0000000000000000000000000000A878080B
:10626B00EFC313F6A8780680AEA878E4F6A878E614
:10627B00C394215031D2B300000000000000000095
:10628B000000000000000000000000D2B000000081
:10629B0000000000000000000000000000000000F3
:1062AB0000C2B00680C7D2B20000000000000000A0
:1062BB00000000000000000000000000C2B2A8783F
:1062CB00E4F6E5782403F8CBE6CB08E6FA08E6F922
:1062DB00120A2700000000A878E6C394185070C279
:1062EB00B0000000000000000000000000000000F3
:1062FB000000000000E5782403F8CBE6CB08E6FAB3
:10630B0008E6F912090278011208EFC8ECC8C9EDCA
:10631B00C9CAEECACBEFCBA2B4E4334BFFEAFEE91A
:10632B00FDE8FCE5782403F8CBE6CB08E6FA08E6B3
:10633B00F9120952D2B0000000000000000000006A
:10634B0000000000000000000000A878068088A86C
:10635B0078E4F6A878E6C394215031D2B30000005C
:10636B000000000000000000000000000000000022
:10637B0000D2B00000000000000000000000000090
:10638B0000000000000000C2B00680C7D2B10000C0
:10639B0000000000000000000000000000000000F2
:0263AB000000F0
:0763AD00E5782406F57822D3
:107BA7001578A878EBF61578A878EDF61578A87803
:087BB700EFF6E57824F4F578FF
:107BBF00E578240DF8E66401705E12671F7D527F31
:0B7BCF00031263B47D037F011263B456
:107BDA00E578240AF87664E578240AF8E6D394006E
:107BEA004023E578240BF87603E578240BF8E6D3EE
:107BFA009400400900E578240BF81680ECE5782417
:057C0A000AF81680D20B
:107C0F007D0F7F021263B4E578240FF8E62407F5A1
:107C1F0082E4340BF583E4F0E578240DF8E6640292
:107C2F00701512671F7D307F071263B47D337F0796
:107C3F001263B47F00800FE578240DF8E6640370BB
:067C4F0003FF80027F012B
:077C5500E5782414F5782204
:1091170020202020557067726164696E67002020E7
:1091270020204669726D776172652E2E2E002452BB
:049137006576240035
:0F8CAE000184FF420970FFFF44097200000000BB
:104AB500E47880F61292B7C28575840F75E104E437
:104AC500F5E275E344F58475B7B075840F758A838F
:104AD500F597438901758D01758F01758E04F54133
:104AE500F5420542E54270020541640F454170F209
:104AF500438902E4F541F542AE41AF42E4FCFD7B5A
:104B0500507AC3F9F8D31208C8400FE58920E40AA2
:104B15000542E54270E2054180DE7597021285E5A2
:104B250012915DE4FF12917C43EF04E4F541F542F7
:104B35007D01AF42128F950542E54270020541C3E2
:104B45009402E541940040E8E4F520C22FC22DC24D
:104B550033C232C2317880F608F67886F618F678D0
:104B65008BF6F541F54274762542F582E43409F574
:104B750083E4F00542E54270020541B400E8E541F1
:104B8500B401E3E4F541F54274762542F582E43457
:104B95000AF583E4F00542E54270020541644045AB
:104BA5004170E5E4F584E5EF20E10CE5EF5408D329
:104BB50094004003D38001C392037D08E4FF128B68
:104BC500DD7D087F01128BDD12240AE4788AF678F0
:104BD50082F6AB68AA69A96A7882E6FF75F020A417
:104BE500F58285F083120721FE788A26F6EE6005A8
:104BF50078820680DDEFD394004030AB68AA69A9BE
:104C05006A90000D120A51120708FF745512074EDB
:104C150012070864556002D23174AA12074E1207B2
:104C25000864AA6002D231EF12074EE4F584E5EF7D
:104C35005402D3940040047F018002E4FF12769869
:104C45008F40E54020E036C22E74FF788DF608F6D9
:104C550008F608F67E007F107D007B007A007993C8
:104C6500120B067548FF75495A754AD1754B007583
:104C75004C107B007A007993128B3A8002D22E90E9
:104C8500913CE493FF3395E0FEEF24D0FFEE34FF33
:104C9500FE7C007D64120782AA06AB0790913BE477
:104CA50093FF3395E0FEEF24D0FFEE34FFFE7C0347
:104CB5007DE8120782EF2BFBEE3AFA90913DE493E3
:104CC500FF3395E0FEEF24D0FFEE34FFFE7C007D40
:104CD5000A120782EF2BFFEE3AFEA3E493FD33950C
:104CE500E0FCED24D0FDEC34FFCD2F7892F6ED3EBF
:104CF50018F6E54030E103024DA2E4F541F542E541
:104D050042AE417805C333CE33CED8F9FFAB68AA9E
:104D150069A96AF5828E831207216078E92FF9EA7D
:104D25003EFA90000412072120E25EE4F53FE53FDC
:104D3500C3787F965053E542AE417805C333CE33F1
:104D4500CED8F9AB68AA69A96AF5828E83120721C4
:104D5500FF7E00C006C0077D00E542AE417805C371
:104D650033CE33CED8F929F9EA3EFA90000D120A6E
:104D750051788AE6853FF0A429F9EA35F0FAD0079B
:104D8500D006120B06053F80A50542E542700205D7
:104D950041024D047F01124799C2308007E4FF129A
:104DA5004799D230E4F541F5427A007B967D03AF11
:104DB500421283240542E54270020541C39402E58F
:054DC50041940040E4F0
:014DCA0022C6
:05933200788BE6FF222C
:0300230002706008
:10706000C0E0C0F0C083C082C0D075D000C000C0F6
:1070700001C002C003C004C005C006C00730993E6D
:10708000C2997886067986E77881667015F67886E3
:01709000F609
:0D70910075270A75281300D528FCD527F6B1
:04709E00C285801C0B
:0D70A20075271475281300D528FCD527F696
:1070AF007886E62476F582E4340AF583E0F59920B4
:1070BF00980302715B209A08202F05C2980271571E
:1070CF00C29A7885E6062476F582E43409F583E5DD
:1070DF0099F0C298E6FFB40112900976E0FE7003B2
:1070EF00F68069EE54072402788CF6EFB4020D781F
:1070FF008CE6B40907900977E02403F67885E6FF5C
:10710F00B40007E4B40103F68042EFC3788C9640D5
:10711F003B7885E624FFFDE434FFFC7B017A097997
:10712F00761284427885E62475F582E43409F58376
:08713F00E06F6004760080148B
:0D71470075271475281300D528FCD527F6F0
:10715400120BF078857600D007D006D005D004D085
:1071640003D002D001D000D0D0D082D083D0F0D0D0
:02717400E03207
:10002600900977E075F020A4AB68256AF9E5693593
:10003600F0FA90000D120A51788BE6FF18E68FF061
:10004600A4252BF582E435F0F583120721FF7B000A
:040056007A0079298A
:10005A008F398B3A8A3B893CE4F584EA494B601C28
:10006A00AB3AAA3BA93C120708FFE539FD7C00120E
:0C007A00931AAB3AAA3BA93CEF12074EC8
:0D008600753D14753E1300D53EFCD53DF6CA
:0E0093008539997F011290213099FDC2992282
:108F2B00900A767478F07885E62475F582E4340936
:098F3B00F583E0900A77F07F0253
:098F4400E4F5847881EFF6D28592
:0D8F4D00753914753A1300D53AFCD539F684
:078F5A00900A76E0F5992270
:108DB200C9EFC9E964017028EDC39B4034787FE6AE
:108DC200FFEB2FFFE433FEEDC39FEE6480F8748067
:108DD20098501ED22FC3ED9B788BF67887760122AE
:108DE200B90214ED6B700AD22F788BF6788776026F
:088DF20022C22FE47887F6226B
:10891F00C9EFC9BAFF15BBFF12ED6B7002EC6A709D
:10892F0049D22F788BF67887E9F622E96401702512
:10893F00C3ED9BEC9A401C787FE62BFFE43AFEC315
:10894F00ED9FEC9E500DD22FC3ED9B788BF6788761
:10895F007601228015B90218ED6B7002EC6A700A6D
:10896F00D22F788BF67887760222C22FE47887F69B
:01897F0022D5
:100BF000900976E0FF54F8F52AE4F584EF120ADA5A
:100C00000C3D090C4A0A0C5D100C66110C77120C95
:100C10008E190CA41A0CC9200CD2280D53290E557C
:100C2000330E90370EBF390ED9410EE4490EEE5007
:100C30000F36610E1F700F2E9800000F6690097717
:100C4000E0FD788EE6FB7F018027900977E0FCA32A
:100C5000E0FD788DE6FA08E6FB7F01802BD22F7845
:100C6000877603020F66900977E0FD7890E6FB7FB8
:100C700002128DB2020F66900977E0FCA3E0FD78C6
:100C80008FE6FA08E6FB7F0212891F020F669009C1
:100C900077E0FD788EE6FB7F01128DB2202F0302F4
:100CA0000F66801A900977E0FCA3E0FD788DE6FAE4
:100CB00008E6FB7F0112891F202F03020F66900AAE
:100CC000767478F07F01020F63E4F58475EF10020B
:100CD0000F66C2ACE4F529D285FB7A0079297F7FC3
:100CE00012005A7B007A0079297F1812005A7B0083
:100CF0007A0079297F0512005A7882E6120053782B
:100D00008DE6120053788EE6120053788FE61200BB
:100D1000537890E61200537891E61200537892E6E9
:100D2000120053E4F52B7493252BF8E612005305BB
:100D30002BE52BC3941040EE7B007A007900AF299D
:030D400012005A44
:0D0D430075370A75381300D538FCD537F622
:100D5000020E0A900977E0FFC37882964003020EE4
:100D600011EF75F020A4256AF9E56935F08568343E
:100D7000F5358936C2ACE4F529D285FB7A007929AC
:100D80007F7F12005A7B007A0079297F0D12005A6A
:100D9000AB34AA35A936120708120053AB34AA3572
:100DA000A936900001120050AB34AA35A936900044
:100DB00002120050AB34AA35A9369000031200503D
:100DC000AB34AA35A936900004120050E4F52BABE1
:100DD00034E5362405F9E43535FA7E00E9252BF9AA
:100DE000EE3AFA120708120053052BE52BC39408BC
:0D0DF00040DD7B007A007900AF2912005A27
:0D0DFD0075370A75381300D538FCD537F668
:100E0A00C285D2AC020F66900A767478F0E4A3F039
:100E1A007F02020F631292A478A31209C5900A7680
:100E2A00747CF078A3E6A3F008E6A3F008E6A3F042
:100E3A0008E6A3F07C007D057B017A0A79761284A4
:100E4A0042900A7BEFF07F06020F63900977E0FF7A
:100E5A00B4010FA3E0FDA3E0788DCDF608EDF6020C
:100E6A000F2EEFB4020A900978E0788DF6020F2E61
:100E7A00900977E0B4030CA3E0FFA3E0788FCFF6E4
:100E8A0008EFF6020F2EE4F52B900977E0FFE52B29
:100E9A00C39F501B7478252BF582E43409F583E04F
:100EAA00FF7493252BF8EFF6052BE52BB410DAE443
:100EBA0078A2F6806F7A007B327D01788BE6FF128A
:100ECA008324900977E0FDE4FF128BDD020F669020
:100EDA000977E024FF9202020F66900977E024FF67
:100EEA0092018078788BE66005752D02800B20329E
:100EFA0005752D038003752D01900A767479F0A388
:100F0A00E52DF07C007D027B017A0A797612844213
:100F1A00900A78EFF07F03128F44E52D6401703C4C
:100F2A00D2338002D22D788076F180307A007B32FB
:100F3A007D017F00128324900A767479F0900977F4
:100F4A00E0900A77F07C007D027B017A0A797612BA
:100F5A008442900A78EFF07F03128F44E52A64A056
:100F6A006003021175900976E064A16003021065BE
:100F7A00A3E0C3788296400302105AAB68AA69A913
:100F8A006AE0FF75F020A4F58285F083120721F547
:100F9A002DEF75F020A429F9EA35F0FA9000041231
:100FAA00072130E237900977E012932D8F2D900AAE
:100FBA0076747FF0A3E52DF02402FDE433FC7B0177
:100FCA007A0A79761284427478252DF582E4340AF5
:100FDA00F583EFF0E52D2403FF021172900977E003
:100FEA00FF12932DC2ACE4F529D285E52DD39406E0
:100FFA00402B7B007A0079297F7F12005A7B007A86
:10100A00007929AF2D12005AE4F52BE52BC3952D53
:10101A005007120026052B80F2052D8018E52D2495
:10102A0078120053E4F52BE52BC3952D50071200D7
:10103A0026052B80F27B007A007900AF2912005A2C
:0D104A0075370A75381300D538FCD537F618
:10105700021164900A767478F07F01021172900988
:1010670076E064A260030211757882E6FFA3E0FED2
:10107700C39F400302116AA3E0FDC39F400302110F
:101087006AEE9D400302116A900977E0F52BE4F5BB
:1010970032F533900978E0FFE52BD39F5026AF2B2D
:1010A70012932DAB68AA69A96A75F020E52BA4F500
:1010B7008285F0831207212533F533E43532F53283
:1010C700052B80CFC2ACE4F529D285FB7A007929BC
:1010D7007F7F12005AC3E5339480E53294005002B3
:1010E7008007E5324480120053AF33120054900951
:1010F70077E0F52B900978E0FFE52BD39F5046E486
:10110700F52CAB68AA69A96A75F020E52BA4F582CE
:1011170085F083120721FFE52CC39F5024E52B752B
:10112700F020A429F9EA35F0FA90000D120A517857
:101137008BE6FF18E68FF0A4252C120049052C80BA
:10114700C1052B80AF7B007A007900AF2912005AC6
:0D11570075370A75381300D538FCD537F60A
:10116400C285D2AC800B900A767478F07F01128F1E
:1011740044E52A6458704DFA7B327D01788BE6FF92
:10118400128324753C01753D0A753E777B017A090B
:1011940079771292568F2DE52D2478900A76F0EF08
:1011A4002401FDE433FC7B017A0A797612844274CB
:1011B40077252DF582E4340AF583EFF0E52D24023A
:1011C400FF128F44E52A64806009E52A648860037D
:1011D40002139A7887E6B4010F7A007B327D017896
:1011E4008BE6FF128324801AE4F52BE52BC3787F6A
:1011F40096500F7A007B327D01AF2B128324052B8E
:1012040080E9900976E05407F52DB4070A752C019E
:10121400A3E0F52DA38006E4F52C900977E0F52EE4
:10122400152DE52EC37882964003021387AB68AA76
:1012340069A96A75F020E52EA4F58285F08312076A
:1012440021FFE52DD39F40028F2D7887E6B4010955
:10125400788BE6F531F5308009E4F530787FE614D3
:10126400F531788BA630788BE6D3953140030213A1
:101274005EE4F52BE52BC3952D4003021353E52EB5
:1012840075F020A4AB68256AF9E56935F0FA900099
:101294000412072130E20302134E900001120721C9
:1012A40064387041E52DD394044011E52C252B249A
:1012B40078F582E43409F583E0FD80707885E6C32F
:1012C400952BFFE49400FE74742FF58274093EF5A7
:1012D40083E0FDE52E75F020A4AB68256AF9E56985
:1012E40035F0FA8047AB68AA69A96A75F020E52E43
:1012F400A4F58285F083120721FF7885E6C39FFF5A
:10130400E49400FE7C00EF252BFFEC3EFEEF252C41
:10131400FFEC3EFE74752FF58274093EF583E0FD03
:10132400E52E75F020A429F9EA35F0FA90000D12A3
:101334000A51788BE6FF18E68FF0A4FFE52B2FF512
:1013440082E435F0F583ED120760052B021278AFC5
:101354002E128FC5788B0602126A788BA630E52E82
:1013640075F020A4AB68256AF9E56935F0FA9000B8
:101374000412072130E5047884A62EE52A648870D7
:10138400158010E52EB4FF0E900978E0F520E52ACB
:10139400B48803128F2BE52A64A860030214D27860
:1013A40087E6B4010F7A007B327D01788BE6FF1269
:1013B4008324801AE4F52BE52BC3787F96500F7AAB
:1013C400007B327D01AF2B128324052B80E9900929
:1013D40077E030E711547FFEA3E0FDEEF532EDF542
:1013E40033752C03800C900977E0753200F5337562
:1013F4002C027476252CF582E43409F583E0FF741D
:1014040077252CF582E43409F583E0F52F8F2EE55A
:101414002ED3952F40030214CFE52EC37882964035
:10142400030214CAAB68AA69A96A75F020E52EA460
:10143400F58285F083120721F52D7887E6B401093A
:10144400788BE6F531F5308009E4F530787FE614E1
:10145400F531788BA630788BE6D39531505EE4F580
:101464002BE52BC3952D504AE52E75F020A4AB68CF
:10147400256AF9E56935F0FA90000412072120E2A3
:101484002DE52C252B2478F582E43409F583E0FD41
:1014940090000D120A51788BE6FF18E68FF0A4FF36
:1014A400E52B2FF582E435F0F583ED120760052B6B
:1014B40080AFAF2E128FC5788B06809A788BA630BA
:0E14C400E52D252CF52C052E021413128F2B6E
:0114D20022F7
:098A8E0090001D12084AFFAEF031
:108A97008E468F47900970E065467004A3E06547EE
:108AA700603A900966740AF0E546A3F0E547A3F03B
:108AB7007C007D037B017A097966128442900969FB
:108AC700EFF07B017A097966754D017D047C001210
:0D8AD7008292900970E546F0A3E547F02279
:038B8C00CCEECC60
:108B8F00900966741AF0A3ECF0EFA3F07C007D035C
:108B9F007B017A097966128442900969EFF07B01B3
:108BAF007A097966754D017D047C001282927B01F2
:108BBF007A0979667D0A7C00127AE5EF7002FF224E
:0D8BCF00900966E0647860037F00227F015A
:018BDC002276
:108FF4007A007B327D017F0112832474FF90097013
:10900400F0A3F07F0A900966E4F0A3DFFC7B017A09
:0D901400097966754D017D0A7C000282928B
:106F3500E4F53FE53FC3788296400302705FE53F85
:106F450075F020A4AB68256AF9E56935F0FA90007B
:106F55000412072120E40302705A128A8E900966F2
:106F650074A1F0E53F75F020A4AB68256AF9E569E1
:106F750035F0FA90001F120721900967F07C007D1B
:106F8500027B017A097966128442900968EFF07BE9
:106F9500017A097966E4F54D7D03FC1282927B0145
:106FA5007A0979667D647C00127AE58F40E540C3F5
:106FB50094025002804DE5402476FF900966E06F0B
:106FC5006002803FAB68AA69A96A75F020E53FA415
