:10819E0020002A2A2000202A2A20002020204164A4
:1081AE0064726573733A20202530345800202020E5
:1081BE002020536C617665206D6F64652000202051
:1081CE002020205265766973696F6E3A0025730020
:1081DE0057726F6E672043504C44206669726D77FC
:1081EE0061726500536C61766520616464723A2039
:1081FE00256264005265713A202530326264202176
:10820E003D204163743A202530326264004F76651A
:10821E007263757272656E74203E312E3541206F19
:10822E006E00202020323456206F757470757420C5
:10823E0021212120202000202020536C61766520F2
:10824E00616464723A2025626400524553455400BD
:10825E004F76657263757272656E74203E302E3580
:10826E0041206F6E00202020203556206F757470CF
:10827E007574202121210020202020536C61766509
:10828E0020616464723A202562640020202020550B
:10829E00203D2025312E32662056004E6577206D0A
:1082AE006F64756C6520696E20706F727420256224
:1082BE006400506C6573652073656C6563743A0079
:1082CE003E25303262582025732020202020202089
:1082DE0020202020200053454C202020202020202C
:1082EE002020202020204E4558540053454C20205D
:1082FE0020202020202050524556202020202000D3
:10830E0053454C202020202020202050524556201E
:10831E004E455854004D4F44202056415253202074
:10832E0053595320202020202000502562643A25E6
:10833E00303262582025732020202020202020203B
:10834E00200020202020202020202020202020203F
:10835E0020202020202000455343202020202020B4
:10836E00002020256320002020202000455343209C
:10837E00455241534520202020202020202020201F
:10838E0000455343204552415345202050524556F7
:10839E00204E4558540020202020457261736520E0
:1083AE006D6F64756C6520202020002020202069D0
:1083BE006E20706F727420256264203F2020200092
:1083CE00534C415645204D4F4445004164647265FF
:1083DE007373202532626400323031342D30322DE9
:1083EE003035202D206132636161343300534353A5
:0683FE002D323030310089
:10B5EF00017901C116C110C117C118C111C112C112
:10B5FF0013C1154400390000000044003D00000055
:09B60F00004112710041127600A5
:0270AF008F440C
:1070B10090127874FFF07D017F0012B9037D007F8B
:1070C1000112B903E4901E6AF0901E6AE0FFC394B6
:1070D10002500B12A2E4901E6AE004F080EB12BB96
:1070E10087EF24FF9209D20E20090302732BE54496
:1070F1007003027224E4901E6DF0901E6AF0901EDF
:107101006AE0FFC39410400302722474182FF582C1
:10711100E43400F583E0901E6CF0F4700302721BFE
:10712100E075F00BA42465F582E5F0343FF583E4C6
:1071310093FB740193FA740293F9EA494B700302C9
:10714100721BE4901E6BF0901E6AE02428F582E425
:107151003400F583E0FF901E6BE0C39F4003027291
:107161001BAB10AA11A912901E6DE0FF75F020A4AF
:10717100F58285F083120721FD7C00C004C0057DE6
:1071810000EF75F020A429F9EA35F0FA90000D120C
:107191000A88D007D006120B3D901E6DE075F020D5
:1071A100A4AB102512F9E51135F0FA90000D120A81
:1071B10088151815181518A818A60308A60208A6F8
:1071C10001901E6BE01518A818F6901E6AE0FF5496
:1071D100071518A818F6EF131313541FFB7D04E0CD
:1071E1002441F582E43400F583E0FF901E6CE075E4
:1071F100F00BA42465F582E5F0343FF58374019327
:10720100FA740293F5828A83120B3B901E6DE0049F
:10721100F0901E6BE004F0027148901E6AE004F0E9
:107221000270FFE4901E6AF0901E6AE0FFC39410A2
:1072310040030272CF74182FF582E43400F583E025
:10724100FFF470030272C675F00BEFA42465F5829A
:10725100E5F0343FF583E493FB740193FA740293F0
:10726100F9EA494B605F151815181518A81876002A
:107271000876000876001518A818E4F6901E6AE052
:10728100FF54071518A818F6EF131313541FFB7DAD
:1072910001E0FE2441F582E43400F583E0FF741837
:1072A1002EF582E43400F583E075F00BA42465F536
:1072B10082E5F0343FF583740193FA740293F58209
:1072C1008A83120B3B901E6AE004F0027229E4905B
:1072D1001E6AF0901E6AE0FFC3788296500B12B9C5
:1072E10033901E6AE004F080EAE4901E6AF0AB106D
:1072F100AA11A912901E6AE0FF75F020A4F58285FB
:10730100F0831207216023EF75F020A429F9EA35F3
:10731100F0FA90000412072130E507901E6AE0128E
:10732100AE06901E6AE004F080C4E4FDFF12BBDFEC
:10733100E4901E6AF07B007A00799312000E7C00C3
:107341007D021207E9C374079FFFE49EFE901E6A47
:10735100E0C39FEE6480F874809850117BFF7A81BE
:10736100799E12B9E6901E6AE004F080C87BFF7A2C
:107371008179A012B9E67B007A00799312B9E67B94
:10738100FF7A8179A412B9E67D01E4FF12BBDF7BAC
:10739100FF30090F7A8179A9788DE6F54908E6F57C
:1073A1004A80047A8179BB1257157D02E4FF12BB32
:1073B100DF7BFF7A8179CC1257157D03E4FF12BB85
:1073C100DF7549FF754A83754BE67BFF7A8179DB6F
:0373D1000257154B
:07B29900EF24FF920A7F0180
:10B2A000E4F58420160FD216F58475D103F5BA752E
:0DB2B000BC9875E880C374079F5407F5BB78
:0DB2BD0075460275471300D547FCD546F6CF
:10B2CA00C2AFC2EDD2EC30EDFDD2AFAFBFEFFFADF2
:10B2DA00BEED901E88CFF0A3EFF0C3E094E8901E75
:0CB2EA0088E0940350047F0180027F0084
:01B2F6002235
:107993002009037F0122E4901E81F012BC06C8EC8B
:1079A300C8C9EDC9CAEECACBEFCB900000E0FCA377
:1079B300E0FDA3E0FEA3E0240AFFE43EFEE43DFD78
:1079C300E43CFCD31208FD501A12BC06900000E000
:1079D300F8A3E0F9A3E0FAA3E0FBD31208FD5003F8
:1079E300027C3B12BC06900000120A08E4901E823F
:1079F300F0900038E0FE901E82E0FFC39E40030239
:107A03007C4A7B017A1E798012AAA8901E80E0C46A
:107A1300540F640260617A007B647D017F0112ABC5
:107A2300CC20184B12BC71E4FDFF12BBDF7BFF7A45
:107A33008179DE12B9E67D01E4FF12BBDF901E827D
:107A4300E0FFD39400400B7BFF7A8179F28F4912D8
:107A530057157D02E4FF12BBDF7BFF7A8279027543
:107A63004902901E80E0FFC4540FF54A125715D205
:107A730018901E817401F0901E82E0FF754201751B
:107A8300431E754483754503E4FB7D011295CB903A
:107A93001E83E020E303027B1D7A007B647D017F6C
:107AA3000112ABCC20174E12BC71E4FDFF12BBDFF9
:107AB3007BFF7A82791B1257157D01E4FF12BBDF2E
:107AC3007BFF7A8279301257157D02E4FF12BBDF08
:107AD300901E82E0FFD39400400B7BFF7A827945AE
:107AE3008F491257157D037F0F12BBDF7BFF7A820D
:107AF3007958125715D2177F0312B2A0EF60159071
:107B03001E82E0FF12BAE3C2177F0312B2A0EF7026
:107B1300F812BC71901E817401F012BC06E47B6400
:107B2300FAF9F8C31208FD4003027C32901E82E08A
:107B3300FF75420175431E7544867545027B037DBF
:107B4300021295CB901E86E0C4F854F0C868FCA3DB
:107B5300E0C4540F48FDE41203B6E4FBFA79C87895
:107B63004012019EE4FBFA798078451202A7E4FBF8
:107B7300FA7990784012034460025003027C1E207D
:107B8300104912BC717A007B647D017F0112ABCC7A
:107B9300E4FDFF12BBDF7BFF7A82795E1257157D0E
:107BA30001E4FF12BBDF7BFF7A8279731257157DE5
:107BB30002E4FF12BBDF901E82E0FFD39400400B70
:107BC3007BFF7A8279858F491257157D03E4FF1273
:107BD300BBDF901E86E0C4F854F0C868FCA3E0C481
:107BE300540F48FDE41203B6E4FBFA79C878401257
:107BF300019EE4FBFA798078451202A78F4C8E4BE5
:107C03008D4A8C497BFF7A827999125715D210904D
:107C130012777401F0901E81F08014301011901EC1
:107C230082E0FF901277E06F7005C21012BC719072
:107C33001E82E004F00279F42017062010033018A6
:0C7C430006901E817401F0901E81E0FF8D
:017C4F002212
:10410E0075840F75A4F575A5FF75A6FF75A70FE449
:10411E00F584F5BA75BC9875E880F5D1F58475D13E
:10412E0003F58475D48075840175D48012BC97E430
:10413E00901E72F0901E70F0901E6FF07544107508
:10414E004571901E6CF0901E6CE0FFC39402500EF1
:10415E0012BB3AEF6008901E6CE004F080E8901EEF
:10416E006CE0900038F0E4901E6CF0900038E0FEA9
:10417E00901E6CE0FFC39E500FD2147D0112BA1038
:10418E00901E6CE004F080E375100175110075123D
:10419E0051E4901E6AF0901E6AE0FFC39410400333
:1041AE0002470074412FF582E43400F583E4F07485
:1041BE00282FF582E43400F583E4F074182FF5828D
:1041CE00E43400F58374FFF0EF131313541FFF90C4
:1041DE001E6AE05407FD7B017A1E796B12948A9059
:1041EE001E6BE0D3940050030246F7E4A3F0901E3A
:1041FE006CE075F00BA4245DF582E5F0343FF58399
:10420E00E493FF6011901E6BE0FEEF6E6008901E4F
:10421E006CE004F080D8901E6BE06F600302455F87
:10422E00901E6AE02428F582E43400F583E4F090D1
:10423E001E6EF0901E6CE0FF75F00BA42464F582E8
:10424E00E5F0343FF583E493FE901E6EE0FDC39ED1
:10425E00400302453075F00BEFA42461F582E5F0C2
:10426E00343FF583E493FB740193FA740293F9EDF2
:10427E0075F020A4FFE92FF9EA35F0FA90000D123F
:10428E000A88CFE9CF901E71EFF07003024419E453
:10429E00901E6DF0901E71E0FF901E6DE0C39F406A
:1042AE0003024527901E6CE075F00BA42461F58285
:1042BE00E5F0343FF583E493FB740193FA740293B3
:1042CE00F9901E6EE075F020A4FFE92FF9EA35F0A3
:1042DE00FAEAC0E0E9C0E0A3E075F020A42512F9E7
:1042EE00E51135F0C8E9C8FCAD10D0E0F9D0E0FA20
:1042FE007E007F201206E2901E6FE075F020A4ABC8
:10430E00102512F9E51135F0FAE92405F9E43AFA27
:10431E007D2512BB1EEA494B603C901E6AE0FFD31E
:10432E0094094005EF24378006901E6AE02430FF82
:10433E00EFC0E0901E6FE075F020A4AB102512F9CF
:10434E00E51135F0FAE92405F9E43AFA7D2512BBB8
:10435E001ED0E012074E901E6FE075F020A4AB1039
:10436E002512F9E51135F0FAE92405F9E43AFA7D5A
:10437E002312BB1EEA494B602D901E6DE02430FFC8
:10438E00EFC0E0901E6FE075F020A4AB102512F97F
:10439E00E51135F0FAE92405F9E43AFA7D2312BB6A
:1043AE001ED0E012074EAA44A9457B01EBC0E0EAFD
:1043BE00C0E0E9C0E0901E6FE075F020A4AB1025C0
:1043CE0012F9E51135F0FA90000D120AB8AB10AAE9
:1043DE0011A912901E6FE075F020A4F58285F0836E
:1043EE001207212545F545E43544F544901E6FE04E
:1043FE0004F0901E6AE02428F582E43400F583E090
:10440E0004F0901E6DE004F00242A2901E6CE07566
:10441E00F00BA42461F582E5F0343FF583E493FBC1
:10442E00740193FA740293F9901E6EE075F020A455
:10443E00FFE92FF9EA35F0FAEAC0E0E9C0E0A3E0BF
:10444E0075F020A42512F9E51135F0C8E9C8FCADC8
:10445E0010D0E0F9D0E0FA7E007F201206E2901E26
:10446E006FE075F020A4AB102512F9E51135F0FAC6
:10447E00E92405F9E43AFA7D2512BB1EEA494B60A0
:10448E003C901E6AE0FFD394094005EF2437800666
:10449E00901E6AE02430FFEFC0E0901E6FE075F0D2
:1044AE0020A4AB102512F9E51135F0FAE92405F92F
:1044BE00E43AFA7D2512BB1ED0E012074EAA44A99B
:1044CE00457B01EBC0E0EAC0E0E9C0E0901E6FE082
:1044DE0075F020A4AB102512F9E51135F0FA900015
:1044EE000D120AB8AB10AA11A912901E6FE075F04A
:1044FE0020A4F58285F0831207212545F545E43584
:10450E0044F544901E6FE004F0901E6AE02428F5F6
:10451E0082E43400F583E004F0901E6EE004F002B5
:10452E004241901E6BE0FF901E6AE0FE2441F58230
:10453E00E43400F583EFF0901E6CE0FF74182EF556
:10454E0082E43400F583EFF0901E70E004F0024632
:10455E00F7E4901E6CF0900038E0FE901E6CE0FFC9
:10456E00C39E500DE4FD12BA10901E6CE004F08054
:10457E00E512BC71E4FDFF12BBDF7BFF7A8279A9E5
:10458E00901E6AE0F5491257157D01E4FF12BBDF5C
:10459E007BFF7A8279C0125715E4901E6CF07D0273
:1045AE00E4FF12BBDF901E6CE0FF75F00BA4245DE0
:1045BE00F582E5F0343FF583E493F54975F00BEFA2
:1045CE00A4245EF582E5F0343FF583E493FB740199
:1045DE0093FA7402938B4A8A4BF54C7BFF7A82795D
:1045EE00CE1257157D03E4FF12BBDF901E6CE070F8
:1045FE00087BFF7A8279E48022901E6CE075F00BC6
:10460E00A42468F582E5F0343FF583E4937BFF70D4
:10461E00067A8279F980047A83790E1257157F0013
:10462E0012B98FE4FF12B2A012B299EF24FF920BCF
:10463E007F0212B2A0EF24FF920C7F0312B2A0EF02
:10464E0024FF920D200A09200B06200C03300DCEFC
:10465E00300A44901E6CE075F00BA4245DF582E5E3
:10466E00F0343FF583E493FB901E6AE0FE131313C0
:10467E00541FFFEE5407FD128404901E6AE014F0DE
:10468E00300A0CE4FF12B2A0EF24FF920A80F190E0
:10469E001E727401F08052300C1B901E6CE0D3948D
:1046AE00004003E014F0300C0C7F0212B2A0EF2495
:1046BE00FF920C80F1200D030245AC901E6CE0754C
:1046CE00F00BA42468F582E5F0343FF583E49360A3
:1046DE0006901E6CE004F0200D030245AC7F031221
:1046EE00B2A0EF24FF920D80EE901E6AE004F0025D
:1046FE0041A4AB10AA11A912901E6FE075F020A470
:10470E00F58285F083E4120760901E72E06006E485
:05471E00F58475EF10A9
:014723002273
:10B933001518A818EFF6A818E6FF131313541F24BD
:10B9430008F582E43400F583E0FEEF5407FF740149
:0FB95300C8EFC8088002C333D8FC4EF005182295
:05BC9E008F397F002238
:10BBCB00120708901278F0AB3CAA3DA93E74011203
:04BBDB00074EFF22F0
:105B220030190C12BC71E4900004F0A374FFF02051
:105B320009037F0022300F03025BCEE4FDFF12BB9C
:105B4200DFE4901E80F07B007A00799312000E7CD5
:105B5200007D021207E9C374079FFFE49EFE901EB8
:105B620080E0C39FEE6480F874809850117BFF7AC6
:105B720081799E12B9E6901E80E004F080C87BFF16
:105B82007A8179A012B9E67B007A00799312B9E69C
:105B92007BFF7A8179A412B9E67D01E4FF12BBDFB3
:105BA2007BFF7A8179A9788DE6F54908E6F54A12F4
:105BB20057157D027F0112BBDF12B59F7D03E4FF03
:105BC20012BBDF7BFF7A83792312B9E6200F03022F
:105BD2005EEC900005E0FF900004E06F7003025D50
:105BE2002AC208E4901E81F0901E80F0901E83F07D
:105BF200901E80E0FFC394104003025CD074412FDA
:105C0200F582E43400F583E07003025CC7901E81E4
:105C1200E004F0900004E0FF901E81E0D39F500367
:105C2200025CC7901E83E0FDE4FF12BBDFE4901E1E
:105C320082F0901E82E075F00BA4245DF582E5F0FF
:105C4200343FF583E493FF601B901E80E02441F50E
:105C520082E43400F583E0FEEF6E6008901E82E07D
:105C620004F080CE901E82E0FF75F00BA4245DF557
:105C720082E5F0343FF583E493FE603A901E83E0C0
:105C8200B40304D2088047901E80E0F5498E4A751D
:105C9200F00BEFA4245EF582E5F0343FF583E49344
:105CA200FB740193FA7402938B4B8A4CF54D7BFF84
:105CB2007A83793880067BFF7A8379501257159060
:105CC2001E83E004F0901E80E004F0025BF27D038C
:105CD200E4FF12BBDF7BFF7A83796512B9E67D03AD
:105CE2007F1012BBDF7BFF30080C7A83796F754916
:105CF2001312571580077A83797512B9E67D037FEF
:105D02000A12BBDF900004E0D394007BFF400C7AC0
:105D120083796F75491212571580077A8379751244
:105D2200B9E6900004E0A3F030080C300D0920150C
:105D320006900004E004F0900004E0D394004009CF
:105D4200300C06201303E014F0300A0C201109C2B3
:105D52000FA20A921112BC71300B03025EEC2012E8
:105D620003025EECE4900006F0901E80F0900006C4
:105D7200E0FE131313541FFFEE5407FD12BB55EF41
:105D82006006901E80E004F0900006E004F0E0C39C
:105D9200941040D9E4900006F0900006E0FE131340
:105DA20013541FFFEE5407FD12BB55EF700C900009
:105DB20006E004F0E0C3941040DF901E80E0700221
:105DC200FF2212BC717D03E4FF12BBDF901E80E054
:105DD2007BFF70067A83797A80047A83798F1257EF
:105DE20015E4FDFF12BBDF7BFF7A8379A4125715FE
:105DF2007D01E4FF12BBDF7BFF7A8379B990000655
:105E0200E0F5491257157F0012B98FE4FF12B2A0D4
:105E120012B299EF24FF920B7F0212B2A0EF24FF7D
:105E2200920C7F0312B2A0EF24FF920D200A0920E8
:105E32000B06200C03300DCE300A1F300A0CE4FF93
:105E420012B2A0EF24FF920A80F112BC71900005F9
:105E520074FFF0C212C2117F0022300B23900006A1
:105E6200E0FD7BFFE4FF128404300B0C7F0112B2D1
:105E7200A0EF24FF920B80F1E4F58475EF10806AA5
:105E8200300C2E8012900006E0131313541FFF7D76
:105E92001012BB55EF700B900006E0240F540FF068
:105EA20080E3300C0C7F0212B2A0EF24FF920C8030
:105EB200F1200D03025DE38015900006E0FE13134E
:105EC20013541FFFEE5407FD12BB55EF700A9000EA
:105ED20006E004540FF080E1200D03025DE37F032E
:105EE20012B2A0EF24FF920D80EE200F0D200B0ABC
:105EF200301207A20B92127F0122200F0D200C0AF2
:105F0200301307A20C92137F0222300A0F20110CC9
:105F1200D20F12BC71900004E004A3F0A20A921105
:0E5F2200A20B9212A20C9213A20D92157F00F8
:015F3000224E
:105F3100200903026231E4901E6AF0901E6AE0FFBC
:105F4100131313541F2408F582E43400F583E0FD94
:105F51007C00EF5407FF74017E00C8EFC80880057C
:105F6100C333CE33CED8F9FFEE5CFEEF5D4E700346
:105F71000260BDE4901E6BF0901E6EF0901E6EE00C
:105F8100FFC39410400302608D74282FF582E4341E
:105F910000F583E0FF901E6BE0FD2FFFE433FE90E0
:105FA1001E6AE0FCFBD3EF9B7480F86E98500302ED
:105FB100606FEC9DA3F0901E6EE02418F582E4342E
:105FC10000F583E0901E6CF0F4700302608DE075C3
:105FD100F00BA42465F582E5F0343FF583E493FBEF
:105FE100740193FA740293F9EA494B700302608DCC
:105FF100901E6AE075F020A4AB102512F9E5113569
:10600100F0FA90000D120A88151815181518A8181D
:10601100C6EBC608C6EAC608C6E9C6901E6BE015FF
:1060210018A818F6901E6EE0FF54071518A818F668
:10603100EF131313541FFB7D02901E6CE0FE75F0ED
:106041000BA4245DF582E5F0343FF583E493FF75FD
:10605100F00BEEA42465F582E5F0343FF58374017D
:1060610093FA740293F5828A83120B3B801E901E71
:106071006EE02428F582E43400F583E0FF901E6B86
:10608100E02FF0901E6EE004F0025F7D901E6AE04A
:10609100FF131313541F2408F582E43400F583C061
:1060A10083C082E0FEEF5407FF7401C8EFC8088087
:1060B10002C333D8FCF45ED082D083F0901E6AE034
:1060C10004F0E0C394805003025F3C901271E0241D
:1060D10018F582E43400F583E0FFF470030261EE09
:1060E100901E6BEFF0E4A3F0901271E02428F5828A
:1060F100E43400F583E0FF901E6CE0FEC39F400393
:106101000261EE901E6BE075F00BA42465F582E54B
:10611100F0343FF583E493FB740193FA740293F92D
:10612100EA494B6065151815181518A81876010865
:10613100761E08766F1518A818EEF6901271E0FF1A
:1061410054071518A818F6EF131313541FFB7D03FA
:10615100901E6BE0FE75F00BA4245DF582E5F03432
:106161003FF583E493FF75F00BEEA42465F582E51A
:10617100F0343FF583740193FA740293F5828A83B4
:10618100120B3B901E6DEFF08005E4901E6DF090B8
:106191001E6DE0FFD39400404BC2AF7E00EEC0E025
:1061A100EFC0E0901E6CE0FF901276E02FFFE43329
:1061B100FEEF7805C333CE33CED8F9AB102512F9F3
:1061C100E5113EFA90000D120A88C8E9C8CCEACC64
:1061D100CDEBCD7B017A1E796FD0E0FFD0E0FE12CE
:1061E10006E2D2AF901E6CE004F00260E9901271F9
:1061F100E02428F582E43400F583E0FF901276E094
:106201002FF0901271E004F0E0B41006E4F0901267
:1062110076F0901278E0F46017E0FE131313541F28
:10622100FFEE5407FD7BFF12840490127874FFF097
:1062310012BC06C8ECC8C9EDC9CAEECACBEFCB90F7
:106241001272E0FCA3E0FDA3E0FEA3E0240AFFE458
:106251003EFEE43DFDE43CFCD31208FD501712BCA8
:1062610006901272E0F8A3E0F9A3E0FAA3E0FBD3F1
:106271001208FD406F12BC06901272120A08E4FF68
:1062810012B2A012B299EF24FF920B7F0212B2A0B8
:10629100EF24FF920C7F0312B2A0EF24FF920D3086
:1062A1000905120C0F803D12BC06E47B2C7A01F922
:1062B100F8C31208FD502D300E05C20E12BC717DBF
:1062C100017F0512BBDF7BFF7A8379CE1257157DE3
:1062D100027F0512BBDF12BB6E8F497BFF7A837988
:1062E100D912571530143112BC06E47B0AFAF9F8B9
:1062F100C31208FD5022C214E4901E6BF0900038C6
:10630100E0FE901E6BE0FFC39E500DE4FD12BA103B
:08631100901E6BE004F080E532
:016319002261
:103A0A004C45442D4465627567004C45442D5075FC
:103A1A006C7365720044696E203556004F707449A4
:103A2A006E0043504C4400446F75742035562F3253
:103A3A0034560052656C616973004F70744F757427
:103A4A000055696E20302D322E35560055696E208C
:103A5A002B2D3130560049696E20302D322E356DAE
:103A6A00410049696E20302D32356D410055696E2D
:103A7A0020302D322E3556204673740055696E203B
:103A8A002B2D31305620466173740049696E2030FF
:103A9A002D322E356D41204673740049696E2030EF
:103AAA002D32356D41204673740055696E202B2DD9
:103ABA0031305620446966660055696E202B2D31D7
:103ACA00305620466C740043696E20302D31306EBA
:103ADA00460043696E20302D31754600505431300E
:103AEA00302D38005054313030302D3800414435B3
:103AFA0039300050543130302D320050543130308A
:103B0A00302D32004345524E4F582D3200554F75D5
:103B1A007420302D322E355600554F7574202B2DBA
:103B2A0031305600494F757420302D322E356D4193
:103B3A0000494F757420302D32356D41004C697142
:103B4A002E4865206C6576656C00554F7574203279
:103B5A0030305600554F7574203330305600554F6B
:103B6A007574203130562F3235306D41002452653C
:103B7A00762400013400000050254F7574000000BF
:103B8A000100010000000000437F00003F800000A8
:103B9A000000000418000001502555696E2300003A
:103BAA0001000804000000000000000000000000FE
:103BBA000000000418000001502555696E2300001A
:103BCA0001000404000000000000000000000000E2
:103BDA000000000418000001502555696E230000FA
:103BEA0001000204000000000000000000000000C4
:103BFA000000000418000001502555696E230000DA
:103C0A00010008040000000000000000000000009D
:103C1A000000000134000008502552616E676500FB
:103C2A000100000000000000000000000000000089
:103C3A0000000004180000015025556F7574230018
:103C4A000100080200000000402000003DCCCCCD5D
:103C5A0000000004180000015025556F75742300F8
:103C6A0001000802C1200000412000003F000000BE
:103C7A000000000406FD0001502549696E2300007A
:103C8A00010008040000000000000000000000001D
:103C9A00000000041DF70001502543696E2300004F
:103CAA000100040400000000000000000000000001
:103CBA000000000408000001502554230000000001
:103CCA0001000802000000000000000000000000DF
:103CDA000000000406FD0009502545786369740058
:103CEA0001000001000000000000000000000000C8
:103CFA0000000004080000015025542300000000C1
:103D0A00010008020000000000000000000000009E
:103D1A0000000004080000015025542300000000A0
:103D2A000100020200000000000000000000000084
:103D3A000000000407000001502554230000000081
:103D4A000100020200000000000000000000000064
:103D5A000000000406FD00015025496F7574230018
:103D6A00010008020000000041A000003DCCCCCDBB
:103D7A0000000004180000015025556F75742300D7
:103D8A0001000102C1200000412000003DCCCCCD41
:103D9A000000000406FD0009502545786369740097
:103DAA00010000010000000042C800003F8000003E
:103DBA00000000045A00000950254C4F66730000A9
:103DCA0001000002000000000000000000000000E6
:103DDA00000000045D00000950254C4761696E002F
:103DEA0001000002000000000000000000000000C6
:103DFA0000000002030000085025546F66660000A8
:103E0A0001000000000000000000000000000000A7
:103E1A0000000002030000085025546F6E000000E5
:103E2A000100000000000000000000000000000087
:103E3A00000000045A00000150254C696E00000081
:103E4A000100000100000000000000000000000066
:103E5A000000000132000000502544696E23000072
:103E6A00010008010000000000000000000000003E
:103E7A000000000132000000502544696E23000052
:103E8A000100040100000000000000000000000022
:103E9A0000000001320000005025446F75742300B1
:103EAA0001000801000000003F8000003F80000080
:103EBA000000000132000000502552656C2300000A
:103ECA0001000401000000003F8000003F80000064
:103EDA00000000013200000050254F7574230000D5
:103EEA0001000401000000003F8000003F80000044
:103EFA00000000041800000150255544230000006A
:103F0A000100080300000000434800003F80000051
:103F1A00000000041800000150255523000000008D
:103F2A00010008030000000000000000000000007B
:103F3A000000000406FA0001502549230000000091
:103F4A00010008030000000000000000000000005B
:103F5A0000000001FF3A0AFF3B7D01FFB2F702FFB2
:103F6A003A140000000100000020FF3A1FFF3E5DE6
:103F7A0001FF9B9521FF3A26FF3E7D01FF9B95227B
:103F8A00FF3A2CFF3E5D01FF9B9540FF3A31FF3E11
:103F9A009D01FF8EFA41FF3A3DFF3EBD01FF8EFAB9
:103FAA0042FF3A44FF3EDD01FF8EFA60FF3A4BFFC3
:103FBA003B9D01FF631A61FF3A56FF3B9D01FF6378
:103FCA001A62FF3A60FF3C7D01FF631A63FF3A6C95
:103FDA00FF3C7D01FF631A64FF3A77FF3B9D01FFB7
:103FEA0066C565FF3A86FF3B9D01FF66C566FF3AD7
:103FFA0095FF3C7D01FF66C567FF3AA5FF3C7D0141
:10400A00FF66C568FF3AB4FF3BBD01FF631A69FF4B
:10401A003AC3FF3BDD01FF7EFC70FF3AD1FF3C9DB6
:10402A0001FF7C5071FF3ADCFF3C9D01FF7C50721E
:10403A00FF3AE6FF3CBD02FF51F673FF3AEEFF3C42
:10404A00BD02FF51F674FF3AF7FF3CFD01FF73D43E
:10405A0075FF3AFDFF3D1D01FF472476FF3B05FF33
:10406A003D1D01FF472477FF3B0EFF3D3D01FF4702
:10407A002480FF3B17FF3C3D01FF864981FF3B231C
:10408A00FF3C5D01FF4C9582FF3B2EFF3D5D01FF2A
:10409A00864983FF3B3BFF3D5D01FF864984FF3B29
:1040AA0047FF3D9D06FF16E985FF3B54FF3EFD0392
:1040BA00FF298F86FF3B5EFF3EFD03FF298F87FFA7
:1040CA003B68FF3D7D01FF864900000000000000BB
:1040DA00000000003CA3D70A3D23D70A3DA3D70A14
:1040EA003E23D70A3EA3D70A3F23D70A3FA3D70ABC
:1040FA004023D70A05040302010006070602070344
:04410A0000040501A7
:06B6180004080000000020
:108D7D00E5182412F8E6FFE5182413F8E6FD7553FF
:038D8D00017B0661
:108D9000D2B1C2B0C2B2E4901E8AF0901E8AE0FE48
:108DA000C39404504CEFC8EEC8088002C333D8FC0B
:108DB0005408D394004003D38001C392B300000051
:108DC00000000000000000000000000000000000A3
:108DD00000D2B00000000000000000000000000011
:108DE00000000000000000C2B0901E8AE004F08085
:108DF000AAE4901E8AF0901E8AE0FFC39403504CB0
:108E0000EDC8EFC8088002C333D8FC5404D39400E3
:108E10004003D38001C392B30000000000000000B3
:108E2000000000000000000000000000D2B00000C0
:108E30000000000000000000000000000000000032
:108E40000000C2B0901E8AE004F080AAE4901E8A5E
:108E5000F0901E8AE0FFC39404504CEBC8EFC808A2
:108E60008002C333D8FC5408D394004003D380015C
:108E7000C392B300000000000000000000000000EA
:108E800000000000000000D2B00000000000000060
:108E900000000000000000000000000000C2B090D0
:108EA0001E8AE004F080AAD2B20000000000000098
:108EB00000000000000000000000000000D2B00030
:108EC00000000000000000000000000000000000A2
:108ED000000000C2B0C2B2C2B3E55324FF92B0D2C8
:108EE000B2C2B1000000000000000000000000005D
:098EF00000000000000000C2B205
:018EF9002256
:10BB9F00E5182409F8E6FFE518240AF8E6FD7B0608
:06BBAF00E4F553028D9045
:05ACED00F8E6FD7BFF0D
:03ACF200CCEBCCDC
:10ACF5007B0312BBAFE4901E84F0EC5480D3940028
:10AD05004003D38001C392B300000000000000009F
:10AD1500000000000000000000000000D2B00000AC
:10AD2500000000000000000000000000000000001E
:10AD35000000C2B0EC25E0FC901E84E004F0E0B415
:10AD450008B8C2B3D2B20000000000000000000045
:10AD550000000000000000000000D2B0000000006C
:10AD650000000000000000000000000000000000DE
:04AD7500C2B0C2B2F4
:01AD790022B7
:10A5B800E5182405F8EFF6E5182412F8E6FFE51883
:0CA5C8002413F8E6FDE5182405F8E6FB76
:03A5D400CCEBCC01
:10A5D7007B0212BBAFE4901E84F0EC5480D394004E
:10A5E7004003D38001C392B30000000000000000C5
:10A5F700000000000000000000000000D2B00000D2
:10A607000000000000000000000000000000000043
:10A617000000C2B0EC25E0FC901E84E004F0E0B43A
:10A6270008B8C2B3D2B2000000000000000000006A
:10A6370000000000000000000000D2B00000000091
:10A647000000000000000000000000000000000003
:04A65700C2B0C2B219
:01A65B0022DC
:0CA7A300F8E6FD7B00E5182408F97A00B8
:06A7AF008B468A47894831
:10A7B500E4FB12BBAFD2B2000000000000000000B5
:10A7C5000000000000000000000000D2B000000002
:10A7D5000000000000000000000000000000000074
:10A7E50000C2B0C2B2E4901E84F000000000000078
:10A7F5000000000000000000000000000000D2B0D2
:10A805000000000000000000000000000000000043
:10A8150000000000C2B0901E85E025E0FFA2B4E470
:10A82500334FF0901E84E004F0E0B408BD901E851F
:0AA83500E0AB46AA47A94802074E0F
:06AC5D008B468A4789487E
:10AC63007B0112BBAFD2B200000000000000000065
:10AC73000000000000000000000000D2B00000004F
:10AC830000000000000000000000000000000000C1
:10AC930000C2B0C2B2E4901E84F0000000000000C5
:10ACA3000000000000000000000000000000D2B01F
:10ACB3000000000000000000000000000000000091
:10ACC30000000000C2B0901E85E025E0FFA2B4E4BE
:10ACD300334FF0901E84E004F0E0B408BD901E856D
:0AACE300E0AB46AA47A94802074E5D
:03AE9100CCEDCC39
:10AE94007B05E4FD12BBAFE4901E74F0EC5480D348
:10AEA40094004003D38001C392B30000000000006B
:10AEB4000000000000000000000000000000D2B00C
:10AEC400000000000000000000000000000000007E
:10AED40000000000C2B0EC25E0FC901E74E004F019
:10AEE400E0B408B8C2B3D2B2000000000000000011
:10AEF400000000000000000000000000D2B00000CC
:10AF0400000000000000000000000000000000003D
:06AF14000000C2B0C2B251
:01AF1A002214
:06AAA8008B488A49894A2F
:10AAAE007B04E4FD12BBAFD2B20000000000000038
:10AABE0000000000000000000000000000D2B00006
:10AACE000000000000000000000000000000000078
:10AADE00000000C2B0C2B2E4901E88F00000000078
:10AAEE000000000000000000000000000000000058
:10AAFE00D2B00000000000000000000000000000C6
:10AB0E00000000000000C2B0901E89E025E0FFA208
:10AB1E00B4E4334FF0901E88E004F0E0B408BD902A
:0CAB2E001E89E0AB48AA49A94A02074E64
:10BB55007B017A1E798412948A901E84E0D3940026
:08BB650040047F0180027F0013
:01BB6D0022B5
:06948A008B468A47894869
:109490007B0712BBAFD2B300000000000000000049
:1094A0000000000000000000000000D2B00000003A
:1094B00000000000000000000000000000000000AC
:1094C00000C2B0D2B30000000000000000000000A5
:1094D000000000000000000000D2B000000000000A
:1094E000000000000000000000000000000000C2BA
:1094F000B0C2B30000000000000000000000000047
:1095000000000000000000D2B000000000000000D9
:1095100000000000000000000000000000C2B0E4F5
:10952000901E85F0C2B300000000000000000000A3
:1095300000000000000000000000D2B000000000A9
:10954000000000000000000000000000000000001B
:10955000C2B0901E85E004F0E0B406C830B409AB98
:1095600046AA47A948E4805FE4901E85F000000009
:1095700000000000000000000000000000000000EB
:1095800000D2B00000000000000000000000000059
:1095900000000000000000C2B0901E87E025E0FF40
:1095A000901E86E033FEA2B4E433FDEF4DFFEEF0F3
:1095B000A3EFF0901E85E004F0E0B410B0901E869A
:0A95C000E0AB46AA47A94812074E87
:0195CA00227E
:10B82D00901E95EFF0A3EDF0A3EBF012BB55EF706A
:10B83D0002FF22901E95E0FFA3E0FD7B017A1E79A9
:10B84D009412948A901E97E0FF901E94E06F7004FE
:06B85D007F0180027F0064
:01B8630022C2
:03840400CCEBCCF2
:108407007B0712BBAFD2B3000000000000000000E2
:108417000000000000000000000000D2B0000000D3
:108427000000000000000000000000000000000045
:1084370000C2B0C2B300000000000000000000004E
:10844700000000000000000000D2B00000000000A3
:10845700000000000000000000000000000000C253
:10846700B0C2B300000000000000000000000000E0
:1084770000000000000000D2B00000000000000073
:1084870000000000000000000000000000C2B0E48F
:10849700901E84F0D2B3000000000000000000002E
:1084A70000000000000000000000D2B00000000043
:1084B70000000000000000000000000000000000B5
:1084C700C2B0901E84E004F0E0B406C8D2B2000047
:1084D7000000000000000000000000000000000095
:1084E7000000C2B2D2B3000000000000000000008C
:1084F70000000000000000000000D2B000000000F3
:108507000000000000000000000000000000000064
:10851700C2B0C2B30000000000000000000000006D
:108527000000000000000000D2B0000000000000C2
:108537000000000000000000000000000000C2B0C2
:10854700D2B300000000000000000000000000009F
:10855700000000000000D2B0000000000000000092
:10856700000000000000000000000000C2B0E4901E
:108577001E84F0C2B30000000000000000000000ED
:10858700000000000000000000D2B0000000000062
:10859700000000000000000000000000000000C212
:1085A700B0901E84E004F0E0B406C8E4901E84F0A6
:1085B700EC5480D394004003D38001C392B30000EE
:1085C70000000000000000000000000000000000A4
:1085D7000000D2B000000000000000000000000012
:1085E7000000000000000000C2B0EC25E0FC901E77
:1085F70084E004F0E0B410B8D2B20000000000003C
:108607000000000000000000000000000000C2B2EF
:0A861700E4901E85F0A3F020B427C4
:0D86210075460175470300D547FCD546F6A8
:10862E00901E86E004F07006901E85E004F0901E09
:0A863E0085E0B427DBA3E0B410D6FA
:01864800220F
:108EFA001518A818EBF61518A818EDF61518A818DD
:048F0A00EFF6151851
:108F0E00A8180808E664016003028F9CE518240483
:108F1E00F8E6FEE5182403F8E6FF75F008A42EF532
:108F2E0082E435F0F583E5822479F582E583341207
:108F3E00F583E4F0F584E5EF20E119E5182404F853
:108F4E00E6FDEF75F008A42D2479F9E43412FA7BCE
:108F5E000112AC5DE5182403F8E6FFE5182404F8C9
:108F6E00E6FD75F008EFA42DF582E435F0F583E506
:108F7E00822479F582E5833412F583E0FB12A5D4C1
:108F8E00E5182403F8E6FFE518240412ACEDA81842
:108F9E000808E664026003029065E5182406F8CB23
:108FAE00E6CB08E6FA08E6F9120708A818F6603EBE
:108FBE00E5182404F8E6FFE5182403F8E675F00832
:108FCE00A42FF582E435F0F583E5822479F582E568
:108FDE00833412F583E0FFE5182405F8E6FE7401EC
:108FEE00C8EEC8088002C333D8FC4FF0803DE518A8
:108FFE002404F8E6FFE5182403F8E675F008A42F1C
:10900E00F582E435F0F583E5822479F582E5833443
:10901E0012F583E0FFE5182405F8E6FE7401C8EEAC
:10902E00C8088002C333D8FCF45FF0E5182403F8B7
:10903E00E6FFE5182404F8E6FD75F008EFA42DF51B
:10904E0082E435F0F583E5822479F582E5833412E6
:09905E00F583E0FB12A5D47F00AC
:07906700E5182409F51822A9
:109B95001518A818EBF61518A818EDF61518A81835
:049BA500EFF61518AA
:109BA900A8180808E664036003029C9CE5182406CB
:109BB900F8CBE6CB08E6FA08E6F9120708603EE5B5
:109BC900182404F8E6FFE5182403F8E675F008A45C
:109BD9002FF582E435F0F583E5822479F582E58372
:109BE9003412F583E0FFE5182405F8E6FE7401C890
:109BF900EEC8088002C333D8FC4FF0803DE5182435
:109C090004F8E6FFE5182403F8E675F008A42FF533
:109C190082E435F0F583E5822479F582E58334120F
:109C2900F583E0FFE5182405F8E6FE7401C8EEC8DF
:109C3900088002C333D8FCF45FF0E5182403F8E682
:109C4900FFE5182404F8E6FD7B00A9187A0012A79D
:109C5900AFE5182405F974017E00C8E7C808800536
:109C6900C333CE33CED8F9FFA818E6FDEF5DD39400
:109C7900007480948040047F0180027F00E51824ED
:109C890006F8CBE6CB08E6FA08E6F9EF12074E7FAD
:059C99000180027F00C4
:079C9E00E5182409F5182266
:10B2F7001518A818EBF61518A818EDF61518A818BC
:10B30700EFF6A81808E6B4010DA8180808E6FFE547
:10B3170018240312ACEDA81808E6B40222A81808EE
:10B3270008E6FFE5182403F8E6FDE5182405F8CB41
:10B33700E6CB08E6FA08E6F9120708FB12A5D47F60
:08B3470000E5182408F51822A6
:108649001518A818EBF61518A818EDF61518A81896
:08865900EFF6E51824F9F5180D
:108661002408F8E664026003028850E518240CF837
:10867100CBE6CB08E6FA08E6F9120921A818120997
:10868100FCE5182407F8E6B40209E4FBFA79C87896
:10869100428022E5182407F8E6B48209E4FBFA795E
:1086A1002078408010E5182407F8E6B4832FE4FB16
:1086B100FA79C87841E8C0E0A81812098BD0E0F82F
:1086C1001202A77B007AFF797F784712019E12037D
:1086D100EFE5182404F8EEF608EFF68046E51824D5
:1086E10007F8E6B4873DE4FBFA79A07841E8C0E0F9
:1086F100A81812098BD0E0F81202A7E4FBFAF97866
:108701003F1200AD7B007AFF797F784712019E12FC
:1087110003EFE5182404F8EEF608EFF6E518240B4C
:10872100F8760112BB9FE5182406F8E4F6E5182453
:1087310006F8E6FFC39404503FEF94014003D38051
:1087410001C392B30000000000000000000000001F
:108751000000000000000000D2B000000000000096
:108761000000000000000000000000000000C2B096
:10877100E5182406F80680B5E5182406F8E4F6E5C0
:10878100182406F8E6C394045051E518240BF8E6C2
:10879100FF5408D394004003D38001C392B3000077
:1087A10000000000000000000000000000000000C8
:1087B1000000D2B000000000000000000000000036
:1087C1000000000000000000C2B0E518240BF8EF23
:1087D10025E0F6E5182406F80680A4E5182406F835
:1087E100E4F6E5182406F8E6C394105060E5182471
:1087F10004F8E6FE08E6FFEE5480FCD3E49400ECB6
:1088010094004003D38001C392B300000000000034
:108811000000000000000000000000000000D2B0D5
:108821000000000000000000000000000000000047
:1088310000000000C2B0E5182404F8EF25E0FFEEC7
:1088410033F608EFF6E5182406F8068095D2B17FD5
:018851000026
:07885200E518240FF51822C0
:104C95001518A818EBF61518A818EDF61518A81884
:084CA500EFF6E51824F9F518FB
:104CAD00E5182408F8E6640260030251EDE51824C6
:104CBD000CF8CBE6CB08E6FA08E6F9120921A8189C
:104CCD001209FCE4FFFE7D207C41A8181209A312F5
:104CDD000344600B4009A818120A1441200000E497
:104CED00FFFE7D207CC1A8181209A31203445009B0
:104CFD00A818120A14C1200000E4FFFE7D207C419B
:104D0D00A8181209A31200ADE4FBFA79A07841129C
:104D1D0002A77B007AFF797F784712019EE4FBFAA8
:104D2D00F9783F1200AD1203EFE5182404F8EEF602
:104D3D0008EFF612BB9FC2B3000000000000000098
:104D4D00000000000000000000000000D2B00000D4
:104D5D000000000000000000000000000000000046
:104D6D000000C2B0C2B3000000000000000000004F
:104D7D0000000000000000000000D2B000000000A4
:104D8D000000000000000000000000000000000016
:104D9D00C2B0E518240BF8E6FFC394045049E5189A
:104DAD002406F8E4F6E5182406F8E6C39416400345
:104DBD00024F9700000000000000000000000000FE
:104DCD0000000000000000D2B00000000000000054
:104DDD0000000000000000000000000000C2B0E56F
:104DED00182406F80680BEC2B300000000000000C3
:104DFD0000000000000000000000000000D2B00024
:104E0D000000000000000000000000000000000095
:104E1D00000000C2B0D2B30000000000000000008E
:104E2D000000000000000000000000D2B0000000F3
:104E3D000000000000000000000000000000000065
:104E4D0000C2B0C2B300000000000000000000006E
:104E5D00000000000000000000D2B00000000000C3
:104E6D00000000000000000000000000000000C273
:104E7D00B0C2B30000000000000000000000000000
:104E8D0000000000000000D2B00000000000000093
:104E9D0000000000000000000000000000C2B0EFA4
:104EAD005402D394004003D38001C392B300000099
:104EBD0000000000000000000000000000000000E5
:104ECD0000D2B00000000000000000000000000053
:104EDD0000000000000000C2B0E518240BF8E654F5
:104EED0001D394004003D38001C392B300000000AE
:104EFD0000000000000000000000000000000000A5
:104F0D00D2B0000000000000000000000000000012
:104F1D00000000000000C2B0E5182406F8E4F6E534
:104F2D00182406F8E6C394105060E5182404F8E63A
:104F3D00FE08E6FFEE5480FCD3E49400EC940040B0
:104F4D0003D38001C392B3000000000000000000F5
:104F5D000000000000000000000000D2B0000000C2
:104F6D000000000000000000000000000000000034
:104F7D0000C2B0E5182404F8EF25E0FFEE33F60883
:104F8D00EFF6E5182406F8068095C2B30000000080
:104F9D000000000000000000000000000000000004
:104FAD00D2B0000000000000000000000000000072
:104FBD00000000000000C2B0C2B3000000000000FD
:104FCD000000000000000000000000000000D2B052
:104FDD0000000000000000000000000000000000C4
:104FED0000000000C2B0E518240BF8E6FFD39403CF
:104FFD004049E5182406F8E4F6E5182406F8E6C35A
:10500D00941640030251EB00000000000000000068
:10501D000000000000000000000000D2B000000001
:10502D000000000000000000000000000000000073
:10503D0000C2B0E5182406F80680BEC2B300000019
:10504D000000000000000000000000000000000053
:10505D0000D2B000000000000000000000000000C1
:10506D0000000000000000C2B0D2B300000000003C
:10507D00000000000000000000000000000000D251
:10508D00B000000000000000000000000000000063
:10509D000000000000C2B0C2B3000000000000001C
:1050AD0000000000000000000000000000D2B00071
:1050BD0000000000000000000000000000000000E3
:1050CD00000000C2B0C2B3000000000000000000EC
:1050DD000000000000000000000000D2B000000041
:1050ED0000000000000000000000000000000000B3
:1050FD0000C2B0EF5402D394004003D38001C39299
:10510D00B3000000000000000000000000000000DF
:10511D000000000000D2B000000000000000000000
:10512D000000000000000000000000C2B0E51824DF
:10513D000BF8E65401D394004003D38001C392B31E
:10514D000000000000000000000000000000000052
:10515D0000000000D2B000000000000000000000C0
:10516D0000000000000000000000C2B0E518240699
:10517D00F8E4F6E5182406F8E6C394105060E51837
:10518D002404F8E6FE08E6FFEE5480FCD3E4940018
:10519D00EC94004003D38001C392B30000000000E3
:1051AD00000000000000000000000000000000D220
:1051BD00B000000000000000000000000000000032
:1051CD000000000000C2B0E5182404F8EF25E0FF50
:1051DD00EE33F608EFF6E5182406F8068095D2B101
:0251ED007F0041
:0751EF00E518240FF518225A
:0B91D4007D527F031291DF7D037F01BD
:1091DF001518A818EDF61518A818EFF61518151884
:1091EF00C2B3C2B100000000000000000000000088
:1091FF000000000000000000A818E4F6A818E6C35D
:10920F0094045031C2B0C2B300000000000000004F
:10921F00000000000000000000000000D2B00000BD
:10922F00000000000000000000000000000000002F
:10923F0000000680C7A818E4F6A818087608A81832
:10924F00E6C39404504AC2B008E6FFA818080856AF
:10925F0094004003D38001C392B3000000000000CC
:10926F000000000000000000000000000000D2B06D
:10927F0000000000000000000000000000000000DF
:10928F0000000000A81808EFC313F6A8180680AE58
:10929F00D2B200000000000000000000000000003B
:1092AF00000000000000C2B2A818E4F6A818087663
:1092BF0080A818E6C39408504DC2B008E6FFE51821
:1092CF002403F8E65FD394004003D38001C392B325
:1092DF00000000000000000000000000000000007F
:1092EF0000000000D2B000000000000000000000ED
:1092FF0000000000000000000000A81808EFC313D2
:10930F00F6A8180680ABD2B1C2B30000000000006F
:0E931F00000000000000000000000000000040
:07932D00E5182404F51822E5
:0AA83F001518A818EFF615181518E3
:10A84900C2B3C2B100000000000000000000000017
:10A859000000000000000000A818E4F6A818087617
:10A8690080A818E6C39408504AC2B008E6FFA818A1
:10A8790008085694004003D38001C392B300000036
:10A8890000000000000000000000000000000000BF
:10A8990000D2B0000000000000000000000000002D
:10A8A90000000000000000A81808EFC313F6A8185C
:10A8B9000680AED2B1C2B300000000000000000063
:0BA8C900000000000000000000000084
:07A8D4000518051805182204
:0B8A48007B00E5182409F97A007F0488
:108A5300151815181518A818C6EBC608C6EAC608CF
:0D8A6300C6E9C61518A818EFF61518151865
:108A7000C2B1000000000000000000000000000083
:108A8000000000000000A818E4F6A818E6FFC39450
:108A900004503BC2B0EFB40103D38001C392B300D2
:108AA00000000000000000000000000000000000C6
:108AB000000000D2B0000000000000000000000034
:108AC000000000000000000000A8180680BCA818E4
:108AD000E4F6A818087608A818E6C39404504AC219
:108AE000B008E6FFA81808085694004003D3800198
:108AF000C392B3000000000000000000000000006E
:108B000000000000000000D2B000000000000000E3
:108B100000000000000000000000000000A818088D
:108B2000EFC313F6A8180680AED2B2000000000012
:108B3000000000000000000000000000000000C273
:108B4000B2A818E4F6E5182403F8CBE6CB08E6FA59
:108B500008E6F9120A5E00000000A818E6C394189F
:108B60005070C2B0000000000000000000000000D3
:108B70000000000000000000E5182403F8CBE6CB5D
:108B800008E6FA08E6F9120921780112090EC8EC84
:108B9000C8C9EDC9CAEECACBEFCBA2B4E4334BFFD0
:108BA000EAFEE9FDE8FCE5182403F8CBE6CB08E68D
:108BB000FA08E6F9120971D2B000000000000000C6
:108BC00000000000000000000000000000A81806DF
:108BD0008088D2B10000000000000000000000000A
:088BE00000000000000000008D
:078BE800E5182406F5182230
:10A50A00E518240BF8E6FFE518240CF8E6FD7B07AE
:10A51A008F468D47CAEBCA7B8012ACF2E4FBAD478B
:10A52A00AF4612A5D47B80AD47AF4612A5D475536A
:0DA53A00017B06AD47AF46128D901291D403
:0DA5470075486475490300D549FCD548F6F8
:10A55400EA5407FF75F008E546A42547F582E4357B
:10A56400F0F583E58224D9F582E5833415F583EF8C
:10A57400F0CFEACFCDEFCD7F021291DF75F008E581
:10A5840046A42547F582E435F0F583E5822409F5F0
:10A5940082E5833419F583E4F012BC06E54675F0D0
:10A5A40008A4254725E025E02451F582E43416F576
:04A5B40083020A080C
:10631A001518A818EBF61518A818EDF61518A818E8
:08632A00EFF6E51824F7F51861
:10633200240AF8E6B4010312A50AE518240AF8E6CD
:10634200FF64027042E518240DF8E6B40839E51836
:10635200240EF8CBE6CB08E6FA08E6F9120708FEA7
:10636200E518240CF8E6FDE518240BF8E675F008AC
:10637200A42DF582E435F0F583E58224D9F582E592
:10638200833415F583EEF0EF640360030266BCE527
:1063920018240DF8E6D3940740057F000266BEE597
:1063A20018240BF8E6FFE518240C12A7A3E518241D
:1063B20008F8E65401D39400405F12BC06ECC0E03A
:1063C200EDC0E0EEC0E0EFC0E0E518240BF8E675A2
:1063D200F008A4FFE518240CF8EF2625E025E024B8
:1063E20051F582E43416F583E0FCA3E0FDA3E0FE60
:1063F200A3E0242CFBEE3401FAE43DF9E43CF8D0AE
:10640200E0FFD0E0FED0E0FDD0E0FCC31208FD507A
:106412000312A50A7F000266BEE518240CF8E6FF07
:10642200E518240BF8E675F008A42FF582E435F0A0
:10643200F583E5822409F582E5833419F583E0FFCB
:10644200E518240DF8E66F60057F000266BE12BCF7
:1064520006EFC0E0E518240BF8E6F975F008A4FF92
:10646200E518240CF8E6FB2F25E025E02451F582FF
:10647200E43416F583D0E0FF120A08CFE9CFCDEB62
:10648200CD128D8B7B00E5182404128A4EE5182468
:1064920009F8E66468702CE518240CF8E6FFE518A4
:1064A200240BF8E6FE75F008A42FF582E435F0F52A
:1064B20083E5822409F582E5833419F583E00454E7
:1064C20003802AE518240CF8E6FFE518240BF8E609
:1064D200FE75F008A42FF582E435F0F583E58224F9
:1064E20009F582E5833419F583E0045407FD75F05C
:1064F20008EEA42FF582E435F0F583E5822409F550
:1065020082E5833419F583EDF0E518240CF8E6FFF3
:10651200E518240BF8E6FE75F008A42FF582E435A1
:10652200F0F583E5822409F582E5833419F583E0E9
:10653200C454F04408FD75F008EEA42FF582E4354A
:10654200F0F583E58224D9F582E5833415F583E0FD
:106552004DFD7F021291DFE5182404F812098BE445
:106562001203B1E4FBFA7980784B1202A7E51824F2
:106572000CF8E6FBE518240BF8E675F008A42BF5F9
:1065820082E435F0F583E58224D9F582E58334157A
:10659200F583E025E025E024DEF582E43440F5834E
:1065A2001209BC12019EA8181209FCE5182409F868
:1065B200E6B460028014E5182409F8E6B4610280AA
:1065C20043E5182409F8E6B46211A818E8C0E012FD
:1065D200098BE4FBFA7980783F8018E5182409F8E2
:1065E200E6B46317A818E8C0E012098BE4FBFA7955
:1065F20020784112019ED0E0F88034E5182409F891
:10660200E6B4682EE4FBFA79207840E8C0E0A818E6
:1066120012098BD0E0F81202A7E4FBFA79A07841C4
:1066220012019EE4FBFA792078C11200ADA818127B
:1066320009FCE5182409F8E6FF64616009EF646368
:106642006004EFB4682A7F007E507DC37C47A8189F
:106652001209A312019EE4FBFAF9783F1200AD126F
:1066620003EFEC1203B17B007A5079C3784780289C
:106672007F007E247D747C49A8181209A312019E12
:10668200E4FBFAF9783F1200AD1203EFEC1203B10A
:106692007B007A24797478491202A7A8181209FC9F
:1066A200A81812098BE518240EF8CBE6CB08E6FAF7
:0C66B20008E6F91209717F0480027F00E5
:0766BE00E5182411F5182274
:1051F6001518A818EBF61518A818EDF61518A8181E
:08520600EFF6E51824F3F5189A
:10520E00240EF8E6B4012DE518240FF8E6FFE51894
:10521E002410F8E6FD7B0F12A51AE5182410F8E607
:10522E0025E025E024F1F582E43415F583120A2DEC
:10523E003F800000E518240EF8E664026003025376
:10524E0005E5182411F8E664086003025305E51815
:10525E002412F8CBE6CB08E6FA08E6F9120921E5A6
:10526E00182410F8E6FB25E025E024F1F582E4345D
:10527E0015F583120A08EB25E025E024F1F582E40A
:10528E003415F583E0FCA3E0FDA3E0FEA3E0FF7B75
:10529E000A7AD77923783C1203446002502AE51823
:1052AE002410F8E625E025E024F1F582E43415F526
:1052BE0083E0FCA3E0FDA3E0FEA3E0FFE4FBFA79AC
:1052CE00207841120344502FE5182410F8E625E00B
:1052DE0025E024F1F582E43415F583120A2D3F8082
:1052EE000000E5182412F8CBE6CB08E6FA08E6F93A
:1052FE00120A5E3F800000E518240EF8E664036093
:10530E00030256AAE5182411F8E6D3940740057F48
:10531E00000256ACE518240FF8E6FFE5182410122B
:10532E00A7A3E5182408F8E65401D39400406F12A1
:10533E00BC06ECC0E0EDC0E0EEC0E0EFC0E0E5186A
:10534E00240FF8E675F008A4FFE5182410F8EF26F0
:10535E0025E025E02451F582E43416F583E0FCA324
:10536E00E0FDA3E0FEA3E0242CFBEE3401FAE43DC5
:10537E00F9E43CF8D0E0FFD0E0FED0E0FDD0E0FC58
:10538E00C31208FD5013E518240FF8E6FFE51824A4
:10539E0010F8E6FD7B0F12A51A7F000256ACE51839
:1053AE002410F8E6FDE518240FF8E6FE75F008A4C3
:1053BE002DF582E435F0F583E5822409F582E58347
:1053CE003419F583E0FFE5182411F8E66F60057FC8
:1053DE00000256ACCFEECF128D8B128A48E5182400
:1053EE0010F8E6FFE518240FF8E6FE75F008A42F76
:1053FE00F582E435F0F583E5822409F582E5833400
:10540E0019F583E0045407FD75F008EEA42FF5821C
:10541E00E435F0F583E5822409F582E5833419F548
:10542E0083EDF0E5182410F8E6FFE518240FF8E6F2
:10543E0075F008A42FF582E435F0F583E582240992
:10544E00F582E5833419F583E0C454F0440FFD7FF3
:10545E00021291DFE5182409F812098BE41203B148
:10546E00E4FBFA7980784B1202A77B0A7AD779236C
:10547E00784012019EA8181209FCA81812098BE593
:10548E00182404F81209FCE5182411F8E6D3940048
:10549E00403BA818E8C0E012098BE518240FF8E687
:1054AE0075F008A4FBE5182410F8EB2625E025E09E
:1054BE0024B1F582E43416F583E0F8A3E0F9A3E015
:1054CE00FAA3E0FB1200A9D0E0F81209FCE51824BB
:1054DE0004F812098BE518240FF8E675F008A4FB02
:1054EE00E5182410F8EB2625E025E024B1F582E43A
:1054FE003416F583120A08A818E8C0E012098BECDE
:10550E00C0E0EDC0E0EEC0E0EFC0E0E5182410F81A
:10551E00E625E025E024F1F582E43415F583E0FC80
:10552E00A3E0FDA3E0FEA3E0FF7B6F7A1279837800
:10553E003A12019EC8ECC8C9EDC9CAEECACBEFCB70
:10554E00D0E0FFD0E0FED0E0FDD0E0FC1202A7D00C
:10555E00E0F81209FCE518240DF8E6B47318A81843
:10556E00E8C0E012098BE4FBFA792078411202A719
:10557E00D0E0F81209FC7F757E787D0C7C35A8187A
:10558E001209A312019EA8181209A312019EA818AF
:10559E001209A312019EECC0E0EDC0E0EEC0E0EFF8
:1055AE00C0E07FFA7EED7D6B7C3AA8181209A3123B
:1055BE00019EA8181209A312019ED0E0FBD0E0FABA
:1055CE00D0E0F9D0E0F81200ADECC0E0EDC0E0EEB6
:1055DE00C0E0EFC0E07F177ED97D167C40A8181280
:1055EE0009A312019ED0E0FBD0E0FAD0E0F9D0E0A2
:1055FE00F81200AD7BD37A4D79E278411200ADA856
:10560E00181209FCA818E8C0E012098B7B337A93B4
:10561E00798878431200A9D0E0F81209FCE4FFFE65
:10562E007D207C41A8181209A312019EE4FBFAF911
:10563E00783F1200AD1203EFEC1203B1E4FBFA79DE
:10564E002078411202A7A8181209FC7F007EC07DA7
:10565E00797C44A8181209A3120344600B4009A8D0
:10566E0018120A144479F99AE4FFFE7D487CC3A807
:10567E00181209A31203445009A818120A14C47967
:10568E00F99AA81812098BE5182412F8CBE6CB0864
:0E569E00E6FA08E6F91209717F0480027F0126
:0756AC00E5182415F5182292
:104724001518A818EBF61518A818EDF61518A818FA
:08473400EFF6E51824F6F51874
:10473C00240BF8E664017055E518240AF8E6B47702
:10474C0012E518240CF8E6FFE518240DF8E6FD7BBD
:10475C00888010E518240CF8E6FFE518240DF8E61F
:10476C00FD7B8C12A51AE518240DF8E6FFE518243C
:10477C000CF8E675F008A42FF582E435F0F583E526
:10478C00822409F582E5833419F583E4F0E51824D5
:10479C000BF8E664036003024C8CE518240EF8E673
:1047AC00D3940240057F00024C8EE518240CF8E6E9
:1047BC00FFE518240DF8E6FD7B00E5182404F97AD2
:1047CC000012A7AFE5182404F8E65401D394005066
:1047DC000302486A12BC06ECC0E0EDC0E0EEC0E09B
:1047EC00EFC0E0E518240CF8E675F008A4FFE51816
:1047FC00240DF8EF2625E025E02451F582E434164B
:10480C00F583E0FCA3E0FDA3E0FEA3E0242CFBEE8B
:10481C003401FAE43DF9E43CF8D0E0FFD0E0FED0FE
:10482C00E0FDD0E0FCC31208FD502EE518240AF878
:10483C00E6B47712E518240CF8E6FFE518240DF819
:10484C00E6FD7B888010E518240CF8E6FFE51824BB
:10485C000DF8E6FD7B8C12A51A7F00024C8EE51834
:10486C00240DF8E6FDE518240CF8E6FE75F008A416
:10487C002DF582E435F0F583E5822409F582E58394
:10488C003419F583E0FFE5182405F8EFF65401FF21
:10489C00E518240EF8EF6660057F00024C8ECFEE13
:1048AC00CF128D8B7B00E5182406128A4EE5182456
:1048BC000AF8E66477600302495BE518240DF8E614
:1048CC00FFE518240CF8E6FE75F008A42FF582E439
:1048DC0035F0F583E5822409F582E5833419F583F7
:1048EC00E0045401FD75F008EEA42FF582E435F0D8
:1048FC00F583E5822409F582E5833419F583EDF01F
:10490C00E518240DF8E6FF75F008EEA42FF582E407
:10491C0035F0F583E5822409F582E5833419F583B6
:10492C00E070047D8880027D987F021291DFE5188B
:10493C002406F812098BE41203B1E4FBFA798078AF
:10494C004B1202A77B0A7AD779A3783C0249EBE594
:10495C0018240DF8E6FFE518240CF8E6FE75F008AF
:10496C00A42FF582E435F0F583E5822409F582E580
:10497C00833419F583E0045401FD75F008EEA42F7F
:10498C00F582E435F0F583E5822409F582E583347C
:10499C0019F583EDF0E518240DF8E6FF75F008EE37
:1049AC00A42FF582E435F0F583E5822409F582E540
:1049BC00833419F583E0C454F0448CFD7F021291CA
:1049CC00DFE5182406F812098BE41203B1E4FBFAB4
:1049DC007980784B1202A77B0A7AD779A3783E129A
:1049EC00019EA8181209FCE518240AF8E6FF647564
:1049FC006008EF64766003024AE7A818E8C0E0128A
:104A0C00098B7B6F7A127983783A1202A7D0E0F87F
:104A1C001209FCE518240AF8E6B47618A818E8C0C0
:104A2C00E012098BE4FBFA792078411202A7D0E05E
:104A3C00F81209FC7F757E787D0C7C35A81812095C
:104A4C00A312019EA8181209A312019EA8181209FC
:104A5C00A312019EECC0E0EDC0E0EEC0E0EFC0E0C0
:104A6C007FFA7EED7D6B7C3AA8181209A312019E89
:104A7C00A8181209A312019ED0E0FBD0E0FAD0E0F6
:104A8C00F9D0E0F81200ADECC0E0EDC0E0EEC0E013
:104A9C00EFC0E07F177ED97D167C40A8181209A3C1
:104AAC0012019ED0E0FBD0E0FAD0E0F9D0E0F81291
:104ABC0000AD7BD37A4D79E278411200ADA8181283
:104ACC0009FCA818E8C0E012098B7B337A9379882B
:104ADC0078431200A9D0E0F8024C0AE518240AF831
:104AEC00E664776003024C0DA818E8C0E012098B4D
:104AFC007B007A247974784912019ED0E0F812096F
:104B0C00FC7F5D7E0B7D237C2CA8181209A312015F
:104B1C009EA8181209A312019EA8181209A312012B
:104B2C009EA8181209A312019EECC0E0EDC0E0EEA5
:104B3C00C0E0EFC0E07F177EEE7D8B7C32A81812B0
:104B4C0009A312019EA8181209A312019EA81812FB
:104B5C0009A312019EC8ECC8C9EDC9CAEECACBEFB5
:104B6C00CBD0E0FFD0E0FED0E0FDD0E0FC1200A9FD
:104B7C00ECC0E0EDC0E0EEC0E0EFC0E07F4B7E5F4C
:104B8C007D047C38A8181209A312019EA8181209DA
:104B9C00A312019ED0E0FBD0E0FAD0E0F9D0E0F80F
:104BAC001200ADECC0E0EDC0E0EEC0E0EFC0E07F85
:104BBC004B7E767D6C7C3DA8181209A312019ED009
:104BCC00E0FBD0E0FAD0E0F9D0E0F81200AD7B1FAA
:104BDC007A85796B78BE1200ADA8181209FCE4FF37
:104BEC00FEFDFCA8181209A31203446014A81812A5
:104BFC0009A3E4FFFE7D7A7C441202A7A8181209CF
:104C0C00FCE4FFFE7DC87C42A8181209A312019E89
:104C1C00E4FBFAF9783F1200AD1203EFEC1203B18A
:104C2C00E4FBFA79C878421202A7A8181209FC7F93
:104C3C005C7EFF7D797C44A8181209A312034460A2
:104C4C000B4009A818120A144479FF5CE4FFFE7D9E
:104C5C00207CC1A8181209A31203445009A81812E9
:104C6C000A14C11FD70AA81812098BE518240FF8CB
:104C7C00CBE6CB08E6FA08E6F91209717F0480024C
:024C8C007F01A6
:074C8E00E5182412F51822BD
:1073D4001518A818EBF61518A818EDF61518A8181E
:0873E400EFF6E51824F7F51897
:1073EC00E518240AF8E66401704FE518240BF8E65A
:1073FC00FFE518240CF8E6FD7B0512A51AE5182408
:10740C000CF8E6FFE518240BF8E675F008A42FF548
:10741C0082E435F0F583E5822409F582E58334199D
:10742C00F583E4F0EF25E025E024F1F582E4341552
:10743C00F583120A2D3F800000E518240AF8E66453
:10744C000360030276B9E518240DF8E6D3940740DF
:10745C00057F000276BBE518240BF8E6FFE518243F
:10746C000CF8E6FD7B00E5182404F97A0012A7AFAE
:10747C00E5182404F8E65401D39400406F12BC06BE
:10748C00ECC0E0EDC0E0EEC0E0EFC0E0E518240B8E
:10749C00F8E675F008A4FFE518240CF8EF2625E0B3
:1074AC0025E02451F582E43416F583E0FCA3E0FDDD
:1074BC00A3E0FEA3E0242CFBEE3401FAE43DF9E456
:1074CC003CF8D0E0FFD0E0FED0E0FDD0E0FCC312F1
:1074DC0008FD5013E518240BF8E6FFE518240CF80A
:1074EC00E6FD7B0512A51A7F000276BBE518240C7D
:1074FC00F8E6FDE518240BF8E6FE75F008A42DF56A
:10750C0082E435F0F583E5822409F582E5833419AC
:10751C00F583E0FFE518240DF8E66F60057F0002A7
:10752C0076BBCFEECF128D8B7B00E5182405128A2B
:10753C004EE518240CF8E6FFE518240BF8E6FE756A
:10754C00F008A42FF582E435F0F583E5822409F5E3
:10755C0082E5833419F583E0045407FD75F008EED9
:10756C00A42FF582E435F0F583E5822409F582E554
:10757C00833419F583EDF0E518240CF8E6FFE518D3
:10758C00240BF8E675F008A42FF582E435F0F583AA
:10759C00E5822409F582E5833419F583E0C454F0BF
:1075AC004405FD7F021291DFE5182405F812098BC2
:1075BC00E41203B1E4FBFA7980784B1202A77B0A40
:1075CC007AD779A3783F12019EC8ECC8C9EDC9CA15
:1075DC00EECACBEFCB7F0A7ED77D237C3F1200A96E
:1075EC00A8181209FCA818E8C0E012098BE4FBFAF1
:1075FC00797A78441202A7D0E0F81209FCA818E8AE
:10760C00C0E012098B7B007A247974784912019EB0
:10761C00D0E0F81209FCA818E8C0E012098B7B9A9C
:10762C007A99798878431200A9D0E0F81209FCE421
:10763C00FFFE7DC87C42A8181209A312019EE4FB30
:10764C00FAF9783F1200AD1203EFEC1203B1E4FB30
:10765C00FA79C878421202A7A8181209FCE4FFFEB6
:10766C007D167C43A8181209A3120344600B400931
:10767C00A818120A144479FF5CE4FFFE7D5C7CC2FE
:10768C00A8181209A31203445009A818120A14C40A
:10769C0079FF5CA81812098BE518240EF8CBE6CB01
:0F76AC0008E6FA08E6F91209717F0480027F01EF
:0776BB00E5182411F5182267
:0CA8DB007F011293347FFC12A8E77F007D
:08A8E7001518A818EFF615186A
:10A8EF00C2B3C2B100000000000000000000000071
:10A8FF000000000000000000A818E4F6A818E6C346
:10A90F0094085047D2B008E6FF548094004003D318
:10A91F008001C392B300000000000000000000009F
:10A92F00000000000000000000C2B00000000000A6
:10A93F00000000000000000000000000000000A860
:10A94F001808EF25E0F6A8180680B1D2B1C2B300FF
:10A95F0000000000000000000000000000000000E8
:03A96F00000000E5
:05A97200051805182284
:109334001518A818EDF61518A818EFF6151815182D
:10934400C2B3C2B100000000000000000000000031
:109354000000000000000000A8180808E62450A837
:109364001808F6A818E4F6A818E6C394085047D2DB
:10937400B008E6FF548094004003D38001C392B345
:1093840000000000000000000000000000000000D9
:1093940000000000C2B00000000000000000000057
:1093A40000000000000000000000A81808EF25E0FD
:1093B400F6A8180680B1A8180808E62450A81808CA
:1093C400F6A818E4F6A818E6C394085040D2B0C230
:1093D400B3000000000000000000000000000000D6
:1093E4000000000000C2B000000000000000000007
:1093F400000000000000000000000008E8C0E0E6F3
:1094040025E0FFD0E0F8EFF6A8180680B8A818E425
:10941400F6A818E6C39408504ED2B0E5182403F811
:10942400E6FF5480D394004003D38001C392B30079
:109434000000000000000000000000000000000028
:10944400000000C2B00000000000000000000000A6
:10945400000000000000000000E5182403F8EF25D8
:10946400E0F6A8180680AAD2B1C2B300000000003A
:0F947400000000000000000000000000000000E9
:07948300E5182404F518228E
:10906E00151815181518A818C6EBC608C6EAC608AE
:09907E00C6E9C6E51824FCF5184A
:10908700C2B1000000000000000000000000000066
:10909700000000000000F8087601A818E4F6A818F8
:1090A700E6C394085047D2B008E6FF5480940040C6
:1090B70003D38001C392B30000000000000000004A
:1090C7000000000000000000000000C2B000000027
:1090D7000000000000000000000000000000000089
:0D90E70000A81808EF25E0F6A8180680B1D3
:1090F400A81808087605A8180808E6D394004022A2
:10910400E5182403F87613E5182403F8E6D394004D
:10911400400900E5182403F81680ECA8180808167E
:0291240080D4F5
:10912600A818E4F6E5182404F8CBE6CB08E6FA0816
:10913600E6F9120A5E00000000A818E6C39418506B
:1091460070D2B00000000000000000000000000027
:1091560000000000000000E5182404F8CBE6CB0868
:10916600E6FA08E6F9120921780112090EC8ECC8D8
:10917600C9EDC9CAEECACBEFCBA2B4E4334BFFEAC2
:10918600FEE9FDE8FCE5182404F8CBE6CB08E6FA90
:1091960008E6F9120971C2B00000000000000000E4
:1091A600000000000000000000000000A818068073
:1091B60088D2B1000000000000000000000000009E
:0791C60000000000000000A2
:0791CD00E5182407F5182244
:1066C5001518A818EBF61518A818EDF61518A8183A
:0866D500EFF6E51824F6F518B4
:1066DD00240BF8E6640160030267B4E518240CF896
:1066ED00E6FFE518240D12BBAA7D027F001293343C
:1066FD001D7F021293347DD07F031293347FF012ED
:10670D00A8E7E5182404F8120A14000000007FA081
:10671D007E867D017C00E5182404F81209A3C312BE
:07672D0008FD505730B55480
:10673400E5182408F87601E5182408F8E6D394004F
:106744004023E5182409F87603E5182409F8E6D36C
:106754009400400900E5182409F81680ECE5182493
:0567640008F81680D2C8
:10676900E5182404F812098BEF2401FFE43EFEE446
:106779003DFDE43CFCE5182404F81209FC80937DF6
:106789000F12A8DBE518240DF8E6FFE518240CF82C
:10679900E675F008A42FF582E435F0F583E5822447
:1067A90001F582E5833418F583E4F0E518240BF844
:1067B900E664036003026A41E518240EF8E6D394FF
:1067C9000740057F00026A43E518240CF8E6FFE557
:1067D90018240D12BBAAE5182404F8120A140000A3
:1067E9000000E47F107E27FDFCE5182404F8120957
:0A67F900A3C31208FD505730B55439
:10680300E5182408F87601E5182408F8E6D394007F
:106813004023E5182409F87603E5182409F8E6D39C
:106823009400400900E5182409F81680ECE51824C3
:0568330008F81680D2F8
:10683800E5182404F812098BEF2401FFE43EFEE476
:106848003DFDE43CFCE5182404F81209FC8094E4BE
:106858007F107E27FDFCE5182404F81209A3C31253
:1068680008FD7004FF026A43E518240DF8E6FEE50A
:1068780018240CF8E675F008A42EF582E435F0F536
:1068880083E5822401F582E5833418F583E0FDE58C
:1068980018240EF8E66D60057F00026A43E51824A7
:1068A8000DF8E6FFE518240CF8E6FCED045407FDA6
:1068B80075F008ECA42FF582E435F0F583E5822421
:1068C80001F582E5833418F583EDF075F008ECA442
:1068D8002EF582E435F0F583E5822401F582E5831F
:1068E8003418F583E0C454F0440FFD12A8DB7B0094
:1068F800E5182404F97A0012906EE5182404F812B9
:10690800098B780812090EEC1203B1A8181209FCB9
:10691800E4FBFA7980784FE8C0E0A81812098BD018
:10692800E0F81202A7E4FBFA79A0784012019EA8C9
:10693800181209FCE518240AF8E6B46402803FE559
:1069480018240AF8E6B4652DE4FBFA79207840E8C3
:10695800C0E0A81812098BD0E0F81202A7E4FBFAED
:1069680079A0784112019EE4FBFA792078C11200DF
:10697800ADA818803EE518240AF8E6B46617A818EA
:10698800E8C0E012098BE4FBFA7980783F12019E97
:10699800D0E0F8801EE518240AF8E6B46718A818AD
:1069A800E8C0E012098BE4FBFA7920784112019ED5
:1069B800D0E0F81209FCE518240AF8E6FF646560DF
:1069C80004EFB4672A7F007E407D1C7C46A818121D
:1069D80009A312019EE4FBFAF9783F1200AD1203F5
:1069E800EFEC1203B17B007A40791C784680287F4F
:1069F800007E507DC37C47A8181209A312019EE4AB
:106A0800FBFAF9783F1200AD1203EFEC1203B17BE9
:106A1800007A5079C378471202A7A8181209FCA86F
:106A28001812098BE518240FF8CBE6CB08E6FA080C
:0B6A3800E6F91209717F0480027F0163
:076A4300E5182412F51822EA
:107C50001518A818EBF61518A818EDF61518A81899
:087C6000EFF6E51824F5F51814
:107C6800240CF8E664036003027EF3E518240FF899
:107C7800E6FED3940340057F00027EF57401C8EE4A
:107C8800C8088002C333D8FCA8180808F675840110
:107C9800E5182403F8120A1400000000A818E4F6F6
:107CA800A818E6C3940A4003027D60E4F5CCF5CD3C
:107CB800F5C975C804E518240DF8E6FFE518240E83
:107CC80012BBAAE518240DF8E6FFE518240EF8E61D
:107CD800FDE4FB12BBAF7F0012B98FE518240DF845
:107CE800E6FFE518240EF8E6FD7B00A918097A00DE
:107CF80012A7AFA8180808C9E8C9A81808E6576065
:107D080005E5C830E7D0E4F5C8E5182403F8E8C06D
:107D1800E012098BECC0E0EDC0E0EEC0E0EFC0E09F
:107D2800AFCDEFFEADCC7C00E42DFFEC3ECBEFCB2E
:107D3800FAE4F9F8D0E0FFD0E0FED0E0FDD0E0FCB6
:107D4800EF2BFFEE3AFEE93DFDE83CFCD0E0F812EF
:107D580009FCA81806027CA8E5C85480FFBF0127C3
:107D6800E518240BF8E6B4700FE5182407F8120A92
:107D780014411FFFFF027ED6E5182407F8120A14E3
:107D88004479FFFE027ED6E5182403F812098BE435
:107D98001203B1ECC0E0EDC0E0EEC0E0EFC0E0A837
:107DA80018E6FCE41203BBC8ECC8C9EDC9CAEECAA0
:107DB800CBEFCBD0E0FFD0E0FED0E0FDD0E0FC126E
:107DC80002A7E4FBFA79C478421202A7E4FBFA7925
:107DD80040784112019EE5182407F81209FCE518BD
:107DE8002407F8E8C0E012098B7B007A24797478BC
:107DF800491202A7D0E0F81209FCE518240BF8E6AE
:107E080064707BCD7ACC798C783F7044E8C0E0E52B
:107E1800182407F812098BD0E0F81202A77B007A21
:107E2800B8790878491202A77B287A6B796E784E60
:107E380012019EE5182407F81209FCE5182407F832
:107E4800E8C0E012098B7B777ABE799F783D804144
:107E5800E8C0E0E5182407F812098BD0E0F8120210
:107E6800A7E4FBFA79AF78451202A77B287A6B79E9
:107E78006E784E12019EE5182407F81209FCE518E1
:107E88002407F8E8C0E012098B7B9A7A9979F97887
:107E9800401200A9D0E0F81209FCE4FFFE7D7A7CCC
:107EA80044E5182407F81209A312019EE4FBFAF925
:107EB800783F1200AD1203EFEC1203B1E4FBFA793C
:107EC8007A78441202A7E5182407F81209FCE51885
:107ED8002407F812098BE5182410F8CBE6CB08E63E
:0D7EE800FA08E6F91209717F0480027F019B
:077EF500E5182413F5182223
:1016E9001518A818EBF61518A818EDF61518A81866
:0816F900EFF6E51824F0F518E6
:10170100E5182412F8E675F008A4FFE5182413F88B
:10171100EF26FFE518240DF8EFF6E5182411F8E699
:1017210064046003021841E5182414F8E67032E5F8
:1017310018240DF8E625E025E02411F582E434179C
:10174100F583120A2D42960000E5182415F8CBE620
:10175100CB08E6FA08E6F9120A5E42960000021882
:101761003CE5182414F8E6B40132E518240DF8E636
:1017710025E025E024A9F582E43418F583120A2D29
:1017810000000000E5182415F8CBE6CB08E6FA08BE
:10179100E6F9120A5E0000000002183CE518241464
:1017A100F8E6B40231E518240DF8E625E025E02439
:1017B10071F582E43417F583120A2D3F800000E5AC
:1017C100182415F8CBE6CB08E6FA08E6F9120A5E0A
:1017D1003F8000008065E5182414F8E6FFB4032B70
:1017E100E518240DF8E625E024D1F582E43417F557
:1017F10083E4F0A3743CF0E5182415F8CBE6CB089C
:10180100E6FA08E6F9E475F03C802DEFB4042CE526
:1018110018240DF8E625E02421F582E4341CF58333
:10182100E4F0A37405F0E5182415F8CBE6CB08E63F
:10183100FA08E6F9E475F0051208BA7F00022052B1
:10184100E518240DF8E62451F582E4341CF583E013
:10185100600302191812BC06E518240DF8E625E00C
:1018610025E02419F582E43418F583E0F8A3E0F9C2
:10187100A3E0FAA3E0FBC3EF9BFFEE9AFEED99FD17
:10188100EC98FCECC0E0EDC0E0EEC0E0EFC0E0E5BC
:1018910018240DF8E625E024D1F582E43417F58308
:1018A100E0FEA3E0FF7C007D64120782CBEFCBCA90
:1018B100EECAE4F9F8D0E0FFD0E0FED0E0FDD0E0E0
:1018C100FCC31208FD40030219F4E518240DF8E6E3
:1018D1002451F582E4341CF5837401F012BC06E551
:1018E10018240DF8E6FB25E025E02419F582E434FF
:1018F10018F583120A08EB25E025E02411F582E4AE
:101901003417F583E0FCA3E0FDA3E0FEA3E0FFA80C
:10191100181209FC0219BD12BC06E518240DF8E6DF
:1019210025E025E02419F582E43418F583E0F8A3D5
:10193100E0F9A3E0FAA3E0FBC3EF9BFFEE9AFEED13
:1019410099FDEC98FCECC0E0EDC0E0EEC0E0EFC02A
:10195100E0E518240DF8E625E02421F582E4341CA5
:10196100F583E0FEA3E0FF7C007D64120782CBEFEC
:10197100CBCAEECAE4F9F8D0E0FFD0E0FED0E0FD3A
:10198100D0E0FCC31208FD506AE518240DF8E624E6
:1019910051F582E4341CF583E4F012BC06E5182409
:1019A1000DF8E625E025E02419F582E43418F583E5
:1019B100120A08A818120A1400000000A918151824
:1019C10015181518A818760008760008C6E9C61576
:1019D10018A818E4F6E5182417F8E61518A818F65B
:1019E100E5182417F8E6FB7D02E5182415F8E6FF53
:1019F1001216E9E5182411F8E664016003021A944D
:101A0100E5182412F8E6FFE5182413F8E6FD7B0E2D
:101A110012ACF2E5182412F8E6FFE5182413F8E6F3
:0C1A2100FD7B0E12A5D4128D7D1291D415
:101A2D00E518240EF87664E518240EF8E6D3940034
:101A3D004023E518240FF87603E518240FF8E6D3B4
:101A4D009400400900E518240FF81680ECE51824E1
:051A5D000EF81680D216
:101A62007D077F021291DFE518240DF8E62451F577
:101A720082E4341CF5837401F012BC06E518240DCF
:101A8200F8E625E025E02419F582E43418F58312FE
:101A92000A08E5182411F8E664026003021D6AE5EB
:101AA200182414F8E6703FE5182415F8CBE6CB08A5
:101AB200E6FA08E6F9120921E4FBFAF9F8120344FE
:101AC2005024E5182415F8CBE6CB08E6FA08E6F927
:101AD200120921E518240DF8E625E025E02411F588
:101AE20082E434178058E5182414F8E6B40124E59A
:101AF200182415F8CBE6CB08E6FA08E6F912092114
:101B0200E518240DF8E625E025E024A9F582E43461
:101B120018802BE5182414F8E6B40229E5182415D8
:101B2200F8CBE6CB08E6FA08E6F9120921E5182413
:101B32000DF8E625E025E02471F582E43417F583FB
:101B4200120A088062E5182414F8E6FFB4032BE5B4
:101B5200182415F8CBE6CB08E6FA08E6F912081FB6
:101B6200FDE518240DF8E625E024D1F582E43417CA
:101B7200F583E5F0F0A3EDF0802DEFB40429E5182C
:101B82002415F8CBE6CB08E6FA08E6F912081FFF9F
:101B9200E518240DF8E625E02421F582E4341CF54D
:101BA20083E5F0F0A3EFF0E5182414F8E6D39400EF
:101BB20040057F00022052E5182415F8CBE6CB0839
:101BC200E6FA08E6F9120921A8181209FCE4FFFE58
:101BD200FDFCA8181209A31203445009A818120AFE
:101BE2001400000000E4FFFE7DC87C42A818120920
:101BF200A3120344600B4009A818120A1442C80039
:101C020000E4FBFA79C87842E8C0E0A81812098B10
:101C1200D0E0F81202A77B007AFF797F78471201A1
:101C22009E1203EFE518240AF8EEF608EFF6E5181F
:101C32002412F8E6FFE5182413F8E6FDE4FB12A5EA
:101C4200D4E518240CF8E4F6E518240CF8E6FFC3F2
:101C520094045033EF940140047F0480027F001209
:101C6200A5B8E5182412F8E6FFE5182413F8E6FDF6
:101C7200E5182405F8E64408FB12A5D412A5BFE531
:101C820018240CF80680C1E518240CF8E4F6E518CF
:101C9200240CF8E6C39404504DE5182414F8E654D5
:101CA20008D3940040047F0480027F0012A5B8E5A7
:101CB200182412F8E6FFE5182413F8E6FDE51824C7
:101CC20005F8E64408FB12A5D412A5BFE5182414B2
:101CD200F8E8C0E0E625E0FFD0E0F8EFF6E51824EA
:101CE2000CF806021C90E518240CF8E4F6E518241A
:101CF2000CF8E6C39410505DE518240AF8E6548007
:101D0200FED3E49400EE940040047F0480027F003E
:101D120012A5B8E5182412F8E6FFE5182413F8E630
:101D2200FDE5182405F8E64408FB12A5D412A5BF68
:101D3200E518240AF8E8C0E0C9E8C909E725E0FF88
:101D420019E733FED0E0F8EEF608EFF6E518240CBA
:101D5200F806021CEFE5182412F8E6FFE518241332
:101D6200F8E6FD7B0E12A5D4E5182411F8E664030B
:101D72006003022050E5182414F8E67013E51824D5
:101D82000DF8E625E025E02411F582E434178036CB
:101D9200E5182414F8E6B40113E518240DF8E62535
:101DA200E025E024A9F582E43418801AE518241409
:101DB200F8E6B40221E518240DF8E625E025E02432
:101DC20071F582E43417F583E0FCA3E0FDA3E0FEA5
:101DD200A3E0FF022037E5182414F8E6FEB4032836
:101DE200E518240DF8E625E024D1F582E43417F550
:101DF20083E0F9A3E0FDE5182415F8CBE6CB08E66D
:101E0200FA08E6C98DF0802AEEB4042EE518240DF6
:101E1200F8E625E02421F582E4341CF583E0F9A3F9
:101E2200E0FFE5182415F8CBE6CB08E6FA08E6C988
:101E32008FF01208BA7F02022052E5182414F8E645
:101E4200640560057F00022052E5182412F8E6FFBF
:101E5200E5182413F8E6FD7B00E5182404F97A005E
:101E620012A7AFE5182404F8E65401D39400400504
:101E72007F00022052128D7D7B00E5182406128A13
:101E82004E7D077F021291DFE5182406F812098BB6
:101E9200E41203B1E4FBFA7980784B1202A77B0AC1
:101EA2007AD779A3784012019E7B0A7AD779237870
:101EB200C01200ADA8181209FCA818E8C0E0120967
:101EC2008B7B387A1F7943784112019ED0E0F81259
:101ED20009FCA818E8C0E012098BECC0E0EDC0E0F4
:101EE200EEC0E0EFC0E0E518240DF8E625E025E0BD
:101EF2002411F582E43417F583E0FCA3E0FDA3E0AE
:101F0200FEA3E0FFE4FBFA797A78441202A7C8EC58
:101F1200C8C9EDC9CAEECACBEFCBD0E0FFD0E0FE14
:101F2200D0E0FDD0E0FC1202A7D0E0F81209FC7B61
:101F3200CD7ACC792C7840E8C0E0A81812098BD071
:101F4200E0F81202A7C8ECC8C9EDC9CAEECACBEFC5
:101F5200CBE4FFFE7DC87C421200A9A8181209FC3E
:101F6200E518240DF8E625E025E024A9F582E434FD
:101F720018F583E0F8A3E0F9A3E0FAA3E0FBE8C0D8
:101F8200E0A81812098BD0E0F81200A9E518240D78
:101F9200F8E625E025E02471F582E43417F583E0C4
:101FA200F8A3E0F9A3E0FAA3E0FB12019EA818123D
:101FB20009FC7F007E507DC37C47A8181209A3123A
:101FC200019EE4FBFAF9783F1200AD1203EFEC1226
:101FD20003B17B007A5079C378471202A7A818127E
:101FE20009FCE518240DF8E62451F582E4341CF5C9
:101FF20083E06401705412BC06E518240DF8E6254E
:10200200E025E02419F582E43418F583E0F8A3E032
:10201200F9A3E0FAA3E0FBC3EF9BFFEE9AFEED9972
:10202200FDEC98FCE47B64FAF9F8C31208FD501A3F
:10203200A81812098BE5182415F8CBE6CB08E6FAA6
:1020420008E6F91209717F0480067F0080027F0191
:07205200E5182418F518221F
:107EFC001518A818EBF61518A818EDF61518A818EB
:087F0C00EFF6E51824F5F51865
:107F1400E518240CF8E664017021E518240DF8E650
:107F2400FFE518240EF8E6FD7BFF12A5D4E518241E
:107F34000DF8E6FFE518240E12ACEDE518240CF854
