:10324600202020416464726573733A20202530344F
:1032560058002020202020536C617665206D6F6415
:1032660065200020205265766973696F6E3A2020CA
:1032760025730020205265762E204C69623A202064
:1032860025730057726F6E672043504C4420666961
:10329600726D7761726500536C6176652061646456
:1032A600723A20256264005265713A2025303262F6
:1032B6006420213D204163743A2025303262640047
:1032C6004F76657263757272656E74203E312E3567
:1032D60041206F6E00202020323456206F757470A6
:1032E60075742021212120202000202020536C618C
:1032F600766520616464723A202562640052455303
:103306004554004F76657263757272656E74203E21
:10331600302E3541206F6E00202020203556206F3C
:103326007574707574202121210020202020536C93
:1033360061766520616464723A202562640020200B
:10334600202055203D2025312E32662056004E6520
:1033560077206D6F64756C6520696E20706F72746E
:103366002025626400506C6573652073656C656327
:10337600743A003E253032625820257320202020E2
:1033860020202020202020200053454C20202020D3
:103396002020202020202020204E45585400534530
:1033A6004C2020202020202020505245562020202E
:1033B60020200053454C2020202020202020505241
:1033C6004556204E4558540020002A2A2000202A1F
:1033D6002A20004D4F442020564152532020535955
:1033E6005320202020202000502562643A253032C8
:1033F6006258202573202020202020202020200015
:1034060020202020202020202020202020202020B6
:10341600202020200045534320202020202000206B
:1034260020256320002020202000455343204552BC
:103436004153452020202020202020202020004508
:103446005343204552415345202050524556204E65
:1034560045585400202020204572617365206D6F09
:1034660064756C65202020200020202020696E20B5
:10347600706F727420256264203F20202000534C18
:10348600415645204D4F444500416464726573734F
:103496002025326264005343532D333030300024EC
:0C34A6005265763A20343134372024007F
:10590F00017E01C110C116C117C111C112C113C14E
:10591F00154400AA000000004400AE000000004142
:07592F0012E2004112E70043
:042BDD00784AEFF251
:102BE1009012E974FFF07D017F00125F037D007F89
:102BF10001125F03E49014C3F09014C3E0FFC39487
:102C010002500B124B7B9014C3E004F080EB126175
:102C110079EF24FF9209D20E200903022E71784A1E
:102C2100E27003022D61E49014C6F09014C3F09099
:102C310014C3E0FFC394104003022D6174892FF582
:102C410082E43400F583E09014C5F0F47003022DA2
:102C510058E075F00BA4242CF582E5F03461F5837E
:102C6100E493FB740193FA740293F9EA494B7003FC
:102C7100022D58E49014C4F09014C3E02499F58215
:102C8100E43400F583E0FF9014C4E0C39F400302E5
:102C91002D587800E2FB08E2FA08E2F99014C6E048
:102CA100FF75F020A4F58285F08312115CFD7C0094
:102CB100C004C0057D00EF75F020A4FFE92FF9EAFB
:102CC10035F0FA90000D121380D007D0061214359A
:102CD1009014C6E075F020A4FF7800E2FB08E2FA48
:102CE10008E22FF9EA35F0FA90000D121380150869
:102CF10015081508A808EBF208EAF208E9F29014A1
:102D0100C4E01508A808F29014C3E0FF54071508A1
:102D1100A808F2EF131313541FFB7D04E024B2F54E
:102D210082E43400F583E0FF9014C5E075F00BA454
:102D3100242CF582E5F03461F583740193FA740271
:102D410093F5828A831214339014C6E004F0901430
:102D5100C4E004F0022C799014C3E004F0022C309A
:102D6100E49014C3F09014C3E0FFC3941040030235
:102D71002E0674892FF582E43400F583E0FFF460B8
:102D81007B75F00BEFA4242CF582E5F03461F5831B
:102D9100E493FB740193FA740293F9EA494B605C82
:102DA100150815081508A808E4F208F208F2150834
:102DB100A808F29014C3E0FF54071508A808F2EF21
:102DC100131313541FFB7D01E0FE24B2F582E4349A
:102DD10000F583E0FF74892EF582E43400F583E089
:102DE10075F00BA4242CF582E5F03461F5837401B0
:102DF10093FA740293F5828A831214339014C3E018
:102E010004F0022D66E49014C3F09014C3E0FFC3F4
:102E1100788296500B125F5F9014C3E004F080EA51
:102E2100E49014C3F07800E2FB08E2FA08E2F990BA
:102E310014C3E0FF75F020A4F58285F08312115CC4
:102E4100602EEF75F020A4FF7800E2FB08E2FA089B
:102E5100E22FF9EA35F0FA90000412115C30E5082E
:102E61009014C3E0FF124CEA9014C3E004F080B563
:102E71007F061255607D017F011260287D027F0867
:102E81001260F97850E4F2087400F2087493F27B4E
:102E9100437D0A7C007F887E0012431E7D037C00F7
:102EA100E4FFFE125CD17BFF3009137A3279467858
:102EB1008DE6FF08E6784FCFF208EFF280047A3210
:102EC1007958121BF47D047C00E4FFFE125CD1787A
:102ED1004E74FFF2087434F20874ABF208E4F2089D
:102EE1007406F27B017A1479C712571D7B017A149B
:102EF10079C77D201260C2E4121189784F04F2086B
:102F01007414F20874C7F27BFF7A327969121BF4E8
:102F11007D057C00E4FFFE125CD1784E74FFF2085F
:102F21007461F2087424F208E4F2087406F27B0179
:102F31007A1479C712571D7B017A1479C77D201243
:102F410060C2E4121189784F04F2087414F2087413
:0B2F5100C7F27BFF7A327979021BF493
:0761F400EF24FF920A7F0176
:0761FB00784CEFF27F002257
:102F5C002009037F0122E49014D3F01261A8C8EC7D
:102F6C00C8C9EDC9CAEECACBEFCB900071E0FCA387
:102F7C00E0FDA3E0FEA3E0240AFFE43EFEE43DFDF9
:102F8C00E43CFCD31212C4501A1261A8900071E0F8
:102F9C00F8A3E0F9A3E0FAA3E0FBD31212C45003A8
:102FAC000232311261A8900071121305E49014D40E
:102FBC00F09000A9E0FE9014D4E0FFC39E40030201
:102FCC0032407B017A1479D2124D8A9014D2E0C42B
:102FDC00540F6402606D7A007B647D017F01125195
:102FEC00AF20175712621CE4FDFCFFFE125CD17B74
:102FFC00FF7A327989125FB87D017C00E4FFFE1202
:10300C005CD19014D4E0FFD39400400D7BFF7A3256
:10301C00799D784FEFF2121BF47D027C00E4FFFEE9
:10302C00125CD17BFF7A3279AD784F7402F2901436
:10303C00D2E0FFC4540F08F2121BF4D2179014D331
:10304C007401F09014D4E0FF781C7401F20874142D
:10305C00F20874D5F2087403F2E4FB7D01123F729E
:10306C009014D5E020E3030231057A007B647D01E6
:10307C007F011251AF20165C12621CE4FDFCFFFEB6
:10308C00125CD17BFF7A3279C6121BF47D017C0075
:10309C00E4FFFE125CD17BFF7A3279DB121BF47DEC
:1030AC00027C00E4FFFE125CD19014D4E0FFD394B8
:1030BC0000400D7BFF7A3279F0784FEFF2121BF45F
:1030CC007D037C007F0F7E00125CD17BFF7A33790D
:1030DC0003121BF4D2167F031261FBEF60159014E0
:1030EC00D4E0FF126087C2167F031261FBEF70F809
:1030FC0012621C9014D37401F01261A8E47B64FA80
:10310C00F9F8C31212C440030232289014D4E0FF21
:10311C00781C7401F2087414F20874D8F208740262
:10312C00F27B03FD123F729014D8E0C4F854F0C83F
:10313C0068FCA3E0C4540F48FDE4120D30E4FBFA24
:10314C0079C87840120B0CE4FBFA79807845120CA4
:10315C0015E4FBFA79907840120CB260025003022D
:10316C00321420105312621C7A007B647D017F01A3
:10317C001251AFE4FDFCFFFE125CD17BFF7A337978
:10318C0009121BF47D017C00E4FFFE125CD17BFF75
:10319C007A33791E121BF47D027C00E4FFFE125C74
:1031AC00D19014D4E0FFD39400400D7BFF7A337997
:1031BC0030784FEFF2121BF47D037C00E4FFFE121B
:1031CC005CD19014D8E0C4F854F0C868FCA3E0C4F7
:1031DC00540F48FDE4120D30E4FBFA79C878401224
:1031EC000B0CE4FBFA79807845120C15784F12130E
:1031FC00117BFF7A337944121BF4D2109012E874CD
:10320C0001F09014D3F080143010119014D4E0FF1E
:10321C009012E8E06F7005C21012621C9014D4E09A
:10322C0004F0022FBD201606201003301706901450
:09323C00D37401F09014D3E0FFFB
:013245002266
:1015050075840F75A4F575A5FF75A6FA75A70FE483
:10151500F584F5BA75BC9875E880F5D1F58475D173
:1015250003126231E49014CBF09014C9F09014C802
:10153500F0784A7410F20874E2F2E49014C5F09061
:1015450014C5E0FFC39402500E1260DEEF600890F0
:1015550014C5E004F080E89014C5E09000A9F0E41B
:101565009014C5F09000A9E0FE9014C5E0FFC39E5D
:10157500500FD2147D01125F319014C5E004F08044
:10158500E378007401F2087400F20874C2F2E49082
:1015950014C3F09014C3E0FFC394104003021B6A08
:1015A50074B22FF582E43400F583E4F074992FF5D5
:1015B50082E43400F583E4F074892FF582E4340085
:1015C500F58374FFF0EF131313541FFF9014C3E05A
:1015D5005407FD7B017A1479C4123E239014C4E0AC
:1015E500D394005003021B61E4A3F09014C5E07589
:1015F500F00BA42424F582E5F03461F583E493FF30
:1016050060119014C4E0FEEF6E60089014C5E0040C
:10161500F080D89014C4E06F60030219B99014C328
:10162500E02499F582E43400F583E4F09014C7F0E2
:101635009014C5E0FF75F00BA4242BF582E5F0347A
:1016450061F583E493FE9014C7E0FDC39E40030259
:10165500198A75F00BEFA42428F582E5F03461F5BD
:1016650083E493FB740193FA740293F9ED75F0200A
:10167500A4FFE92FF9EA35F0FA90000D121380CF97
:10168500E9CF9014CAEFF07003021846E49014C62F
:10169500F09014CAE0FF9014C6E0C39F40030219FE
:1016A500819014C5E075F00BA42428F582E5F0348B
:1016B50061F583E493FB740193FA740293F9901432
:1016C500C7E075F020A4FFE92FF9EA35F0FAEBC081
:1016D500E0EAC0E0E9C0E0A3E075F020A4FF7800EF
:1016E500E2FB08E2FA08E22FF9EA35F0C8E9C8FC9E
:1016F500CDEBCDD0E0F9D0E0FAD0E0FB7E007F2045
:1017050012111D9014C8E075F020A4FF7800E2FBCB
:1017150008E2FA08E22FF9EA35F0FAE92405F9E4D6
:101725003AFA7D251260C2EA494B60429014C3E043
:10173500FFD394094005EF243780069014C3E024B5
:1017450030FFEFC0E09014C8E075F020A4FF7800EA
:10175500E2FB08E2FA08E22FF9EA35F0FAE9240596
:10176500F9E43AFA7D251260C2D0E012118990148D
:10177500C8E075F020A4FF7800E2FB08E2FA08E271
:101785002FF9EA35F0FAE92405F9E43AFA7D23124E
:1017950060C2EA494B60339014C6E02430FFEFC0C5
:1017A500E09014C8E075F020A4FF7800E2FB08E2A1
:1017B500FA08E22FF9EA35F0FAE92405F9E43AFAEC
:1017C5007D231260C2D0E0121189784AE2FE08E258
:1017D500CAEECAF97B01EBC0E0EAC0E0E9C0E090DF
:1017E50014C8E075F020A4FF7800E2FB08E2FA08CF
:1017F500E22FF9EA35F0FA90000D1213B07800E205
:10180500FB08E2FA08E2F99014C8E075F020A4F5A7
:101815008285F08312115CFF784BE22FF218E234D7
:1018250000F29014C8E004F09014C3E02499F58206
:10183500E43400F583E004F09014C6E004F00216E9
:10184500969014C5E075F00BA42428F582E5F034D4
:1018550061F583E493FB740193FA740293F9901490
:10186500C7E075F020A4FFE92FF9EA35F0FAEBC0DF
:10187500E0EAC0E0E9C0E0A3E075F020A4FF78004D
:10188500E2FB08E2FA08E22FF9EA35F0C8E9C8FCFC
:10189500CDEBCDD0E0F9D0E0FAD0E0FB7E007F20A3
:1018A50012111D9014C8E075F020A4FF7800E2FB2A
:1018B50008E2FA08E22FF9EA35F0FAE92405F9E435
:1018C5003AFA7D251260C2EA494B60429014C3E0A2
:1018D500FFD394094005EF243780069014C3E02414
:1018E50030FFEFC0E09014C8E075F020A4FF780049
:1018F500E2FB08E2FA08E22FF9EA35F0FAE92405F5
:10190500F9E43AFA7D251260C2D0E0121189784ACD
:10191500E2FE08E2CAEECAF97B01EBC0E0EAC0E0EC
:10192500E9C0E09014C8E075F020A4FF7800E2FB60
:1019350008E2FA08E22FF9EA35F0FA90000D1213E1
:10194500B07800E2FB08E2FA08E2F99014C8E07505
:10195500F020A4F58285F08312115CFF784BE22F0D
:10196500F218E23400F29014C8E004F09014C3E0D9
:101975002499F582E43400F583E004F09014C7E07F
:1019850004F00216359014C4E0FF9014C3E0FE2461
:10199500B2F582E43400F583EFF09014C5E0FF74EE
:1019A500892EF582E43400F583EFF09014C9E00444
:1019B500F0021B61E49014C5F09000A9E0FE9014BC
:1019C500C5E0FFC39E500DE4FD125F319014C5E0E4
:1019D50004F080E512621CE4FDFCFFFE125CD17B85
:1019E500FF7A3379549014C3E0784FF2121BF47DDB
:1019F500017C00E4FFFE125CD17BFF7A33796B1228
:101A05001BF4E49014C5F07D027C00E4FFFE125C3B
:101A1500D19014C5E0FF75F00BA42424F582E5F000
:101A25003461F583E493784FF275F00BEFA4242528
:101A3500F582E5F03461F583E493F9740193FA7462
:101A4500029308C9F208EAF208E9F27BFF7A3379D2
:101A550079121BF47D037C00E4FFFE125CD1901427
:101A6500C5E070087BFF7A33798F80229014C5E03A
:101A750075F00BA4242FF582E5F03461F583E4932A
:101A85007BFF70067A3379A480047A3379B9121B07
:101A9500F47F00125F8CE4FF1261FB1261F4EF2406
:101AA500FF920B7F021261FBEF24FF920C7F031262
:101AB50061FBEF24FF920D200A09200B06200C0381
:101AC500300DCE300A449014C5E075F00BA42424E3
:101AD500F582E5F03461F583E493FB9014C3E0FEF1
:101AE500131313541FFFEE5407FD1234B29014C3A1
:101AF500E014F0300A0CE4FF1261FBEF24FF920AB8
:101B050080F19014CB7401F08052300C1B9014C5F9
:101B1500E0D394004003E014F0300C0C7F02126116
:101B2500FBEF24FF920C80F1200D03021A0C901498
:101B3500C5E075F00BA4242FF582E5F03461F5833B
:101B4500E49360069014C5E004F0200D03021A0C1E
:101B55007F031261FBEF24FF920D80EE9014C3E02A
:101B650004F00215987800E2FB08E2FA08E2F99021
:101B750014C8E075F020A4F58285F083E412119B6A
:0C1B85009014CBE06006E4F58475EF10CE
:011B91002231
:105F5F001508A808EFF2E2FF131313541F2479F565
:105F6F0082E43400F583E0FEEF5407FF7401C8EFBD
:0D5F7F00C8088002C333D8FC4EF00508228C
:07000300783FEFF27F0022BD
:106161001211439012E9F07842E2FB08E2FA08E2E8
:08617100F97401121189FF22EB
:10200000302B0C12621CE4900075F0A374FFF020DA
:1020100009037F0022300F030220BCE4FDFCFFFE19
:10202000125CD1E49014DAF07B007A00799312000C
:102030000E7C007D021211CFC374079FFFE49EFE49
:102040009014DAE0C39FEE6480F874809850117B9E
:10205000FF7A3379CE125FB89014DAE004F080C8CA
:102060007BFF7A3379D0125FB87B007A00799312C4
:102070005FB87BFF7A3379D4125FB87D017C00E4CE
:10208000FFFE125CD17BFF7A327946788DE6FF083D
:10209000E6784FCFF208EFF2121BF47D027C007F4E
:1020A000017E00125CD11259677D037C00E4FFFEC3
:1020B000125CD17BFF7A3379D9125FB8200F03020B
:1020C00023FA900076E0FF900075E06F7003022223
:1020D0002FC208E49014DBF09014DAF09014DDF0D5
:1020E0009014DAE0FFC3941040030221C674B22FAB
:1020F000F582E43400F583E070030221BD9014DB27
:10210000E004F0900075E0FF9014DBE0D39F5003F3
:102110000221BD9014DDE0FD7C00E4FFFE125CD1E5
:10212000E49014DCF09014DCE075F00BA42424F5AA
:1021300082E5F03461F583E493FF601B9014DAE0EC
:1021400024B2F582E43400F583E0FEEF6E6008907F
:1021500014DCE004F080CE9014DCE0FF75F00BA4FA
:102160002424F582E5F03461F583E493FE603F902A
:1021700014DDE0B40304D208804C9014DAE0784F08
:10218000F208EEF275F00BEFA42425F582E5F034A9
:1021900061F583E493F9740193FA74029308C9F228
:1021A00008EAF208E9F27BFF7A3379EE80067BFFDA
:1021B0007A347906121BF49014DDE004F09014DAFE
:1021C000E004F00220E07D037C00E4FFFE125CD11D
:1021D0007BFF7A34791B125FB87D037C007F107E11
:1021E00000125CD17BFF30080E7A347925784F7469
:1021F00013F2121BF480077A34792B125FB87D0337
:102200007C007F0A7E00125CD1900075E0D39400C0
:102210007BFF400E7A347925784F7412F2121BF44A
:1022200080077A34792B125FB8900075E0A3F03004
:10223000080C300D09201506900075E004F09000A0
:1022400075E0D394004009300C06201303E014F02D
:10225000300A0C201109C20FA20A921112621C301E
:102260000B030223FA2012030223FAE4900077F012
:102270009014DAF0900077E0FE131313541FFFEE72
:102280005407FD126148EF60069014DAE004F09004
:102290000077E004F0E0C3941040D9E4900077F0B8
:1022A000900077E0FE131313541FFFEE5407FD1246
:1022B0006148EF700C900077E004F0E0C3941040A8
:1022C000DF9014DAE07002FF2212621C7D037C00B2
:1022D000E4FFFE125CD19014DAE07BFF70067A34E2
:1022E000793080047A347945121BF4E4FDFCFFFE5A
:1022F000125CD17BFF7A34795A121BF47D017C0089
:10230000E4FFFE125CD17BFF7A34796F900077E0B6
:10231000784FF2121BF47F00125F8CE4FF1261FB16
:102320001261F4EF24FF920B7F021261FBEF24FF96
:10233000920C7F031261FBEF24FF920D200A09200B
:102340000B06200C03300DCE300A1F300A0CE4FFC0
:102350001261FBEF24FF920A80F112621C9000765A
:1023600074FFF0C212C2117F0022300B239000775D
:10237000E0FD7BFFE4FF1234B2300B0C7F011261F1
:10238000FBEF24FF920B80F1E4F58475EF10806A77
:10239000300C2E8012900077E0131313541FFF7D32
:1023A00010126148EF700B900077E0240F540FF08B
:1023B00080E3300C0C7F021261FBEF24FF920C8053
:1023C000F1200D030222EB8015900077E0FE13133D
:1023D00013541FFFEE5407FD126148EF700A90007E
:1023E00077E004540FF080E1200D030222EB7F031D
:1023F0001261FBEF24FF920D80EE200F0D200B0ADF
:10240000301207A20B92127F0122200F0D200C0A1E
:10241000301307A20C92137F0222300A0F20110CF6
:10242000D20F12621C900075E004A3F0A20A921170
:0E243000A20B9212A20C9213A20D92157F0025
:01243E00227B
:10243F0020090302274BE49014C3F09014C3E0FF6C
:10244F00131313541F2479F582E43400F583E0FD50
:10245F007C00EF5407FF74017E00C8EFC8088005A9
:10246F00C333CE33CED8F9FFEE5CFEEF5D4E700373
:10247F000225CEE49014C4F09014C7F09014C7E076
:10248F00FFC39410400302259E74992FF582E43404
:10249F0000F583E0FF9014C4E0FD2FFFE433FE90BE
:1024AF0014C3E0FCFBD3EF9B7480F86E98500302CB
:1024BF002580EC9DA3F09014C7E02489F582E434C5
:1024CF0000F583E09014C5F0F4700302259EE075CB
:1024DF00F00BA4242CF582E5F03461F583E493FB33
:1024EF00740193FA740293F9EA494B700302259E23
:1024FF009014C3E075F020A4FF7800E2FB08E2FA25
:10250F0008E22FF9EA35F0FA90000D121380150842
:10251F0015081508A808EBF208EAF208E9F290147A
:10252F00C4E01508A808F29014C7E0FF5407150877
:10253F00A808F2EF131313541FFB7D029014C5E08C
:10254F00FE75F00BA42424F582E5F03461F583E4E5
:10255F0093FF75F00BEEA4242CF582E5F03461F5B2
:10256F0083740193FA740293F5828A831214338071
:10257F001E9014C7E02499F582E43400F583E0FF40
:10258F009014C4E02FF09014C7E004F002248B9055
:10259F0014C3E0FF131313541F2479F582E434009E
:1025AF00F583C083C082E0FEEF5407FF7401C8EFCC
:1025BF00C8088002C333D8FCF45ED082D083F09079
:1025CF0014C3E004F0E0C39480500302244A901235
:1025DF00E2E02489F582E43400F583E0FFF4700330
:1025EF000227089014C4EFF0E4A3F09012E2E02465
:1025FF0099F582E43400F583E0FF9014C5E0FEC343
:10260F009F40030227089014C4E075F00BA4242CFC
:10261F00F582E5F03461F583E493FB740193FA746A
:10262F000293F9EA494B6068150815081508A808C0
:10263F007401F2087414F20874C8F21508A808EEB1
:10264F00F29012E2E0FF54071508A808F2EF1313F7
:10265F0013541FFB7D039014C4E0FE75F00BA424EC
:10266F0024F582E5F03461F583E493FF75F00BEE0A
:10267F00A4242CF582E5F03461F583740193FA7488
:10268F000293F5828A831214339014C6EFF08005FB
:10269F00E49014C6F09014C6E0FFD394004051C2EA
:1026AF00AF7E00EEC0E0EFC0E09014C5E0FF9012E7
:1026BF00E7E02FFFE433FEEF7805C333CE33CED8F8
:1026CF00F9FF7800E2FB08E2FA08E22FF9EA3EFA96
:1026DF0090000D121380C8E9C8CCEACCCDEBCD7BAE
:1026EF00017A1479C8D0E0FFD0E0FE12111DD2AFED
:1026FF009014C5E004F00225FA9012E2E02499F557
:10270F0082E43400F583E0FF9012E7E02FF090129F
:10271F00E2E004F0E0B41006E4F09012E7F090125B
:10272F00E9E0F46017E0FE131313541FFFEE540794
:10273F00FD7BFF1234B29012E974FFF01261A8C84A
:10274F00ECC8C9EDC9CAEECACBEFCB9012E3E0FCDF
:10275F00A3E0FDA3E0FEA3E0240AFFE43EFEE43D78
:10276F00FDE43CFCD31212C450171261A89012E37F
:10277F00E0F8A3E0F9A3E0FAA3E0FBD31212C44000
:10278F00791261A89012E3121305E4FF1261FB1294
:10279F0061F4EF24FF920B7F021261FBEF24FF9293
:1027AF000C7F031261FBEF24FF920D30090512001D
:1027BF000A80471261A8E47B2C7A01F9F8C3121240
:1027CF00C45037300E05C20E12621C7D017C007F93
:1027DF00057E00125CD17BFF7A347984121BF47D65
:1027EF00027C007F057E00125CD112612F784FEFC3
:1027FF00F27BFF7A34798F121BF43014311261A8F7
:10280F00E47B0AFAF9F8C31212C45022C214E490FE
:10281F0014C4F09000A9E0FE9014C4E0FFC39E50D2
:0E282F000DE4FD125F319014C4E004F080E56A
:01283D002278
:105FE20020202020557067726164696E670020204E
:105FF20020204669726D776172652E2E2E00245222
:04600200657624009B
:0F5936000184FF4212FAFFFF4413020000000039
:10283E00E47880F61261CEC28575840F75E104E4EA
:10284E00F5E275E344F58475B7B075840F758A8328
:10285E00F597438901758D01758F01758E04784842
:10286E00F208F27849E22401F218E23400F208E2AA
:10287E00640F700218E270EB438902E47848F208A4
:10288E00F27848E2FE08E2FFE4FCFD7B507AC3F9E1
:10289E00F8D31212AE4012E58920E40D7849E224F5
:1028AE0001F218E23400F280D8759702125EA2127D
:1028BE0056B27847EFF2E4F584EFD39400400EE57C
:1028CE00EF5402D394004005E2FF1236F71260492E
:1028DE00E4FF12606843EF04E47848F208F27848A7
:1028EE00E2FE08E2FFC39402EE940050127D011244
:1028FE005F037849E22401F218E23400F280DFE44B
:10290E00F520C223C221C227C226C2257880F6C274
:10291E002808F67886F618F6788BF67848F208F2DC
:10292E007848E2FE08E2FFC3EE94015017740A2FB6
:10293E00F58274133EF583E4F0E22401F218E234DA
:10294E0000F280DCE47848F208F27848E2FE08E211
:10295E00FFC39440EE94005017740A2FF58274143E
:10296E003EF583E4F0E22401F218E23400F280DA5C
:10297E00E4F584E5EF20E10CE5EF5408D394004034
:10298E0003D38001C392037D08E4FF125ABD7D0874
:10299E007F01125ABD121505E4788AF67882F67810
:1029AE0000E2FB08E2FA08E2F97882E6FF75F02011
:1029BE00A4F58285F08312115CFE788A26F6EE600D
:1029CE000578820680D9EFD3940040387800E2FB78
:1029DE0008E2FA08E2F990000D1213801211437802
:1029EE0047F2745512118912114364556002D225B3
:1029FE0074AA12118912114364AA6002D225784773
:102A0E00E2121189E4F584E5EF5402D394004004F8
:102A1E007F018002E4FF1241F37846EFF27846E23E
:102A2E0020E03BC22274FF788DF608F608F608F611
:102A3E007E007F107D007B007A007993121435782A
:102A4E004E74FFF2087434F208749CF208E4F20833
:102A5E007410F27B007A00799312571D8002D222F5
:102A6E00906007E493FF3395E0FEEF24D0FFEE3441
:102A7E00FFFE7C007D641211BDAA06AB07906006B6
:102A8E00E493FF3395E0FEEF24D0FFEE34FFFE7C9F
:102A9E00037DE81211BDEF2BFBEE3AFA906008E4CD
:102AAE0093FF3395E0FEEF24D0FFEE34FFFE7C0063
:102ABE007D0A1211BDEF2BFFEE3AFEA3E493FD3318
:102ACE0095E0FCED24D0FDEC34FFCD2F7892F6EDA1
:102ADE003E18F67846E230E103022BAAE47848F27B
:102AEE0008F27848E2FE08E27805C333CE33CED83A
:102AFE00F9FF7800E2FB08E2FA08E2F98F828E8392
:102B0E0012115C7003022BA1E92FF9EA3EFA900034
:102B1E000412115C20E26EE47845F27845E2FDC3C2
:102B2E00787E9650607848E2FE08E27805C333CE90
:102B3E0033CED8F9FF7800E2FB08E2FA08E2F98F0B
:102B4E00828E8312115CFF7E00C006C0077C007867
:102B5E0048E2FE08E27805C333CE33CED8F929F920
:102B6E00EA3EFA90000D121380788AE68DF0A429C1
:102B7E00F9EA35F0FAAD04D007D0061214357845CF
:102B8E00E204F280967849E22401F218E23400F26F
:102B9E00022AF07F01122BDDC2248007E4FF122BE4
:102BAE00DDD224E47848F208F27848E2FE08E2FF2B
:102BBE00C39402EE940050167A007B967D03125158
:0E2BCE00AF7849E22401F218E23400F280DB15
:012BDC0022D6
:05624800788BE6FF2247
:030023000244375D
:10443700C0E0C0F0C083C082C0D075D000C000C04B
:1044470001C002C003C004C005C006C00730993EC2
:10445700C2997886067986E77881667015F6788638
:01446700F65E
:0D44680075260A75271300D527FCD526F60A
:04447500C285801C60
:0D44790075281475291300D529FCD528F6E7
:104486007886E6240AF582E43414F583E0F599206B
:104496009803024532209A08202305C29802452E29
:1044A600C29A7885E606240AF582E43413F583E594
:1044B60099F0C298E6FFB4011290130AE0FE700369
:1044C600F68069EE54072402788CF6EFB4020D7874
:1044D6008CE6B4090790130BE02403F67885E6FF13
:1044E600B40007E4B40103F68042EFC3788C96402B
:1044F6003B7885E624FFFDE434FFFC7B017A1379E3
:104506000A12511F7885E62409F582E43413F583EF
:08451600E06F600476008014E0
:0D451E00752A14752B1300D52BFCD52AF639
:10452B001200A678857600D007D006D005D004D02F
:10453B0003D002D001D000D0D0D082D083D0F0D025
:02454B00E0325C
:10508B0090130BE075F020A4FF7800E2FB08E2FA26
:10509B0008E22FF9EA35F0FA90000D121380788BA5
:1050AB00E6FF18E678338FF0A4FFE22FF582E435A4
:0D50BB00F0F58312115CFF7BFE7A00793165
:1050C800783FEFF208EBF208EAF208E9F2E4F58437
:1050D800EA494B60257840E2FB08E2FA08E2F91257
:1050E8001143FF783FE2FD7C001262107840E2FB3A
:0A50F80008E2FA08E2F9EF1211894C
:0D51020075341475351300D535FCD534F621
:10510F00783FE2F5997F01125F8C3099FDC29922A9
:105E380090140A7478F07885E62409F582E434131E
:095E4800F583E090140BF07F02D9
:095E5100E4F5847881EFF6D285B6
:0D5E5A0075341475351300D535FCD534F6BC
:075E670090140AE0F59922F6
:105C3F00C9EFC9E964017028EDC39B4035787EE652
:105C4F00FFEB2FFFE433FEEDC39FEE6480F874800B
:105C5F0098501FD223C3ED9B788BF678877601225D
:105C6F00E9B40214ED6B700AD223788BF67887763D
:095C7F000222C223E47887F62218
:1057EF00C9EFC9BAFF15BBFF12ED6B7002EC6A70FF
:1057FF004AD223788BF67887E9F622E9640170257F
:10580F00C3ED9BEC9A401C787EE62BFFE43AFEC377
:10581F00ED9FEC9E500DD223C3ED9B788BF67887CE
:10582F007601228016E9B40218ED6B7002EC6A70F3
:10583F000AD223788BF67887760222C223E4788700
:02584F00F6223F
:1000A60090130AE0FF54F87832F2E4F584EF121464
:1000B6000900F70901040A01171001201101311284
:1000C600014819015E1A018320018C28023A29038E
:1000D6006B3303A63703DE3903F841040349040EE4
:1000E6004E0443500491610335700489980000045E
:1000F600C190130BE0FD788EE6FB7F0180279013FD
:100106000BE0FCA3E0FD788DE6FA08E6FB7F0180B4
:100116002BD223788776030204C190130BE0FD7877
:1001260090E6FB7F02125C3F0204C190130BE0FCD9
:10013600A3E0FD788FE6FA08E6FB7F021257EF028E
:1001460004C190130BE0FD788EE6FB7F01125C3F45
:100156002023030204C1801A90130BE0FCA3E0FDE8
:10016600788DE6FA08E6FB7F011257EF202303029B
:1001760004C190140A7478F07F010204BEE4F58489
:1001860075EF100204C1C2ACE47831F2D2857BFE71
:100196007A0079317F7F1250C87BFE7A0079317FF1
:1001A6001E1250C87BFE7A0079317F051250C8783E
:1001B60082E61250C1788DE61250C1788EE6125052
:1001C600C1788FE61250C17890E61250C17891E658
:1001D6001250C17892E61250C1E47833F27833E2D5
:1001E600FFC39410500F74932FF8E61250C1783362
:1001F600E204F280E8E47833F27833E2FFC394064F
:10020600501574F42FF582E43412F583E01250C1D0
:100216007833E204F280E27831E2FF7B007A0079FB
:04022600001250C8AA
:0D022A00752C0A752D1300D52DFCD52CF672
:1002370002032090130BE0FFC3788296400302036A
:1002470027EF75F020A4FF7800E2FB08E2FA08E246
:100257002FF9EA35F0FA783CEBF208EAF208E9F20E
:10026700C2ACE47831F2D2857BFE7A0079317F7FA8
:100277001250C87BFE7A0079317F0D1250C8783C46
:10028700E2FB08E2FA08E2F91211431250C1783C86
:10029700E2FB08E2FA08E2F99000011250BE783C4E
:1002A700E2FB08E2FA08E2F99000021250BE783C3D
:1002B700E2FB08E2FA08E2F99000031250BE783C2C
:1002C700E2FB08E2FA08E2F99000041250BEE47873
:1002D70033F27833E2FFC394085024783CE2FB08FA
:1002E700E2FA08E22405F9E43AFA7E00E92FF9EE8A
:1002F7003AFA1211431250C17833E204F280D378EC
:0C03070031E2FF7B007A0079001250C840
:0D031300752E0A752F1300D52FFCD52EF680
:10032000C285D2AC0204C190140A7478F0E4A3F040
:100330007F020204BE1261BB78091212F990140AFE
:10034000747CF07809E6A3F008E6A3F008E6A3F0D1
:1003500008E6A3F07C007D057B017A14790A12512E
:100360001F90140FEFF07F060204BE90130BE0FF06
:10037000B4010FA3E0FDA3E0788DCDF608EDF60201
:100380000489EFB4020A90130CE0788DF602048918
:1003900090130BE0B4030CA3E0FFA3E0788FCFF63B
:1003A00008EFF6020489E47833F27833E2FFC3946D
:1003B00010502490130BE0FEEFC39E501AE2FF246E
:1003C0000CF582E43413F583E0FE74932FF8EEF617
:1003D0007833E204F280D3E478A2F60204897A004A
:1003E0007B327D01788BE6FF1251AF90130BE0FD5D
:1003F000E4FF125ABD0204C190130BE024FF9202E5
:100400000204C190130BE024FF92010204C17A00A0
:100410007B327D017F001251AFE47833F27833E212
:10042000FF240BF582E43413F583E0FE74FC2FF512
:1004300082E43412F583EEF0E204F2E2B406DED296
:1004400028807E788BE6600778357402F2800D781C
:10045000352026057403F280037401F290140A74A7
:1004600079F07835E2A3F07C007D027B017A147983
:100470000A12511F90140CEFF07F03125E51783571
:10048000E26401703CD2278002D221788076F1802C
:10049000307A007B327D017F001251AF90140A74D4
:1004A00079F090130BE090140BF07C007D027B013F
:1004B0007A14790A12511F90140CEFF07F03125E28
:1004C000517832E264A0600302071B90130AE064D3
:1004D000A160030205DEA3E0C37882964003020513
:1004E000D37800E2FB08E2FA08E2F9E0FF75F020B9
:1004F000A4F58285F08312115C7835F2EF75F02057
:10050000A4FFE92FF9EA35F0FA90000412115C30EB
:10051000E23A90130BE0FF1200037835EFF29014EB
:100520000A747FF0A3EFF02402FDE433FC7B017A30
:1005300014790A12511F7835E2FE240CF582E43456
:1005400014F583EFF0EE2403FF02071890130BE07D
:10055000FF120003C2ACE47831F2D2857835E2D3E1
:10056000940640317BFE7A0079317F7F1250C87843
:1005700035E21250C1E47833F27835E2FF7833E2A5
:10058000C39F500A12508B7833E204F280EB783527
:10059000E204F280217835E224781250C1E4783305
:1005A000F27835E2FF7833E2C39F500A12508B781D
:1005B00033E204F280EB7831E2FF7B007A007900CD
:0305C0001250C80E
:0D05C30075300A75311300D531FCD530F6C6
:1005D00002070A90140A7478F07F0102071890133A
:1005E0000AE064A2600302071B7882E6FFA3E0FE34
:1005F000C39F4003020710A3E0FDC39F400302070F
:1006000010EE9D400302071090130BE07833F2E4E4
:10061000783AF208F290130CE0FE7833E2FFD39EB2
:10062000502E1200037800E2FB08E2FA08E2F978A3
:1006300033E275F020A4F58285F08312115CFF7817
:100640003BE22FF218E23400F27833E204F280C584
:10065000C2ACE47831F2D2857BFE7A0079317F7FBB
:100660001250C8783AE2FE08E2FFC39480EE94008C
:100670005002800D793AE344801250C1783A08E282
:10068000FF1250C290130BE07833F290130CE0FF8E
:100690007833E2D39F5059E408F27800E2FB08E295
:1006A000FA08E2F97833E2FF75F020A4F58285F0CC
:1006B0008312115CFE7834E2C39E502DEF75F0205A
:1006C000A4FF7800E2FB08E2FA08E22FF9EA35F02D
:1006D000FA90000D121380788BE6FF18E67834123A
:1006E00050B17834E204F280B17833E204F2809BB6
:0D06F0007831E2FF7B007A0079001250C8DB
:0D06FD0075320A75331300D533FCD532F683
:10070A00C285D2AC800B90140A7478F07F01125E15
:10071A00517832E264587054FA7B327D01788BE664
:10072A00FF1251AF78427401F2087414F208740B84
:10073A00F27B017A13790B1261617835EFF2E2FEEE
:10074A00247890140AF0EE2401FDE433FC7B017A4C
:10075A0014790A12511F7835E2FE240BF582E4342B
:10076A0014F583EFF0EE2402FF125E517832E2FFB5
:10077A0064806008EF648860030209987887E6B4A9
:10078A00010F7A007B327D01788BE6FF1251AF8030
:10079A001EE47833F27833E2FFC3787E9650107AFB
:1007AA00007B327D011251AF7833E204F280E69089
:1007BA00130AE05407FF7835F2BF070E187401F2E6
:1007CA00A3E008F2A3E008F2800BE47834F2901375
:1007DA000BE07836F27835E214F208E2FFC3788249
:1007EA009640030209837800E2FB08E2FA08E2F97C
:1007FA0075F020EFA4F58285F08312115CFF78353D
:10080A00E2D39F4002EFF27887E6B4010A788BE6DA
:10081A007839F218F2800BE47838F2787EE61479A7
:10082A0039F37838E2788BF67839E2FF788BE6D3B9
:10083A009F400302094EE47833F27835E2FF7833B9
:10084A00E2C39F40030209417836E275F020A4FF13
:10085A007800E2FB08E2FA08E22FF9EA35F0FA90AA
:10086A00000412115C30E2030209399000011211EE
:10087A005C6438704B7835E2D394047833E2FF40F5
:10088A001008E22F240CF582E43413F583E0FD808E
:10089A007F7885E6C39FFFE49400FE74082FF582F3
:1008AA0074133EF583E0FD7836E275F020A4FF78F4
:1008BA0000E2FB08E2FA08E22FF9EA35F0FA805082
:1008CA007800E2FB08E2FA08E2F97836E275F020ED
:1008DA00A4F58285F08312115CFF7885E6C39FFF39
:1008EA00E49400FE7833E27C002FFFEC3EFE08E23F
:1008FA002FFFEC3EFE74092FF58274133EF583E058
:10090A00FD7836E275F020A4FFE92FF9EA35F0FA0E
:10091A0090000D121380788BE6FF18E68FF0A4FF83
:10092A007833E22FF582E435F0F583ED12119B78E6
:10093A0033E204F20208447836E2FF125F5F788BF2
:10094A00060208327838E2788BF67836E275F020BB
:10095A00A4FF7800E2FB08E2FA08E22FF9EA35F090
:10096A00FA90000412115C30E5067836E27884F6D3
:10097A007832E26488701780127836E2B4FF0F90FA
:10098A00130CE0F5207832E2B48803125E3878322C
:10099A00E264A86003020B0B7887E6B4010F7A00C1
:1009AA007B327D01788BE6FF1251AF801EE47833EB
:1009BA00F27833E2FFC3787E9650107A007B327D5C
:1009CA00011251AF7833E204F280E690130BE03063
:1009DA00E714547FFEA3E0FDEE783AF2ED08F278D0
:1009EA00347403F2801190130BE0FF783AE4F208B2
:1009FA00EFF278347402F27834E2FF240AF582E4E2
:100A0A003413F583E0FE740B2FF582E43413F58377
:100A1A00E07837F218EEF27837E2FF18E2FED39F59
:100A2A004003020B08EEC37882964003020B00785B
:100A3A0000E2FB08E2FA08E2F975F020EEA4F5827A
:100A4A0085F08312115C7835F27887E6B4010A786A
:100A5A008BE67839F218F2800BE47838F2787EE681
:100A6A00147939F37838E2788BF67839E2FF788BA3
:100A7A00E6D39F5073E47833F27835E2FF7833E2B5
:100A8A00C39F50587836E275F020A4FF7800E2FB45
:100A9A0008E2FA08E22FF9EA35F0FA900004121196
:100AAA005C20E2317833E2FF08E22F240CF582E47D
:100ABA003413F583E0FD90000D121380788BE6FF66
:100ACA0018E68FF0A4FF7833E22FF582E435F0F5CB
:100ADA0083ED12119B7833E204F2809D7836E2FFAF
:100AEA00125F5F788B0680827838E2788BF67835E9
:100AFA00E2FF18E22FF27836E204F2020A21125ECD
:010B0A0038B2
:010B0B0022C7
:0958510090001D121230FFAEF0B0
:10585A00784DEEF208EFF29012FAE06E7003A3E0D0
:10586A006F60459012EA740AF0784DE2FC08E2FD96
:10587A00ECA3F0EDA3F07C007D037B017A1279EAB8
:10588A0012511F9012EDEFF07B017A1279EA7854E7
:10589A007401F27D047C00124C42784DE2FF08E26A
:0958AA009012FACFF0A3EFF022F6
:0659BF00CDEFCDCCEECCD3
:1059C5009012EA741AF0ECA3F0EFA3F07C007D03CB
:1059D5007B017A1279EA12511F9012EDEFF07B01EB
:1059E5007A1279EA78547401F27D047C00124C42F3
:1059F5007B017A1279EA7D0A7C001248FDEF70027C
:0F5A0500FF229012EAE0647860037F00227F01A5
:015A1400226F
:105ED4007A007B327D017F011251AF74FF9012FA78
:105EE400F0A3F07F0A9012EAE4F0A3DFFC7B017ACE
:0F5EF4001279EA78547401F27D0A7C00024C4264
:103B7700E47845F27845E2FFC37882964003023C39
:103B8700CEEF75F020A4FF7800E2FB08E2FA08E226
:103B97002FF9EA35F0FA90000412115C20E40302D1
:103BA7003CC61258519012EA74A1F07845E275F0BC
:103BB70020A4FF7800E2FB08E2FA08E22FF9EA35D1
:103BC700F0FA90001F12115C9012EBF07C007D025E
:103BD7007B017A1279EA12511F9012ECEFF07B0108
:103BE7007A1279EAE47854F27D03FC124C427B01A5
:103BF7007A1279EA7D647C001248FD7846EFF2C3B9
:103C07009402500280577846E22476FF9012EAE049
:103C17006F600280487800E2FB08E2FA08E2F97870
:103C270045E2FF75F020A4F58285F08312115CFE52
:103C37007846E224FE6E600280267846E224FFFD85
:103C4700E434FFFC7B017A1279EA12511F7846E2CD
:103C570024E9F582E43412F583E06F600818E2FF87
:103C6700125ED4805AC2AF7800E2FB08E2FA08E29B
:103C7700F97845E2FF75F020A4F58285F0831211EB
:103C87005CFD7C00ECC0E0EDC0E0EF75F020A4FF28
:103C97007800E2FB08E2FA08E22FF9EA35F0FA9039
:103CA700000D121380C8E9C8CCEACCCDEBCD7B015F
:103CB7007A1279EBD0E0FFD0E0FE12111DD2AF7877
:073CC70045E204F2023B7B21
:013CCE0022D3
:044CEA00784BEFF222
:104CEE00E275F020A4FF7800E2FB08E2FA08E22F5A
:104CFE00F9EA35F0FA1258517800E2FB08E2FA08A8
:104D0E00E2F9784BE2FF75F020A4F58285F083126C
:104D1E00115C784CF224819012EAF0EF75F020A429
:104D2E00FFE92FF9EA35F0FA90001F12115C90128C
:104D3E00EBF0784CE2FF7E0090000D12138078ECC1
:104D4E007C127D0112111D784CE22402FDE433FC2D
:104D5E007B017A1279EA12511F784CE2FE24ECF5AF
:104D6E0082E43412F583EFF07B017A1279EAEE24B5
:0C4D7E0003FDE433FCE47854F2024C42E4
:105C88001261A8C8ECC8C9EDC9CAEECACBEFCB905F
:105C98001302E0FCA3E0FDA3E0FEA3E0240AFFE476
:105CA8003EFEE43DFDE43CFCD31212C4400C123B22
:105CB800771261A89013021213057884E6FFF46046
:095CC80007124CEA788476FF22F1
:10F000007880E664F1600302F657E47813F608F6B8
:05F010007881E6601E9E
:0DF0150075360A75371300D537FCD536F671
:10F02200781406E6187001067813B627E108B610C0
:10F03200DDC2AF7584015398FC75FFDE75FFADE448
:10F04200780FF618F6E4F584209830E47813F60881
:10F05200F6209823C37814E6948818E69413501780
:0DF0620075380A75391300D539FCD538F61C
:10F06F00781406E61870DD0680DAB2A680CD780E29
:10F07F00A699C298E6FF641A600302F1597813F655
:10F08F0008F6209823C37814E6948818E694135052
:01F09F001759
:0DF0A000753A0A753B1300D53BFCD53AF6D6
:10F0AD00781406E61870DD0680DA30988D780FA694
:10F0BD0099C298E47813F608F6209823C37814E6DD
:08F0CD00948818E69413501713
:0DF0D500753C0A753D1300D53DFCD53CF699
:10F0E200781406E61870DD0680DA20980302F047ED
:10F0F200780FA699C298E47813F608F6209823C3ED
:0BF102007814E6948818E69413501768
:0DF10D00753E0A753F1300D53FFCD53EF658
:10F11A00781406E61870DD0680DA20980302F047B4
:0AF12A00780FA699C298D285C29909
:0DF1340075401475411300D541FCD540F61F
:06F141007599783099FD7C
:0DF1470075420A75431300D543FCD542F60E
:10F15400C28502F648EF6450600302F1EB7813F6BF
:10F1640008F6209823C37814E6948818E69413507C
:01F174001783
:0DF1750075440A75451300D545FCD544F6D8
:10F18200781406E61870DD0680DA20980302F0474C
:0AF19200780FA699C298D285C299A1
:0DF19C0075461475471300D547FCD546F69F
:08F1A9007599793099FDC299B6
:0DF1B10075481475491300D549FCD548F682
:08F1BE007599013099FDC29919
:0DF1C600754A14754B1300D54BFCD54AF665
:06F1D300E4F5993099FDFE
:0DF1D900754C0A754D1300D54DFCD54CF654
:10F1E600C28502F648780EE6FF6401703ED285C2FB
:01F1F600997F
:0DF1F700754E14754F1300D54FFCD54EF624
:08F204007599783099FDC2995B
:0DF20C0075501475511300D551FCD550F606
:06F21900E4F5993099FDB7
:0DF21F0075520A75531300D553FCD552F6F5
:10F22C00C28502F648EF6402600302F2FB7813F623
:10F23C0008F6209823C37814E6948818E6941350A3
:01F24C0017AA
:0DF24D0075540A75551300D555FCD554F6BF
:10F25A00781406E61870DD0680DA20980302F04773
:10F26A00780FA699C298E408F618E6FF13B392A697
:10F27A00EF25E0FEC3E49400EE94F0502DE6FD7F06
:10F28A000025E0FEC394E05021ED20E024E4F5845B
:10F29A0043B701758F037815EEF608EFF6F5828EFF
:10F2AA0083E4F053B7F0F58F8004781076FFE4F525
:05F2BA0084D285C29919
:0DF2BF0075561475571300D557FCD556F63B
:08F2CC007599783099FDC29993
:0DF2D40075581475591300D559FCD558F61E
:08F2E1007810E6F5993099FD63
:0DF2E900755A0A755B1300D55BFCD55AF60B
:10F2F600C28502F648780EE66403600302F4567887
:10F3060013F608F6209823C37814E6948818E69432
:03F316001350177A
:0DF31900755C0A755D1300D55DFCD55CF6D2
:10F32600781406E61870DD0680DA20980302F047A6
:10F33600780FA699C298E47813F608F6209823C3A6
:0BF346007814E6948818E69413501722
:0DF35100755E0A755F1300D55FFCD55EF692
:10F35E00781406E61870DD0680DA20980302F0476E
:10F36E007811A699C298780FE6FF1392A6EF25E0C2
:10F37E00FEC3E49400EE94F0400302F047E67D00F5
:10F38E0025E0FCC394E0400302F047E4F58443B764
:10F39E0001758F017811E675F020A42DFFE5F03C84
:10F3AE007815F608EFF6E4F5847812F67812E6C3CF
:10F3BE009420504CE408F608F6209823C37814E6FF
:08F3CE00948818E6941350170F
:0DF3D60075600A75611300D561FCD560F605
:10F3E300781406E61870DD0680DA20980302F047E9
:10F3F30078150806E618CEE6CE70010614F5828E5F
:10F4030083E599F0C29878120680ACE4F58453B78B
:09F41300F0F58FF584D285C29951
:0DF41C0075621475631300D563FCD562F6AC
:08F429007599783099FDC29934
:0DF4310075641475651300D565FCD564F68F
:06F43E00E4F5993099FD90
:0DF4440075660A75671300D567FCD566F67E
:10F45100C28502F648780EE6FD6404600302F513E6
:10F461007813F608F6209823C37814E6948818E6F2
:04F471009413501789
:0DF4750075680A75691300D569FCD568F645
:10F48200781406E61870DD0680DA20980302F04749
:10F49200780FA699C298E625E07817F608E4F67880
:10F4A20010F67813F608F678170806E618CEE6CEB8
:10F4B20070010614F5828E83E493781026F6781490
:10F4C20006E6187001067814E6700418E664027005
:05F4D200D6D285C299AD
:0DF4D700756A14756B1300D56BFCD56AF6D1
:08F4E4007599783099FDC29979
:0DF4EC00756C14756D1300D56DFCD56CF6B4
:08F4F9007810E6F5993099FD49
:0DF50100756E0A756F1300D56FFCD56EF6A0
:10F50E00C28502F648ED6405600302F63C7813F6F8
:10F51E0008F6209823C37814E6948818E6941350BE
:01F52E0017C5
:0DF52F0075700A75711300D571FCD570F66A
:10F53C00781406E61870DD0680DA20980302F0478E
:10F54C00780FA699C298E47813F608F6209823C38E
:0BF55C007814E6948818E6941350170A
:0DF5670075720A75731300D573FCD572F62A
:10F57400781406E61870DD0680DA20980302F04756
:0AF584007811A699C298D285C299A9
:0DF58E0075741475751300D575FCD574F6F1
:08F59B0075997F3099FDC299BA
:0DF5A30075761475771300D577FCD576F6D4
:10F5B0007599203099FD780FE625E0FC7811E67505
:10F5C000F020A42400FFE5F03C7817F608EFF6E4FD
:08F5D0007810F67812F6C299DA
:0DF5D80075781475791300D579FCD578F697
:10F5E5007817E6FE08E6F5828E83E493F59930995F
:10F5F500FD78170806E618CEE6CE70010614F582EA
:10F605008E83E493781026F6781206E6B420C2C2FB
:01F61500995B
:0DF61600757A14757B1300D57BFCD57AF650
:08F623007810E6F5993099FD1D
:0DF62B00757C0A757D1300D57DFCD57CF63D
:10F63800C285800C780EE6B40606E4F58475EF10F2
:0FF64800780EE66407600302F0477880F6D2AFD1
:01F657002290
:10472F007F00125F8C20220B7A007B327D017F008D
:10473F001251AF30250B7A007B1E7D017F00125185
:10474F00AF3021173026147A007B327D01788BE64B
:10475F00FF1251AFC221124AA8D22220240C3026B8
:10476F0009788076F1124AA8D22430272F30262CD0
:10477F00C22712621CE4FDFCFFFE125CD17BFF7AA4
:10478F005F79E2125FB87D017C00E4FFFE125CD11D
:10479F007BFF7A5F79F0125FB812F00030280B7B45
:1047AF00017A1279FC125466C2281261A8C8ECC8AB
:1047BF00C9EDC9CAEECACBEFCB9013061212E1EFC7
:1047CF00245AFFE43EFEE43DFDE43CFCD31212C448
:1047DF00500F1261A89013061212EDD31212C4409B
:1047EF00121261A89013061213057B017A1279F445
:1047FF001246412026121261A8E47B2C7A01F9F8A7
:09480F00C31212C45002D2262289
:0E62020012283E12472F125C8812243F80F5AE
:1040BA004D656D6F727920746573742E2E2E004DC6
:1040CA00656D6F7279206572726F722062616E6BB4
:1040DA002025626400005EBCE2613FDD83C29C7EF3
:1040EA0020A3FD1F419DC3217FFCA2401E5F01E367
:1040FA00BD3E6082DC237D9FC1421CFEA0E1BF5D04
:10410A000380DE3C62BEE0025CDF81633D7C22C04C
:10411A009E1D43A1FF4618FAA427799BC584DA3865
:10412A0066E5BB5907DB856739BAE406581947A51E
:10413A00FB7826C49A653BD987045AB8E6A7F91BC7
:10414A0045C6987A24F8A6441A99C7257B3A648604
:10415A00D85B05E7B98CD2306EEDB3510F4E10F231
:10416A00AC2F7193CD114FADF3702ECC92D38D6FCE
:10417A0031B2EC0E50AFF1134DCE90722C6D33D19B
:10418A008F0C52B0EE326C8ED0530DEFB1F0AE4CB4
:10419A001291CF2D73CA947628ABF517490856B4F5
:1041AA00EA6937D58B5709EBB536688AD495CB2996
:1041BA0077F4AA4816E9B7550B88D6346A2B75974F
:1041CA00C94A14F6A8742AC896154BA9F7B6E80A7C
:1041DA0054D7896B35000000002B6096CBDDEE00CA
:0941EA002C96CBDDE5EEF7FAFDA1
:05594500C1AA011A0ACD
:10619100780312134EFFFFFFFF7803E2FC08E2FDD4
:0661A10008E2FE08E2FF27
:0161A70022D5
:10511F0015081508A808ECF208EDF2150815081582
:10512F0008A808EBF208EAF208E9F2E50824FCF512
:01513F000867
:10514000F80808E4F2A808F208F2E5082407F8E2F3
:10515000FE08E2FFA808E2FC08E2FDC39FEE6480BF
:10516000F8EC648098503BE5082404F8E2FB08E280
:10517000FA08E2F98D828C8312115CFFA8080808F6
:10518000E26FFFE5082403F8EFF2E29040DF93A816
:10519000080808F2A80808E22401F218E23400F234
:0851A00080A8A8080808E2FF3E
:0751A800E5082409F50822C7
:0B621000ED6F780DF6E69040DF93FF85
:01621B002260
:0300A300025A15E9
:105A1500C0E0C083C082C0D0E8C0E0EEC0E0EFC007
:105A2500E0E59830E1055398FDD22AE59830E02469
:105A35007819E62401FFE433FEEF64404E700280DE
:105A4500107819E6062453F582E43414F583E599B4
:105A5500F05398FED0E0FFD0E0FED0E0F8D0D0D0F3
:065A650082D083D0E03284
:104C4200784FEBF208EAF208E9F208ECF208EDF22A
:104C5200E47819F6758401D2847854E224FF929B99
:104C6200E4780EF6780EE6FFD37853E29F7480F56F
:0B4C7200F018E2648095F04067C22A51
:0D4C7D0075361475371300D537FCD536F6A3
:104C8A007853E224FFFF18E234FFFE780EE66F70D5
:104C9A0001EE7021C2AC784FE2FB0808E2F9240168
:104CAA00F218E2FA3400F2121143F599302AFDC2E1
:104CBA0084D2AC8019784FE2FB0808E2F92401F2A9
:104CCA0018E2FA3400F2121143F599302AFD7F01F5
:0F4CDA00125F8C780E068084C284785208E2FF45
:014CE90022A8
:1048FD007847EBF208EAF208E9F208ECF208EDF27B
:10490D001261A8780F1212F9E4780EF61261A8EC74
:10491D00C0E0EDC0E0EEC0E0EFC0E0780F1212D5C0
:10492D00CBEFCBCAEECAC9EDC9C8ECC8D0E0FFD0F9
:10493D00E0FED0E0FDD0E0FCC3EF9BFFEE9AFEED74
:10494D0099FDEC98FCE47B01FAF9F8C31212C450FE
:10495D00037F00227819E6FED39400406390145330
:10496D00E0FDB478037F0122ED54F8647860037F95
:10497D000022901453E054072402780EF66E704016
:10498D007819E6FFC3784BE29F7480F5F018E26466
:10499D008095F05007E2FE08E2FF80067819E6FFE9
:1049AD007E007847E2FB08E2FA08E2F8CCEACCCDCB
:1049BD00EBCD7B017A14795312111D780EE6FF228F
:0849CD007F01125F8C02491901
:07623A00E47819F6D22A22D4
:105ABD00EF7025F5847598D0F584759115F584757D
:105ACD00C90875CBFFED9041DE93F5CA75C804E4A6
:105ADD00F584D2ACC2BC80267584017598D0E4F5EE
:105AED0084E589540F4420F589758E02ED9041E8C7
:105AFD0093F58DD28E43E74043F74012623AD2AF11
:015B0D002275
:1056470090149312131D0000000090149712131D5D
:105657000000000090144A7464F0E4780EF6780EA7
:10566700E6FFC394025043EF25E025E0244BF58283
:10567700E43414F583E4F0EF25E025E0244CF582CB
:10568700E43414F583E4F0EF25E025E0244DF582BA
:10569700E43414F583E4F0EF25E025E0244EF582A9
:0A56A700E43414F583E4F00680B447
:0156B10022D6
:10604900D2AFD2A9C2BBE4F584E589540F4401F566
:0F60590089758E02758CAFE4F58AD28C0256479A
:02454D0015084F
:10454F00A808E4F2A808E2FFC39402400302463E23
:10455F00EF25E025E0244EF582E43414F583E0FFE7
:10456F00D394005003024611E225E025E0244CF5D8
:10457F0082E43414F583E06003024611EF30E01952
:10458F00E2FF25E025E0244EF582E43414F583E0C4
:10459F00D3940140047D0080067D01A808E2FF123C
:1045AF0055D8A808E2FF25E025E0244EF582E43433
:1045BF0014F583E0B401057D011255D8A808E2FF78
:1045CF0025E025E0244EF582E43414F583E014F061
:1045DF00EF25E025E0244EF582E43414F583E06006
:1045EF0021E2FF25E025E0244DF582E43414F58324
:1045FF00E0FEEF25E025E0244CF582E43414F5834A
:10460F00EEF0A808E2FF25E025E0244CF582E43423
:10461F0014F583E06011EF25E025E0244CF582E4EA
:0F462F003414F583E014F0A808E204F2024553B6
:03463E000508224A
:03000B00024E267C
:104E2600C0E0C0F0C083C082C0D0E8C0E0E9C0E006
:104E3600EAC0E0EBC0E0ECC0E0EDC0E0EEC0E0EFC1
:104E4600C0E0758CAF901493E0FCA3E0FDA3E0FEF8
:104E5600A3E02401FFE43EFEE43DFDE43CFC9014A7
:104E66009312130590144AE014F0E07025901497FD
:104E7600E0FCA3E0FDA3E0FEA3E02401FFE43EFE88
:104E8600E43DFDE43CFC90149712130590144A741B
:104E960064F012454D126006D0E0FFD0E0FED0E08F
:104EA600FDD0E0FCD0E0FBD0E0FAD0E0F9D0E0F8AD
:0B4EB600D0D0D082D083D0F0D0E0320A
:105F03001508A808EDF21508A808EFF2E2FFC394FC
:105F130002501608E2FDEF25E025E0244BF582E46C
:0E5F23003414F583EDF01255D8050805082258
:1051AF0015081508A808EAF208EBF21508A808ED8B
:1051BF00F21508A808EFF2E2FFC39402506AEF2538
:1051CF00E025E0244EF582E43414F583E07059E2D3
:1051DF00FB25E025E0244CF582E43414F583E070E0
:1051EF004708E225E004FFA808E2FA25E025E024BD
:1051FF004EF582E43414F583EFF00808E2FE08E27E
:10520F00FF7C007D0A1211CFEA25E025E0244DF541
:10521F0082E43414F583EFF0EB25E025E0244CF520
:0F522F0082E43414F583E4F0E5082404F5082242
:0E55D8001508A808EDF21508A808EFF215084E
:1055E600A80808E2FFC394025024EF25E025E02432
:1055F6004BF582E43414F583E06013A8080808E24A
:1056060070047F0180027F00A8080808EFF2A8084E
:10561600E584F275840FA80808E2FF700BA8080855
:1056260008E224FF92A6800DEFB40109A808080835
:0A563600E224FF92A7A808E2F58421
:07564000050805080508221A
:1061A800C2AF901493E0FCA3E0FDA3E0FEA3E0FFE0
:0261B800D2AF64
:0161BA0022C2
:1061BB00C2AF901497E0FCA3E0FDA3E0FEA3E0FFC9
:0261CB00D2AF51
:0161CD0022AF
:105F8C001508A808EFF2A808E27005781BF608F6C9
:105F9C00302916781AE675F064A4FFC3781CE69FC6
:0C5FAC0018E695F0500375FFA5050822CB
:10606800D229E4781BF608F6EF781A6003F6800266
:0F607800760A75FF0775FFA5E4F58475EF04221E
:1061CE00C229E4781BF608F6781A76FF75FFDE759D
:0361DE00FFAD22F0
:10600600781C06E618700106302916781AE675F02F
:1060160064A4FFC3781CE69F18E695F0500375FF4D
:02602600A522B1
:075E01007807EEF208EFF252
:105E0800E408F208F27807E2FE08E2FFC3780AE243
:105E18009F18E29E50197FE87E031257887F01126F
:0F5E28005F8C780AE22401F218E23400F280D68F
:015E37002248
:07578800786DEEF208EFF26C
:10578F00786DE2FE08E2FFD394FAEE9400500EEF2C
:10579F00D39400404A7E1600DEFD1F80F2786DE242
:1057AF00FF08E208CFF208EFF2D37870E294FA180C
:1057BF00E2940040147FFA7E001257887870E2243A
:1057CF0006F218E234FFF280E0D3786EE29400180C
:0F57DF00E29400400A786FE2FE08E2FF1257885A
:0157EE002298
:10523E00785674FEF2087400F2087450F27BFE7A0F
:05524E0000794E7D0215
:0D5253007852EBF208EAF208E9F208EDF2F9
:105260007F01125F8C7856E2FB08E2FA08E2F9123D
:1052700012052400FFE5F034E0FE7852E2F908E27E
:10528000FA08E27859C9F208EAF208E9F2E4FD788E
:1052900055E2FCEDC39C5021EF2DF582E43EF583F1
:1052A000E493FC7859E2FB08E2FA08E2F98D827592
:1052B0008300EC12119B0D80D67855E2FF08E2FBCB
:0C52C00008E2FA08E2F9E48FF00212683C
:1049D50078477412F2087434F2784F74FEF2087452
:0E49E50000F2087449F27BFE7A0079477D02E9
:0D49F300784BEBF208EAF208E9F208EDF269
:104A00007880E664F16003024AA71261CEC2AFE487
:104A1000F58443B701758F01784FE2FB08E2FA088D
:104A2000E2F91212052400FFE5F034E0780EF608F2
:104A3000EFF6784BE2FB08E2FA08E27812C6EBC622
:104A400008C6EAC608F6E47810F6784EE2FF781059
:104A5000E6C39F50327812CBE6CB080806E618CAA8
:104A6000E6CA70010614F91211437811F6E6FF78D0
:104A70000E0806E618CCE6CC70010614F5828C838D
:104A8000EFF078100680C3E4F58F53B7F0784EE26C
:104A9000FF08E2FB08E2FA08E2F9E48FF01212687C
:074AA000D2AFE4FF126068D1
:014AA70022EC
:105B0E007880E664F17046C2AF1261CEE4F584434C
:105B1E00B701758F03780F76E008F6780EF6780FDA
:105B2E00E6FE08E6F5828E83E4F07F01125F8C7844
:105B3E0010E426F618740236F61806E6C3940840EA
:0D5B4E00DDE4F58F53B7F0D2AFFF126068B1
:015B5B002227
:104AA800125B0EE47849F208F2784F74FEF208744B
:104AB80000F2087449F27B007A00798D7D1612495C
:104AC800F31249D5E47846F27846E2C3787E9640F8
:104AD80003024B73E47845F27800E2FB08E2FA0837
:104AE800E2F97845E2FF75F020A4F58285F083129B
:104AF800115C606FEF75F020A4FF7800E2FB08E21C
:104B0800FA08E22FF9EA35F0FA90000D12138078CE
:104B180046E2FF788AE68FF0A429F9EA35F0FAEB45
:104B2800C0E0EAC0E0E9C0E07800E2FB08E2FA0889
:104B3800E2F97845E275F020A4F58285F083121138
:104B48005CFD784F74FEF2087400F2087449F2D0E4
:104B5800E0F9D0E0FAD0E0FB1249F37845E204F23C
:104B6800024AE07846E204F2024AD01249D5E478D3
:024B780080F6C5
:014B7A002218
:0441F300784AEFF225
:1041F700E47850F208F2784DF2785674FEF20874BB
:1042070000F2087450F27B007A00798D7D16125205
:104217005312523E784FE26434700418E26412700D
:1042270006784DE24401F2E4784CF2784CE2C37828
:104237007E964003024303E4784BF27800E2FB08E2
:10424700E2FA08E2F9784BE2FF75F020A4F58285DF
:10425700F08312115C70030242FB784AE26069EF57
:1042670075F020A4FF7800E2FB08E2FA08E22FF9D4
:10427700EA35F0FA90000D121380784CE2FF788A45
:10428700E68FF0A429F9EA35F0FAEBC0E0EAC0E0DE
:10429700E9C0E07800E2FB08E2FA08E2F9784BE2CD
:1042A70075F020A4F58285F08312115CFD785674B1
:1042B700FEF2087400F2087450F2D0E0F9D0E0FA88
:1042C700D0E0FB12525380247800E2FB08E2FA08A0
:1042D700E2F9784BE275F020A4F58285F08312119C
:1042E7005CFF7851E22FF218E23400F2784BE204D7
:1042F700F2024242784CE204F202423212523E7813
:104307004FE26434700418E264127006784DE24498
:0643170002F2784DE2FF06
:01431D00227D
:1060A500EF54077810F6EF30E306E64420F6800457
:0C60B5007810E6F67810E644C0F6F5C856
:0160C10022BC
:0436F700784AEFF22C
:1036FB0012621C7D017C007F027E00125CD17BFF7D
:10370B007A4079BA121BF4E4780FF61261CEC2AF8D
:10371B00E4780EF6784AE2FE780EE6FFC39E40038D
:10372B000238771260A5780EE6FF7E007D037C00E1
:10373B00125CD17FDA1258B3902000AF82AE83C3F4
:10374B00EF94FFEE94FF5005E4F0A380EE90200081
:10375B00AF82AE83C3EF94FFEE94FF500CE0600694
:10376B00780F76018003A380E7780FE660030238B9
:10377B0077780EE6FF7E007D037C00125CD17FD94B
:10378B001258B3902000AF82AE83C3EF94FFEE9438
:10379B00FF50067455F0A380ED902000AF82AE83EE
:1037AB00C3EF94FFEE94FF500EE064556006780F64
:1037BB0076018003A380E5780FE660030238777803
:1037CB000EE6FF7E007D037C00125CD17FD8125881
:1037DB00B3902000AF82AE83C3EF94FFEE94FF5003
:1037EB000674AAF0A380ED902000AF82AE83C3EFE6
:1037FB0094FFEE94FF500EE064AA6006780F7601FA
:10380B008003A380E5780FE67062780EE6FF7E00FA
:10381B007D037C00125CD17FD71258B3902000AF90
:10382B0082AE83C3EF94FFEE94FF500674FFF0A3B8
:10383B0080ED902000AF82AE83C3EF94FFEE94FF38
:10384B00500DE0F46006780F76018003A380E678D4
:10385B000FE67018780EE6FF7E007D037C00125C8D
:10386B00D17FD61258B3780E0602371FD2AFE4FFC2
:10387B001260681260A5780FE6601F7D027C00E481
:10388B00FE125CD17BFF7A4079C9780EE6784FF255
:0A389B00121BF47F00125F8C80F90D
:0138A5002200
:1056B200E4F58475A338F5A275A10475840F759C71
:1056C200FF759DFF759EFF759FFF75F8FF75E8FFDB
:1056D20075D8FF75C8FFFF1260A5902000E0780E14
:1056E200F67455F0E064556008E6F0E4F584F5A33D
:1056F20022780EE6F07F081260A5E0780EF674AA12
:10570200F0E0B4AA0AE6F0E4FF1260A57F10227866
:0A5712000EE6F0E4FF1260A57F0828
:01571C00226A
:0300A0002020001D
:0E5D16007845E2FB08E2FA08E2F912115CFFA0
:045D2400784EEFF2D4
:105D2800E47812F6784EE21392937F0A7E001257B7
:105D380088D2947F0A7E00125788C294784EE2C3B4
:0B5D480013F2781206E6C3940840D95D
:015D5300222D
:0454E800780BEFF25C
:1054EC00C294E4F58475D2FF75D30F7F0AFE125770
:1054FC008875840F43A504780BE2FF125D24758434
:10550C000F53A5FBD2937F0A7E00125788E4781EB6
:10551C00F618F6781F7601309307781EE6791F4748
:10552C00F6D2947F0A7E00125788C2947F0A7E00BE
:10553C00125788781FE625E0F6781D06E6C3940816
:10554C0040D5E4F584F5D2F5D37F0AFE125788785E
:03555C001EE6FF49
:01555F002229
:0A4641007845EBF208EAF208E9F20E
:10464B00C294E4F58475D2FF75D30F7F0AFE12571F
:10465B008875840F43A5047FBF125D2475840F53A7
:10466B00A5FBD2937F0A7E00125788E4780FF6E4FD
:10467B007810F6780EF6781176013093077810E6FD
:10468B00791147F6D2947F0A7E00125788C2947F25
:10469B000A7E001257887811E625E0F6780E06E6BA
:1046AB00C3940840D5780FE6FFC39403501E08E669
:1046BB00FEEFFDC374059DFDE49400FC7845E2FB21
:1046CB0008E2FA08E2F98D828C838022780FE6FFEC
:1046DB00C39405501C08E6FEEF7C0024FDF582EC2C
:1046EB0034FFF5837845E2FB08E2FA08E2F9EE8045
:1046FB0017780FE6B4061408E6FF7845E2FB08E2EC
:10470B00FA08E2F9900002EF12119B780F06E6C34C
:10471B009407500302467AE4F584F5D2F5D37F0A69
:04472B00FE025788AB
:105DC800784CEFF208EDF2C294E4F58475D2FF75D1
:105DD800D30F7F0AFE12578875840F43A504784CA9
:105DE800E2FF125D24784DE2FF125D24E4F584F5AC
:095DF800D2F5D37F0AFE025788A0
:105466007845EBF208EAF208E9F2C2947F0A7E0078
:1054760012578875840F43A5047FBE125D249000E1
:1054860005125D16900004125D167845E2FB08E2EF
:10549600FA08E2F9900003125D207845E2FB08E283
:1054A600FA08E2F9121143FF125D247845E2FB087F
:1054B600E2FA08E2F9900001125D207F01125D24F4
:1054C6007845E2FB08E2FA08E2F9900002125D2054
:1054D600E4FF125D24E4F584F5D2F5D37F0AFE02DB
:0254E6005788E5
:105BF500780CEDF2EF14601814601D146022146027
:105C05002714602C24057031780CE2FD7F868026F0
:105C1500780CE2FD7F88801E780CE2FD7F8C801673
:105C2500780CE2FD7F84800E780CE2FD7F82800691
:0A5C3500780CE2FD7F80125DC822AA
:103CCF00780DEBF208EAF208E9F2780DE2FB08E270
:103CDF00FA08E2F9121143FFF4705008E2FB08E210
:103CEF00FA08E2F9900007743F12119B90000674D6
:103CFF003F12119B900004743F12119B90000374AC
:103D0F003F12119B900001743F12119B743F1211CF
:103D1F00897810E2FB08E2FA08E2F9900005742DA9
:103D2F0012119B900002742D023E18EFC4540F2401
:103D3F0030FF7810E2FB08E2FA08E2F9EF1211897E
:103D4F00780DE2FB08E2FA08E2F9121143540F244E
:103D5F0030FF08E2FB08E2FA08E2F9900001EF12E7
:103D6F00119B900002742D12119B780DE2FB08E25B
:103D7F00FA08E2F990000112115CC4540F2430FFCD
:103D8F007810E2FB08E2FA08E2F9900003EF121153
:103D9F009B780DE2FB08E2FA08E2F990000112119C
:103DAF005C540F2430FF7810E2FB08E2FA08E2F9C6
:103DBF00900004EF12119B900005742D12119B7847
:103DCF000DE2FB08E2FA08E2F990000212115CC45E
:103DDF00540F2430FF7810E2FB08E2FA08E2F99062
:103DEF000006EF12119B780DE2FB08E2FA08E2F9E8
:103DFF0090000212115C540F2430FF7810E2FB0880
:103E0F00E2FA08E2F9900007EF12119B900008E424
:043E1F0012119B22BF
:103A11007813EBF208EAF208E9F27813E2FB08E224
:103A2100FA08E2F9121143F4705008E2FB08E2FAD5
:103A310008E2F9900007743F12119B900006743F51
:103A410012119B900004743F12119B900003743F6C
:103A510012119B900001743F12119B743F12118946
:103A61007816E2FB08E2FA08E2F9900005743A12CE
:103A7100119B900002743A023B6C7813E2FB08E25E
:103A8100FA08E2F990000312115CC4540F2430FFCC
:103A91007816E2FB08E2FA08E2F9EF1211897813CD
:103AA100E2FB08E2FA08E2F990000312115C540FFC
:103AB1002430FF7816E2FB08E2FA08E2F9900001EF
:103AC100EF12119B900002743A12119B7813E2FBE2
:103AD10008E2FA08E2F990000412115CC4540F24C0
:103AE10030FF7816E2FB08E2FA08E2F9900003EFF2
:103AF10012119B7813E2FB08E2FA08E2F990000444
:103B010012115C540F2430FF7816E2FB08E2FA0828
:103B1100E2F9900004EF12119B900005743A121122
:103B21009B7813E2FB08E2FA08E2F9900005121112
:103B31005CC4540F2430FF7816E2FB08E2FA08E275
:103B4100F9900006EF12119B7813E2FB08E2FA08E4
:103B5100E2F990000512115C540F2430FF7816E24F
:103B6100FB08E2FA08E2F9900007EF12119B9000BE
:063B710008E412119B2282
:105967007B017A1479B31246419014B3E0F460478F
:1059770078107401F2087414F20874B9F27B017A92
:105987001479B3123CCF7B017A1479B9125FB87BD3
:10599700FF7A0079A0125FB878167401F2087414C0
:1059A700F20874B9F27B017A1479B3123A117B01C8
:0759B7007A1479B9125FB800
:0159BE0022C6
:1061E100E4FF1254E8787FEFF6F460047F01800247
:0261F1007F002D
:0161F3002289
:09623100D292E4FD7F8E025DC8EB
:03000000024FF5B7
:104FF50075840075EF027864D8FE787FE4F6D8FDF5
:065005007581A202504675
:073F7200781AEDF208EBF2F2
:103F79007B08E4FD126241E49014E6F0781AE2FF4E
:103F89005408D394004003D38001C392B3000000C6
:103F99000000000000000000000000000000000018
:103FA90000D2B00000000000000000000000000086
:103FB90000000000000000C2B0EF25E0781AF2907E
:103FC90014E6E004F0E0B404B3E49014E6F0781BDE
:103FD900E2FF5408D394004003D38001C392B30095
:103FE90000000000000000000000000000000000C8
:103FF900000000D2B0000000000000000000000036
:10400900000000000000000000C2B0EF25E0781BAE
:10401900F29014E6E004F0E0B404B3E49014E6F09E
:10402900781FE275F008A4FF9014E6E0FDC39FE550
:10403900F06480F87480985061ED94004010E05469
:1040490007700B781EE22401F218E23400F2C2B0C4
:104059000000000000000000000000000000000057
:1040690000000000781CE2FB08E2FA08E2F91211EC
:104079004325E0FFA2B4E4334F121189D2B0000006
:104089000000000000000000000000000000000027
:1040990000009014E6E004F08086D2B2000000002F
:1040A9000000000000000000000000000000000007
:0140B90022E4
:06481800784BE2FFE4FB17
:07481E00784CEDF208EBF20B
:10482500D2B20000000000000000000000000000FF
:10483500000000000000C2B20000000000000000FF
:104845000000000000000000000000007B08E4FDFF
:10485500126241E49014D0F0784CE2FF5408D394EE
:10486500004003D38001C392B300000000000000A4
:1048750000000000000000000000000000D2B000B1
:104885000000000000000000000000000000000023
:10489500000000C2B0EF25E0784CF29014D0E0049F
:1048A500F0E0B404B3E49014D0F0784DE2FF54087E
:1048B500D394004003D38001C392B30000000000ED
:1048C500000000000000000000000000000000D211
:1048D500B000000000000000000000000000000023
:1048E5000000000000C2B0EF25E0784DF29014D032
:0748F500E004F0E0B404B39D
:0148FC002299
:105B5C00E49014D0F0EF5480D394004003D3800130
:105B6C00C392B30000000000000000000000000021
:105B7C0000000000000000D2B00000000000000097
:105B8C0000000000000000000000000000C2B0EFA8
:0D5B9C0025E0FF9014D0E004F0E0B408B85C
:015BA90022D9
:044B7B00784BEFF292
:104B7F00E4FB7D0712481E7D0A124818E4FF125B02
:104B8F005CE4FF125B5C784BE2FF7B027D0A12480C
:104B9F001EE4FF125B5CE4FF125B5CE49014CDF04B
:104BAF009014CDE0FBC39407506B784BE2FF7D0C64
:104BBF0012481E9014CDE0FF700AA37403F0A37483
:104BCF0020F08017EF9014CEB402097401F0A37493
:104BDF00D9F08007740FF0A374FFF09014CEE0C4E7
:104BEF00F854F0C8A3E0C4540F48FF125B5C901454
:104BFF00CFE0540FC4F8540FC868FF125B5CE4FF9A
:104C0F00125B5CE4FF125B5C7F3A125B5C9014CD2D
:104C1F00E004F0808B7D0D1248187FFF125B5C7FE4
:104C2F00FF125B5CE4FF125B5CE4FF125B5C7F14C2
:034C3F00025B5CB9
:10608700E4FB7D0912481ED2B200000000000000A8
:0E6097000000000000000000000000000022D9
:075F3100784DEDF218EFF2CC
:105F38007B017A1479CC124D8A784DE29014CC60AA
:105F480006E04401F08004E054FEF0784CE2FF9053
:075F580014CCE0FD0252CC65
:106179007B017A1479CDE4FF124D8A9014CDE03079
:07618900E7037F00227F0104
:0161900022EC
:10612F007B017A1479CCE4FF124D8A9014CCE030C5
:08613F00E704540FFF227F006A
:016147002235
:1060DE007B017A1479CC124D8A9014CCE0FFF460D7
:0A60EE0007EF60047F0180027F00CD
:0160F8002285
:0A6227004D5300444F0100444C00A9
:10594A00C1AC4214AF00004214B100004114AB07CD
:0C595A004114AC0C4114AD014114AE012D
:0C5A6B00E2FE08E2FD7855E22DF2EEFFAD
:045A7700786CEFF266
:105A7B00C2A4E47815F618F6C2A1786CE2FF139273
:105A8B00A3EFC313F27F037E001257887815E6C38A
:105A9B0013F630A204E64480F6D2A17F037E0012F7
:105AAB005788781406E6C3940840CDD2A47815E63F
:015ABB00FFEB
:015ABC0022C7
:0D0026007868EBF208EAF208E9F208EDF262
:100033007F11125A7778137611786BE204FF125A04
:1000430077786BE204781326F67F1B125A777813BE
:10005300741B26F6E418F6786BE2FF7812E6FEC30B
:100063009F50337868E2FB08E2FA08E2F98E827562
:10007300830012115CFF125A777868E2FB08E2FAF8
:1000830008E2F97812E6F58275830012115C7813A1
:0D00930026F6180680C17813E6FF025A77A2
:0D5BAA007864EBF208EAF208E9F208EDF287
:105BB700E47811F67864E2FB08E2FA08E2F908E211
:105BC700FD1200267F067E001257887FFF125A7744
:105BD7007810EFF6640660157F00125F8C7F0A7EEF
:0D5BE70000125788781106E6C3940A40C7E3
:015BF400228E
:105EA20075840F75A6FA7BFF7A6279277D03125BF0
:105EB200AA12621C7BFF7A62792A7D03125BAA7F97
:105EC200031255607D017F081260F97D027F020294
:025ED200602846
:0B621C007BFF7A62792E7D02025BAAF4
:105D54007820EEF208EFF290149B7447F0A3744499
:105D6400F0EFA3F018E2A3F0EDA3F0ECA3F0EBA3A3
:105D7400F0EAA3F07826E2FC08E2A3F0ECA3F07BBF
:0A5D8400017A14799B7D0A025BAAE4
:105CD100AB05AA04AD07AC069014ABE0FF7E001241
:105CE10011BD9014ADE0FD7C001211BD9014AFEE1A
:105CF100F0A3EFF09014ACE0FF7E00AC02AD031214
:105D010011BD9014AEE0FD7C001211BD9014B1EEF6
:055D1100F0A3EFF022F9
:10556000EFB4010C9014AB7404F0A37406F0804EF9
:10557000EFB4020C9014AB7406F0A37408F0803EF4
:10558000EFB4030C9014AB7407F0A3740CF0802EEE
:10559000EFB4040C9014AB7405F0A3740AF0801EF1
:1055A000EFB4050C9014AB7407F0A3740EF0800EEA
:1055B000EFB4060A9014AB740FF0A3741EF09014AD
:1055C0009E745AF090149C7446F0A3EFF07B017A1D
:0855D00014799B7D03025BAA24
:1060F90090149B7446F0A3745AF0A3EFF0A3EDF04B
:0B6109007B017A14799B7D04025BAAE5
:106028009014ADEFF0A3EDF090149B745AF0A3F028
:10603800A3EFF0A3EDF07B017A14799B7D04025B5A
:01604800AAAD
:1058B3007863EFF2FB90149B745AF0A3744CF0904E
:1058C30014AFE0FCA3E090149DF0ECA3F09014B1AE
:1058D300E0FCA3E090149FF0ECA3F0A3EBF0E4A3AF
:1058E300F07B017A14799B7D08125BAA9014ADE0DA
:1058F300FF9014ABE08FF0A4FFAEF09014B0E02F54
:0C590300F09014AFE03EF07863E2FF2269
:105E6E007828EBF208EAF208E9F27828E2FB08E279
:105E7E00FA08E2F9121143601A7828E2FB0808E2E8
:105E8E00F92401F218E2FA3400F2121143FF12580B
:045E9E00B380D722D4
:10431E00784BEEF208EFF208ECF208EDF208EBF251
:10432E0008E2FB08E2FA08E2F912000E7856EFF204
:10433E00E47854F27F11125A7778557411F208E22C
:10434E002408FF125A777856E22408FF18E22FF25B
:10435E007F1B125A777855E2241BF27F5A125A7736
:10436E007855E2245AF2784FE2FF125A77784FE2EC
:10437E00FF7855E22FF2784B08E2FF125A77784B0E
:10438E00125A6B784BE2FF7855E22FF2784D08E225
:10439E00FF125A77784D125A6B784DE2FF7855E23C
:1043AE002FF2E47853F27856E22401FFE433FE78DC
:1043BE0053E2C39FEE6480F874809850397850E2CF
:1043CE00FB08E2FA08E2F908E2F5827583001211A1
:1043DE005CFF125A777850E2FB08E2FA08E2F9081D
:1043EE00E2F58275830012115CFF7855E22FF278A8
:1043FE0053E204F280B07855E2FF125A777F067EC0
:10440E00001257887FFF125A77EF6406601A7F00FA
:10441E00125F8C7F0A7E001257887854E204F2E213
:08442E00C3940A50030243424B
:014436002263
:01000A0022D3
:106114004C45442D4465627567002452657624001D
:0B61240001FF611400000001000000FA
:1038A600D2B1C2B0C2B2E49014D1F09014D1E0FE0D
:1038B600C39404504CEFC8EEC8088002C333D8FC4A
:1038C6005408D394004003D38001C392B300000090
:1038D60000000000000000000000000000000000E2
:1038E60000D2B00000000000000000000000000050
:1038F60000000000000000C2B09014D1E004F08087
:10390600AAE49014D1F09014D1E0FFC39403504C74
:10391600EDC8EFC8088002C333D8FC5404D3940022
:103926004003D38001C392B30000000000000000F2
:10393600000000000000000000000000D2B00000FF
:103946000000000000000000000000000000000071
:103956000000C2B09014D1E004F080AAE49014D123
:10396600F09014D1E0FFC39404504CEBC8EFC808A4
:103976008002C333D8FC5408D394004003D380019B
:10398600C392B30000000000000000000000000029
:1039960000000000000000D2B0000000000000009F
:1039A60000000000000000000000000000C2B0900F
:1039B60014D1E004F080AAD2B2000000000000009A
:1039C60000000000000000000000000000D2B0006F
:1039D60000000000000000000000000000000000E1
:1039E600000000C2B0C2B2C2B37854E224FF92B063
:1039F600D2B2C2B1000000000000000000000000CA
:0A3A06000000000000000000C2B242
:013A10002293
:07624100E47854F20238A6D4
:03535600CCEBCCD1
:105359007B03126241E49014E7F0EC5480D394008B
:105369004003D38001C392B3000000000000000095
:10537900000000000000000000000000D2B00000A2
:105389000000000000000000000000000000000014
:105399000000C2B0EC25E0FC9014E7E004F0E0B4B2
:1053A90008B8C2B3D2B2000000000000000000003B
:1053B90000000000000000000000D2B00000000062
:1053C90000000000000000000000000000000000D4
:0453D900C2B0C2B2EA
:0153DD0022AD
:0353DE00CCEBCC49
:1053E1007B02126241E49014E8F0EC5480D3940003
:1053F1004003D38001C392B300000000000000000D
:10540100000000000000000000000000D2B0000019
:10541100000000000000000000000000000000008B
:105421000000C2B0EC25E0FC9014E8E004F0E0B428
:1054310008B8C2B3D2B200000000000000000000B2
:1054410000000000000000000000D2B000000000D9
:10545100000000000000000000000000000000004B
:04546100C2B0C2B261
:015465002224
:0A4EC100782BEBF208EAF208E9F2A0
:104ECB00E4FB126241D2B2000000000000000000BF
:104EDB000000000000000000000000D2B000000045
:104EEB0000000000000000000000000000000000B7
:104EFB0000C2B0C2B2E49014E2F000000000000067
:104F0B000000000000000000000000000000D2B014
:104F1B000000000000000000000000000000000086
:104F2B0000000000C2B09014E3E025E0FFA2B4E45F
:104F3B00334FF09014E2E004F0E0B408BD9014E3BA
:104F4B00E0FF782BE2FB08E2FA08E2F9EF021189A5
:0A4F5B00782EEBF208EAF208E9F202
:104F65007B01126241D2B200000000000000000087
:104F75000000000000000000000000D2B0000000AA
:104F8500000000000000000000000000000000001C
:104F950000C2B0C2B2E49014E4F0000000000000CA
:104FA5000000000000000000000000000000D2B07A
:104FB50000000000000000000000000000000000EC
:104FC50000000000C2B09014E5E025E0FFA2B4E4C3
:104FD500334FF09014E4E004F0E0B408BD9014E51C
:104FE500E0FF782EE2FB08E2FA08E2F9EF02118908
:0352CC00CCEDCC5A
:1052CF007B05E4FD126241E49014CDF0EC5480D3E1
:1052DF0094004003D38001C392B30000000000008C
:1052EF000000000000000000000000000000D2B02D
:1052FF00000000000000000000000000000000009F
:10530F0000000000C2B0EC25E0FC9014CDE004F0EA
:10531F00E0B408B8C2B3D2B2000000000000000031
:10532F00000000000000000000000000D2B00000EC
:10533F00000000000000000000000000000000005E
:06534F000000C2B0C2B272
:015355002235
:0A4D8A00784EEBF208EAF208E9F2B5
:104D94007B04E4FD126241D2B20000000000000076
:104DA40000000000000000000000000000D2B0007D
:104DB40000000000000000000000000000000000EF
:104DC400000000C2B0C2B2E49014CEF000000000B3
:104DD40000000000000000000000000000000000CF
:104DE400D2B000000000000000000000000000003D
:104DF400000000000000C2B09014CFE025E0FFA244
:104E0400B4E4334FF09014CEE004F0E0B408BD9065
:104E140014CFE0FF784EE2FB08E2FA08E2F9EF0271
:024E24001189F2
:106148007B017A1479E9123E239014E9E0D3940094
:0861580040047F0180027F007A
:01616000221C
:0A3E2300784CEBF208EAF208E9F22D
:103E2D007B07126241D2B3000000000000000000C9
:103E3D000000000000000000000000D2B0000000F3
:103E4D000000000000000000000000000000000065
:103E5D0000C2B0D2B300000000000000000000005E
:103E6D00000000000000000000D2B00000000000C3
:103E7D00000000000000000000000000000000C273
:103E8D00B0C2B30000000000000000000000000000
:103E9D0000000000000000D2B00000000000000093
:103EAD0000000000000000000000000000C2B0E4AF
:103EBD009014CCF0C2B30000000000000000000020
:103ECD0000000000000000000000D2B00000000063
:103EDD0000000000000000000000000000000000D5
:103EED00C2B09014CCE004F0E0B406C830B40D7844
:103EFD004CE2FB08E2FA08E2F9E48065E49014CCA8
:103F0D00F0000000000000000000000000000000B4
:103F1D000000000000D2B000000000000000000012
:103F2D000000000000000000000000C2B09014CEA0
:103F3D00E025E0FF9014CDE033FEA2B4E433FDEFB5
:103F4D004DFFEEF0A3EFF09014CCE004F0E0B410D0
:103F5D00B09014CDE0FF784CE2FB08E2FA08E2F9EC
:043F6D00EF121189B5
:013F7100222D
:105D8E009014DFEFF0CEEDCEA3EEF0A3EBF01261A8
:105D9E0048EF7002FF229014DFE0FFA3E0FD7B01CD
:105DAE007A1479DE123E239014E1E0FF9014DEE0C7
:095DBE006F70047F0180027F0078
:015DC70022B9
:0334B200CCEBCC94
:1034B5007B07126241D2B30000000000000000004B
:1034C5000000000000000000000000D2B000000075
:1034D50000000000000000000000000000000000E7
:1034E50000C2B0C2B30000000000000000000000F0
:1034F500000000000000000000D2B0000000000045
:10350500000000000000000000000000000000C2F4
:10351500B0C2B30000000000000000000000000081
:1035250000000000000000D2B00000000000000014
:1035350000000000000000000000000000C2B0E430
:103545009014CCF0D2B30000000000000000000091
:1035550000000000000000000000D2B000000000E4
:103565000000000000000000000000000000000056
:10357500C2B09014CCE004F0E0B406C8D2B20000AA
:103585000000000000000000000000000000000036
:103595000000C2B2D2B3000000000000000000002D
:1035A50000000000000000000000D2B00000000094
:1035B5000000000000000000000000000000000006
:1035C500C2B0C2B30000000000000000000000000F
:1035D5000000000000000000D2B000000000000064
:1035E5000000000000000000000000000000C2B064
:1035F500D2B3000000000000000000000000000041
:10360500000000000000D2B0000000000000000033
:10361500000000000000000000000000C2B0E490BF
:1036250014CCF0C2B3000000000000000000000050
:10363500000000000000000000D2B0000000000003
